{
  "address": "0x5BCF9C0A5fe546990248c5A3AD794409F471f28e",
  "abi": [
    {
      "inputs": [
        {
          "internalType": "address",
          "name": "_treasury",
          "type": "address"
        },
        {
          "internalType": "address",
          "name": "_rome",
          "type": "address"
        },
        {
          "internalType": "uint256",
          "name": "_epochLength",
          "type": "uint256"
        },
        {
          "internalType": "uint256",
          "name": "_nextEpochBlock",
          "type": "uint256"
        }
      ],
      "stateMutability": "nonpayable",
      "type": "constructor"
    },
    {
      "anonymous": false,
      "inputs": [
        {
          "indexed": true,
          "internalType": "address",
          "name": "previousOwner",
          "type": "address"
        },
        {
          "indexed": true,
          "internalType": "address",
          "name": "newOwner",
          "type": "address"
        }
      ],
      "name": "OwnershipPulled",
      "type": "event"
    },
    {
      "anonymous": false,
      "inputs": [
        {
          "indexed": true,
          "internalType": "address",
          "name": "previousOwner",
          "type": "address"
        },
        {
          "indexed": true,
          "internalType": "address",
          "name": "newOwner",
          "type": "address"
        }
      ],
      "name": "OwnershipPushed",
      "type": "event"
    },
    {
      "inputs": [],
      "name": "ROME",
      "outputs": [
        {
          "internalType": "address",
          "name": "",
          "type": "address"
        }
      ],
      "stateMutability": "view",
      "type": "function"
    },
    {
      "inputs": [
        {
          "internalType": "address",
          "name": "_recipient",
          "type": "address"
        },
        {
          "internalType": "uint256",
          "name": "_rewardRate",
          "type": "uint256"
        }
      ],
      "name": "addRecipient",
      "outputs": [],
      "stateMutability": "nonpayable",
      "type": "function"
    },
    {
      "inputs": [
        {
          "internalType": "uint256",
          "name": "",
          "type": "uint256"
        }
      ],
      "name": "adjustments",
      "outputs": [
        {
          "internalType": "bool",
          "name": "add",
          "type": "bool"
        },
        {
          "internalType": "uint256",
          "name": "rate",
          "type": "uint256"
        },
        {
          "internalType": "uint256",
          "name": "target",
          "type": "uint256"
        }
      ],
      "stateMutability": "view",
      "type": "function"
    },
    {
      "inputs": [],
      "name": "distribute",
      "outputs": [
        {
          "internalType": "bool",
          "name": "",
          "type": "bool"
        }
      ],
      "stateMutability": "nonpayable",
      "type": "function"
    },
    {
      "inputs": [],
      "name": "epochLength",
      "outputs": [
        {
          "internalType": "uint256",
          "name": "",
          "type": "uint256"
        }
      ],
      "stateMutability": "view",
      "type": "function"
    },
    {
      "inputs": [
        {
          "internalType": "uint256",
          "name": "",
          "type": "uint256"
        }
      ],
      "name": "info",
      "outputs": [
        {
          "internalType": "uint256",
          "name": "rate",
          "type": "uint256"
        },
        {
          "internalType": "address",
          "name": "recipient",
          "type": "address"
        }
      ],
      "stateMutability": "view",
      "type": "function"
    },
    {
      "inputs": [],
      "name": "nextEpochBlock",
      "outputs": [
        {
          "internalType": "uint256",
          "name": "",
          "type": "uint256"
        }
      ],
      "stateMutability": "view",
      "type": "function"
    },
    {
      "inputs": [
        {
          "internalType": "uint256",
          "name": "_rate",
          "type": "uint256"
        }
      ],
      "name": "nextRewardAt",
      "outputs": [
        {
          "internalType": "uint256",
          "name": "",
          "type": "uint256"
        }
      ],
      "stateMutability": "view",
      "type": "function"
    },
    {
      "inputs": [
        {
          "internalType": "address",
          "name": "_recipient",
          "type": "address"
        }
      ],
      "name": "nextRewardFor",
      "outputs": [
        {
          "internalType": "uint256",
          "name": "",
          "type": "uint256"
        }
      ],
      "stateMutability": "view",
      "type": "function"
    },
    {
      "inputs": [],
      "name": "policy",
      "outputs": [
        {
          "internalType": "address",
          "name": "",
          "type": "address"
        }
      ],
      "stateMutability": "view",
      "type": "function"
    },
    {
      "inputs": [],
      "name": "pullPolicy",
      "outputs": [],
      "stateMutability": "nonpayable",
      "type": "function"
    },
    {
      "inputs": [
        {
          "internalType": "address",
          "name": "newOwner_",
          "type": "address"
        }
      ],
      "name": "pushPolicy",
      "outputs": [],
      "stateMutability": "nonpayable",
      "type": "function"
    },
    {
      "inputs": [
        {
          "internalType": "uint256",
          "name": "_index",
          "type": "uint256"
        },
        {
          "internalType": "address",
          "name": "_recipient",
          "type": "address"
        }
      ],
      "name": "removeRecipient",
      "outputs": [],
      "stateMutability": "nonpayable",
      "type": "function"
    },
    {
      "inputs": [],
      "name": "renouncePolicy",
      "outputs": [],
      "stateMutability": "nonpayable",
      "type": "function"
    },
    {
      "inputs": [
        {
          "internalType": "uint256",
          "name": "_index",
          "type": "uint256"
        },
        {
          "internalType": "bool",
          "name": "_add",
          "type": "bool"
        },
        {
          "internalType": "uint256",
          "name": "_rate",
          "type": "uint256"
        },
        {
          "internalType": "uint256",
          "name": "_target",
          "type": "uint256"
        }
      ],
      "name": "setAdjustment",
      "outputs": [],
      "stateMutability": "nonpayable",
      "type": "function"
    },
    {
      "inputs": [],
      "name": "treasury",
      "outputs": [
        {
          "internalType": "address",
          "name": "",
          "type": "address"
        }
      ],
      "stateMutability": "view",
      "type": "function"
    }
  ],
  "transactionHash": "0xd4f07c7b0c7067553236319ca45911e78e9d8c36fc9c1ac14a46dd7e48bc95cf",
  "args": [
    "0xfbAD41e4Dd040BC80c89FcC6E90d152A746139aF",
    "0x4a436073552044D5f2f49B176853ad3Ad473d9d6",
    "2200",
    "993734"
  ],
  "solcInputHash": "216d08a10c5feee05bff696487973d2a",
  "bytecode": "0x60e060405234801561001057600080fd5b506040516113563803806113568339818101604052608081101561003357600080fd5b5080516020820151604080840151606090940151600080546001600160a01b031916331780825592519495939491926001600160a01b0316917fea8258f2d9ddb679928cf34b78cf645b7feda9acc828e4dd82d014eaae270eba908290a36001600160a01b0384166100a457600080fd5b6001600160601b0319606085901b1660a0526001600160a01b0383166100c957600080fd5b6001600160601b031960609390931b9290921660805260c0526002555060805160601c60a05160601c60c05161122f6101276000398061044952806109ff52508061065b5280610a5c52508061067f5280610949525061122f6000f3fe608060405234801561001057600080fd5b50600436106100ff5760003560e01c80639d95fbd211610097578063c9fa8b2a11610066578063c9fa8b2a14610298578063e4fc6b6d146102b5578063f7982243146102d1578063fe3fbbad1461030a576100ff565b80639d95fbd214610218578063a15ad07714610220578063a4b2398014610253578063bc3b2b121461025b576100ff565b806357d775f8116100d357806357d775f8146101cd5780635beede08146101d55780635db854b0146101df57806361d027b314610210576100ff565b8062640c2e146101045780630505c8c91461011e5780632e3405991461014f57806336d33f441461019a575b600080fd5b61010c610343565b60408051918252519081900360200190f35b610126610349565b6040805173ffffffffffffffffffffffffffffffffffffffff9092168252519081900360200190f35b61016c6004803603602081101561016557600080fd5b5035610366565b6040805192835273ffffffffffffffffffffffffffffffffffffffff90911660208301528051918290030190f35b61010c600480360360208110156101b057600080fd5b503573ffffffffffffffffffffffffffffffffffffffff166103aa565b61010c610447565b6101dd61046b565b005b6101dd600480360360808110156101f557600080fd5b5080359060208101351515906040810135906060013561056e565b610126610659565b61012661067d565b6101dd6004803603602081101561023657600080fd5b503573ffffffffffffffffffffffffffffffffffffffff166106a1565b6101dd610820565b6102786004803603602081101561027157600080fd5b5035610915565b604080519315158452602084019290925282820152519081900360600190f35b61010c600480360360208110156102ae57600080fd5b503561093a565b6102bd6109eb565b604080519115158252519081900360200190f35b6101dd600480360360408110156102e757600080fd5b5073ffffffffffffffffffffffffffffffffffffffff8135169060200135610b73565b6101dd6004803603604081101561032057600080fd5b508035906020013573ffffffffffffffffffffffffffffffffffffffff16610cd3565b60025481565b60005473ffffffffffffffffffffffffffffffffffffffff165b90565b6004818154811061037657600080fd5b60009182526020909120600290910201805460019091015490915073ffffffffffffffffffffffffffffffffffffffff1682565b60008060005b600454811015610440578373ffffffffffffffffffffffffffffffffffffffff16600482815481106103de57fe5b600091825260209091206001600290920201015473ffffffffffffffffffffffffffffffffffffffff161415610438576104356004828154811061041e57fe5b90600052602060002090600202016000015461093a565b91505b6001016103b0565b5092915050565b7f000000000000000000000000000000000000000000000000000000000000000081565b60015473ffffffffffffffffffffffffffffffffffffffff1633146104db576040517f08c379a00000000000000000000000000000000000000000000000000000000081526004018080602001828103825260228152602001806111b76022913960400191505060405180910390fd5b6001546000805460405173ffffffffffffffffffffffffffffffffffffffff93841693909116917faa151555690c956fc3ea32f106bb9f119b5237a061eaa8557cff3e51e3792c8d91a3600154600080547fffffffffffffffffffffffff00000000000000000000000000000000000000001673ffffffffffffffffffffffffffffffffffffffff909216919091179055565b60005473ffffffffffffffffffffffffffffffffffffffff1633146105f457604080517f08c379a000000000000000000000000000000000000000000000000000000000815260206004820181905260248201527f4f776e61626c653a2063616c6c6572206973206e6f7420746865206f776e6572604482015290519081900360640190fd5b6040805160608101825293151584526020808501938452848201928352600095865260039052909320915182547fffffffffffffffffffffffffffffffffffffffffffffffffffffffffffffff00169015151782555160018201559051600290910155565b7f000000000000000000000000000000000000000000000000000000000000000081565b7f000000000000000000000000000000000000000000000000000000000000000081565b60005473ffffffffffffffffffffffffffffffffffffffff16331461072757604080517f08c379a000000000000000000000000000000000000000000000000000000000815260206004820181905260248201527f4f776e61626c653a2063616c6c6572206973206e6f7420746865206f776e6572604482015290519081900360640190fd5b73ffffffffffffffffffffffffffffffffffffffff8116610793576040517f08c379a00000000000000000000000000000000000000000000000000000000081526004018080602001828103825260268152602001806111916026913960400191505060405180910390fd5b6000805460405173ffffffffffffffffffffffffffffffffffffffff808516939216917fea8258f2d9ddb679928cf34b78cf645b7feda9acc828e4dd82d014eaae270eba91a3600180547fffffffffffffffffffffffff00000000000000000000000000000000000000001673ffffffffffffffffffffffffffffffffffffffff92909216919091179055565b60005473ffffffffffffffffffffffffffffffffffffffff1633146108a657604080517f08c379a000000000000000000000000000000000000000000000000000000000815260206004820181905260248201527f4f776e61626c653a2063616c6c6572206973206e6f7420746865206f776e6572604482015290519081900360640190fd5b6000805460405173ffffffffffffffffffffffffffffffffffffffff909116907fea8258f2d9ddb679928cf34b78cf645b7feda9acc828e4dd82d014eaae270eba908390a3600080547fffffffffffffffffffffffff0000000000000000000000000000000000000000169055565b60036020526000908152604090208054600182015460029092015460ff909116919083565b60006109e5620f42406109df847f000000000000000000000000000000000000000000000000000000000000000073ffffffffffffffffffffffffffffffffffffffff166318160ddd6040518163ffffffff1660e01b815260040160206040518083038186803b1580156109ad57600080fd5b505afa1580156109c1573d6000803e3d6000fd5b505050506040513d60208110156109d757600080fd5b505190610e20565b90610e9a565b92915050565b60004360025411610b6b57600254610a23907f0000000000000000000000000000000000000000000000000000000000000000610f1b565b60025560005b600454811015610b6157600060048281548110610a4257fe5b9060005260206000209060020201600001541115610b59577f000000000000000000000000000000000000000000000000000000000000000073ffffffffffffffffffffffffffffffffffffffff16636a20de9260048381548110610aa357fe5b906000526020600020906002020160010160009054906101000a900473ffffffffffffffffffffffffffffffffffffffff16610ae56004858154811061041e57fe5b6040518363ffffffff1660e01b8152600401808373ffffffffffffffffffffffffffffffffffffffff16815260200182815260200192505050600060405180830381600087803b158015610b3857600080fd5b505af1158015610b4c573d6000803e3d6000fd5b50505050610b5981610f8f565b600101610a29565b5060019050610363565b506000610363565b60005473ffffffffffffffffffffffffffffffffffffffff163314610bf957604080517f08c379a000000000000000000000000000000000000000000000000000000000815260206004820181905260248201527f4f776e61626c653a2063616c6c6572206973206e6f7420746865206f776e6572604482015290519081900360640190fd5b73ffffffffffffffffffffffffffffffffffffffff8216610c1957600080fd5b6040805180820190915290815273ffffffffffffffffffffffffffffffffffffffff918216602082019081526004805460018101825560009190915291517f8a35acfbc15ff81a39ae7d344fd709f28e8600b4aa8c65c6b64bfe7fe36bd19b600290930292830155517f8a35acfbc15ff81a39ae7d344fd709f28e8600b4aa8c65c6b64bfe7fe36bd19c90910180547fffffffffffffffffffffffff00000000000000000000000000000000000000001691909216179055565b60005473ffffffffffffffffffffffffffffffffffffffff163314610d5957604080517f08c379a000000000000000000000000000000000000000000000000000000000815260206004820181905260248201527f4f776e61626c653a2063616c6c6572206973206e6f7420746865206f776e6572604482015290519081900360640190fd5b60048281548110610d6657fe5b600091825260209091206001600290920201015473ffffffffffffffffffffffffffffffffffffffff828116911614610d9e57600080fd5b600060048381548110610dad57fe5b906000526020600020906002020160010160006101000a81548173ffffffffffffffffffffffffffffffffffffffff021916908373ffffffffffffffffffffffffffffffffffffffff160217905550600060048381548110610e0b57fe5b60009182526020909120600290910201555050565b600082610e2f575060006109e5565b82820282848281610e3c57fe5b0414610e93576040517f08c379a00000000000000000000000000000000000000000000000000000000081526004018080602001828103825260218152602001806111d96021913960400191505060405180910390fd5b9392505050565b6000808211610f0a57604080517f08c379a000000000000000000000000000000000000000000000000000000000815260206004820152601a60248201527f536166654d6174683a206469766973696f6e206279207a65726f000000000000604482015290519081900360640190fd5b818381610f1357fe5b049392505050565b600082820183811015610e9357604080517f08c379a000000000000000000000000000000000000000000000000000000000815260206004820152601b60248201527f536166654d6174683a206164646974696f6e206f766572666c6f770000000000604482015290519081900360640190fd5b610f9761116d565b506000818152600360209081526040918290208251606081018452815460ff1615158152600182015492810183905260029091015492810192909252156110f25780511561106b5761100b816020015160048481548110610ff457fe5b600091825260209091206002909102015490610f1b565b6004838154811061101857fe5b60009182526020909120600290910201556040810151600480548490811061103c57fe5b90600052602060002090600202016000015410611066576000828152600360205260408120600101555b6110f2565b61109781602001516004848154811061108057fe5b6000918252602090912060029091020154906110f6565b600483815481106110a457fe5b6000918252602090912060029091020155604081015160048054849081106110c857fe5b906000526020600020906002020160000154116110f2576000828152600360205260408120600101555b5050565b60008282111561116757604080517f08c379a000000000000000000000000000000000000000000000000000000000815260206004820152601e60248201527f536166654d6174683a207375627472616374696f6e206f766572666c6f770000604482015290519081900360640190fd5b50900390565b60405180606001604052806000151581526020016000815260200160008152509056fe4f776e61626c653a206e6577206f776e657220697320746865207a65726f20616464726573734f776e61626c653a206d757374206265206e6577206f776e657220746f2070756c6c536166654d6174683a206d756c7469706c69636174696f6e206f766572666c6f77a264697066735822122010a41e351b98698842474b58a38afa5b98e84a1322b5039b893dba101f8114c064736f6c63430007050033",
  "devdoc": {
    "kind": "dev",
    "methods": {
      "addRecipient(address,uint256)": {
        "params": {
          "_recipient": "address",
          "_rewardRate": "uint"
        }
      },
      "nextRewardAt(uint256)": {
        "params": {
          "_rate": "uint"
        },
        "returns": {
          "_0": "uint"
        }
      },
      "nextRewardFor(address)": {
        "params": {
          "_recipient": "address"
        },
        "returns": {
          "_0": "uint"
        }
      },
      "removeRecipient(uint256,address)": {
        "params": {
          "_index": "uint",
          "_recipient": "address"
        }
      },
      "setAdjustment(uint256,bool,uint256,uint256)": {
        "params": {
          "_add": "bool",
          "_index": "uint",
          "_rate": "uint",
          "_target": "uint"
        }
      }
    },
    "version": 1
  },
  "userdoc": {
    "kind": "user",
    "methods": {
      "addRecipient(address,uint256)": {
        "notice": "adds recipient for distributions"
      },
      "distribute()": {
        "notice": "send epoch reward to staking contract"
      },
      "nextRewardAt(uint256)": {
        "notice": "view function for next reward at given rate"
      },
      "nextRewardFor(address)": {
        "notice": "view function for next reward for specified address"
      },
      "removeRecipient(uint256,address)": {
        "notice": "removes recipient for distributions"
      },
      "setAdjustment(uint256,bool,uint256,uint256)": {
        "notice": "set adjustment info for a collector's reward rate"
      }
    },
    "version": 1
  },
  "storageLayout": {
    "storage": [
      {
        "astId": 15554,
        "contract": "src/Distributor.sol:Distributor",
        "label": "_owner",
        "offset": 0,
        "slot": "0",
        "type": "t_address"
      },
      {
        "astId": 15556,
        "contract": "src/Distributor.sol:Distributor",
        "label": "_newOwner",
        "offset": 0,
        "slot": "1",
        "type": "t_address"
      },
      {
        "astId": 8289,
        "contract": "src/Distributor.sol:Distributor",
        "label": "nextEpochBlock",
        "offset": 0,
        "slot": "2",
        "type": "t_uint256"
      },
      {
        "astId": 8293,
        "contract": "src/Distributor.sol:Distributor",
        "label": "adjustments",
        "offset": 0,
        "slot": "3",
        "type": "t_mapping(t_uint256,t_struct(Adjust)8308_storage)"
      },
      {
        "astId": 8301,
        "contract": "src/Distributor.sol:Distributor",
        "label": "info",
        "offset": 0,
        "slot": "4",
        "type": "t_array(t_struct(Info)8298_storage)dyn_storage"
      }
    ],
    "types": {
      "t_address": {
        "encoding": "inplace",
        "label": "address",
        "numberOfBytes": "20"
      },
      "t_array(t_struct(Info)8298_storage)dyn_storage": {
        "base": "t_struct(Info)8298_storage",
        "encoding": "dynamic_array",
        "label": "struct Distributor.Info[]",
        "numberOfBytes": "32"
      },
      "t_bool": {
        "encoding": "inplace",
        "label": "bool",
        "numberOfBytes": "1"
      },
      "t_mapping(t_uint256,t_struct(Adjust)8308_storage)": {
        "encoding": "mapping",
        "key": "t_uint256",
        "label": "mapping(uint256 => struct Distributor.Adjust)",
        "numberOfBytes": "32",
        "value": "t_struct(Adjust)8308_storage"
      },
      "t_struct(Adjust)8308_storage": {
        "encoding": "inplace",
        "label": "struct Distributor.Adjust",
        "members": [
          {
            "astId": 8303,
            "contract": "src/Distributor.sol:Distributor",
            "label": "add",
            "offset": 0,
            "slot": "0",
            "type": "t_bool"
          },
          {
            "astId": 8305,
            "contract": "src/Distributor.sol:Distributor",
            "label": "rate",
            "offset": 0,
            "slot": "1",
            "type": "t_uint256"
          },
          {
            "astId": 8307,
            "contract": "src/Distributor.sol:Distributor",
            "label": "target",
            "offset": 0,
            "slot": "2",
            "type": "t_uint256"
          }
        ],
        "numberOfBytes": "96"
      },
      "t_struct(Info)8298_storage": {
        "encoding": "inplace",
        "label": "struct Distributor.Info",
        "members": [
          {
            "astId": 8295,
            "contract": "src/Distributor.sol:Distributor",
            "label": "rate",
            "offset": 0,
            "slot": "0",
            "type": "t_uint256"
          },
          {
            "astId": 8297,
            "contract": "src/Distributor.sol:Distributor",
            "label": "recipient",
            "offset": 0,
            "slot": "1",
            "type": "t_address"
          }
        ],
        "numberOfBytes": "64"
      },
      "t_uint256": {
        "encoding": "inplace",
        "label": "uint256",
        "numberOfBytes": "32"
      }
    }
  }
}