{
  "address": "0xFc850116552C0200f9810dA9a2EF5075e5387c6B",
  "abi": [
    {
      "inputs": [
        {
          "internalType": "address",
          "name": "_ROME",
          "type": "address"
        },
        {
          "internalType": "address",
          "name": "_principle",
          "type": "address"
        },
        {
          "internalType": "address",
          "name": "_treasury",
          "type": "address"
        },
        {
          "internalType": "address",
          "name": "_DAO",
          "type": "address"
        },
        {
          "internalType": "address",
          "name": "_bondCalculator",
          "type": "address"
        },
        {
          "internalType": "address",
          "name": "_feed",
          "type": "address"
        }
      ],
      "stateMutability": "nonpayable",
      "type": "constructor"
    },
    {
      "anonymous": false,
      "inputs": [
        {
          "indexed": false,
          "internalType": "uint256",
          "name": "deposit",
          "type": "uint256"
        },
        {
          "indexed": true,
          "internalType": "uint256",
          "name": "payout",
          "type": "uint256"
        },
        {
          "indexed": true,
          "internalType": "uint256",
          "name": "expires",
          "type": "uint256"
        },
        {
          "indexed": true,
          "internalType": "uint256",
          "name": "priceInUSD",
          "type": "uint256"
        }
      ],
      "name": "BondCreated",
      "type": "event"
    },
    {
      "anonymous": false,
      "inputs": [
        {
          "indexed": true,
          "internalType": "uint256",
          "name": "priceInUSD",
          "type": "uint256"
        },
        {
          "indexed": true,
          "internalType": "uint256",
          "name": "internalPrice",
          "type": "uint256"
        },
        {
          "indexed": true,
          "internalType": "uint256",
          "name": "debtRatio",
          "type": "uint256"
        }
      ],
      "name": "BondPriceChanged",
      "type": "event"
    },
    {
      "anonymous": false,
      "inputs": [
        {
          "indexed": true,
          "internalType": "address",
          "name": "recipient",
          "type": "address"
        },
        {
          "indexed": false,
          "internalType": "uint256",
          "name": "payout",
          "type": "uint256"
        },
        {
          "indexed": false,
          "internalType": "uint256",
          "name": "remaining",
          "type": "uint256"
        }
      ],
      "name": "BondRedeemed",
      "type": "event"
    },
    {
      "anonymous": false,
      "inputs": [
        {
          "indexed": false,
          "internalType": "uint256",
          "name": "initialBCV",
          "type": "uint256"
        },
        {
          "indexed": false,
          "internalType": "uint256",
          "name": "newBCV",
          "type": "uint256"
        },
        {
          "indexed": false,
          "internalType": "uint256",
          "name": "adjustment",
          "type": "uint256"
        },
        {
          "indexed": false,
          "internalType": "bool",
          "name": "addition",
          "type": "bool"
        }
      ],
      "name": "ControlVariableAdjustment",
      "type": "event"
    },
    {
      "anonymous": false,
      "inputs": [
        {
          "indexed": true,
          "internalType": "address",
          "name": "previousOwner",
          "type": "address"
        },
        {
          "indexed": true,
          "internalType": "address",
          "name": "newOwner",
          "type": "address"
        }
      ],
      "name": "OwnershipPulled",
      "type": "event"
    },
    {
      "anonymous": false,
      "inputs": [
        {
          "indexed": true,
          "internalType": "address",
          "name": "previousOwner",
          "type": "address"
        },
        {
          "indexed": true,
          "internalType": "address",
          "name": "newOwner",
          "type": "address"
        }
      ],
      "name": "OwnershipPushed",
      "type": "event"
    },
    {
      "inputs": [],
      "name": "DAO",
      "outputs": [
        {
          "internalType": "address",
          "name": "",
          "type": "address"
        }
      ],
      "stateMutability": "view",
      "type": "function"
    },
    {
      "inputs": [],
      "name": "ROME",
      "outputs": [
        {
          "internalType": "address",
          "name": "",
          "type": "address"
        }
      ],
      "stateMutability": "view",
      "type": "function"
    },
    {
      "inputs": [],
      "name": "adjustment",
      "outputs": [
        {
          "internalType": "bool",
          "name": "add",
          "type": "bool"
        },
        {
          "internalType": "uint256",
          "name": "rate",
          "type": "uint256"
        },
        {
          "internalType": "uint256",
          "name": "target",
          "type": "uint256"
        },
        {
          "internalType": "uint256",
          "name": "buffer",
          "type": "uint256"
        },
        {
          "internalType": "uint256",
          "name": "lastBlock",
          "type": "uint256"
        }
      ],
      "stateMutability": "view",
      "type": "function"
    },
    {
      "inputs": [],
      "name": "assetPrice",
      "outputs": [
        {
          "internalType": "int256",
          "name": "",
          "type": "int256"
        }
      ],
      "stateMutability": "view",
      "type": "function"
    },
    {
      "inputs": [],
      "name": "bondCalculator",
      "outputs": [
        {
          "internalType": "address",
          "name": "",
          "type": "address"
        }
      ],
      "stateMutability": "view",
      "type": "function"
    },
    {
      "inputs": [
        {
          "internalType": "address",
          "name": "",
          "type": "address"
        }
      ],
      "name": "bondInfo",
      "outputs": [
        {
          "internalType": "uint256",
          "name": "payout",
          "type": "uint256"
        },
        {
          "internalType": "uint256",
          "name": "vesting",
          "type": "uint256"
        },
        {
          "internalType": "uint256",
          "name": "lastBlock",
          "type": "uint256"
        },
        {
          "internalType": "uint256",
          "name": "pricePaid",
          "type": "uint256"
        }
      ],
      "stateMutability": "view",
      "type": "function"
    },
    {
      "inputs": [],
      "name": "bondPrice",
      "outputs": [
        {
          "internalType": "uint256",
          "name": "price_",
          "type": "uint256"
        }
      ],
      "stateMutability": "view",
      "type": "function"
    },
    {
      "inputs": [],
      "name": "bondPriceInUSD",
      "outputs": [
        {
          "internalType": "uint256",
          "name": "price_",
          "type": "uint256"
        }
      ],
      "stateMutability": "view",
      "type": "function"
    },
    {
      "inputs": [],
      "name": "currentDebt",
      "outputs": [
        {
          "internalType": "uint256",
          "name": "",
          "type": "uint256"
        }
      ],
      "stateMutability": "view",
      "type": "function"
    },
    {
      "inputs": [],
      "name": "debtDecay",
      "outputs": [
        {
          "internalType": "uint256",
          "name": "decay_",
          "type": "uint256"
        }
      ],
      "stateMutability": "view",
      "type": "function"
    },
    {
      "inputs": [],
      "name": "debtRatio",
      "outputs": [
        {
          "internalType": "uint256",
          "name": "debtRatio_",
          "type": "uint256"
        }
      ],
      "stateMutability": "view",
      "type": "function"
    },
    {
      "inputs": [
        {
          "internalType": "uint256",
          "name": "_amount",
          "type": "uint256"
        },
        {
          "internalType": "uint256",
          "name": "_maxPrice",
          "type": "uint256"
        },
        {
          "internalType": "address",
          "name": "_depositor",
          "type": "address"
        }
      ],
      "name": "deposit",
      "outputs": [
        {
          "internalType": "uint256",
          "name": "",
          "type": "uint256"
        }
      ],
      "stateMutability": "nonpayable",
      "type": "function"
    },
    {
      "inputs": [
        {
          "internalType": "uint256",
          "name": "_controlVariable",
          "type": "uint256"
        },
        {
          "internalType": "uint256",
          "name": "_vestingTerm",
          "type": "uint256"
        },
        {
          "internalType": "uint256",
          "name": "_minimumPrice",
          "type": "uint256"
        },
        {
          "internalType": "uint256",
          "name": "_maxPayout",
          "type": "uint256"
        },
        {
          "internalType": "uint256",
          "name": "_maxDebt",
          "type": "uint256"
        },
        {
          "internalType": "uint256",
          "name": "_initialDebt",
          "type": "uint256"
        }
      ],
      "name": "initializeBondTerms",
      "outputs": [],
      "stateMutability": "nonpayable",
      "type": "function"
    },
    {
      "inputs": [],
      "name": "lastDecay",
      "outputs": [
        {
          "internalType": "uint256",
          "name": "",
          "type": "uint256"
        }
      ],
      "stateMutability": "view",
      "type": "function"
    },
    {
      "inputs": [],
      "name": "maxPayout",
      "outputs": [
        {
          "internalType": "uint256",
          "name": "",
          "type": "uint256"
        }
      ],
      "stateMutability": "view",
      "type": "function"
    },
    {
      "inputs": [
        {
          "internalType": "uint256",
          "name": "_value",
          "type": "uint256"
        }
      ],
      "name": "payoutFor",
      "outputs": [
        {
          "internalType": "uint256",
          "name": "",
          "type": "uint256"
        }
      ],
      "stateMutability": "view",
      "type": "function"
    },
    {
      "inputs": [
        {
          "internalType": "address",
          "name": "_depositor",
          "type": "address"
        }
      ],
      "name": "pendingPayoutFor",
      "outputs": [
        {
          "internalType": "uint256",
          "name": "pendingPayout_",
          "type": "uint256"
        }
      ],
      "stateMutability": "view",
      "type": "function"
    },
    {
      "inputs": [
        {
          "internalType": "address",
          "name": "_depositor",
          "type": "address"
        }
      ],
      "name": "percentVestedFor",
      "outputs": [
        {
          "internalType": "uint256",
          "name": "percentVested_",
          "type": "uint256"
        }
      ],
      "stateMutability": "view",
      "type": "function"
    },
    {
      "inputs": [],
      "name": "policy",
      "outputs": [
        {
          "internalType": "address",
          "name": "",
          "type": "address"
        }
      ],
      "stateMutability": "view",
      "type": "function"
    },
    {
      "inputs": [],
      "name": "principle",
      "outputs": [
        {
          "internalType": "address",
          "name": "",
          "type": "address"
        }
      ],
      "stateMutability": "view",
      "type": "function"
    },
    {
      "inputs": [],
      "name": "pullPolicy",
      "outputs": [],
      "stateMutability": "nonpayable",
      "type": "function"
    },
    {
      "inputs": [
        {
          "internalType": "address",
          "name": "newOwner_",
          "type": "address"
        }
      ],
      "name": "pushPolicy",
      "outputs": [],
      "stateMutability": "nonpayable",
      "type": "function"
    },
    {
      "inputs": [
        {
          "internalType": "address",
          "name": "_token",
          "type": "address"
        }
      ],
      "name": "recoverLostToken",
      "outputs": [
        {
          "internalType": "bool",
          "name": "",
          "type": "bool"
        }
      ],
      "stateMutability": "nonpayable",
      "type": "function"
    },
    {
      "inputs": [
        {
          "internalType": "address",
          "name": "_recipient",
          "type": "address"
        },
        {
          "internalType": "bool",
          "name": "_stake",
          "type": "bool"
        }
      ],
      "name": "redeem",
      "outputs": [
        {
          "internalType": "uint256",
          "name": "",
          "type": "uint256"
        }
      ],
      "stateMutability": "nonpayable",
      "type": "function"
    },
    {
      "inputs": [],
      "name": "renouncePolicy",
      "outputs": [],
      "stateMutability": "nonpayable",
      "type": "function"
    },
    {
      "inputs": [
        {
          "internalType": "bool",
          "name": "_addition",
          "type": "bool"
        },
        {
          "internalType": "uint256",
          "name": "_increment",
          "type": "uint256"
        },
        {
          "internalType": "uint256",
          "name": "_target",
          "type": "uint256"
        },
        {
          "internalType": "uint256",
          "name": "_buffer",
          "type": "uint256"
        }
      ],
      "name": "setAdjustment",
      "outputs": [],
      "stateMutability": "nonpayable",
      "type": "function"
    },
    {
      "inputs": [
        {
          "internalType": "enum ROMEMOVRBondDepository.PARAMETER",
          "name": "_parameter",
          "type": "uint8"
        },
        {
          "internalType": "uint256",
          "name": "_input",
          "type": "uint256"
        }
      ],
      "name": "setBondTerms",
      "outputs": [],
      "stateMutability": "nonpayable",
      "type": "function"
    },
    {
      "inputs": [
        {
          "internalType": "address",
          "name": "_staking",
          "type": "address"
        },
        {
          "internalType": "bool",
          "name": "_helper",
          "type": "bool"
        }
      ],
      "name": "setStaking",
      "outputs": [],
      "stateMutability": "nonpayable",
      "type": "function"
    },
    {
      "inputs": [],
      "name": "staking",
      "outputs": [
        {
          "internalType": "address",
          "name": "",
          "type": "address"
        }
      ],
      "stateMutability": "view",
      "type": "function"
    },
    {
      "inputs": [],
      "name": "stakingHelper",
      "outputs": [
        {
          "internalType": "address",
          "name": "",
          "type": "address"
        }
      ],
      "stateMutability": "view",
      "type": "function"
    },
    {
      "inputs": [],
      "name": "standardizedDebtRatio",
      "outputs": [
        {
          "internalType": "uint256",
          "name": "",
          "type": "uint256"
        }
      ],
      "stateMutability": "view",
      "type": "function"
    },
    {
      "inputs": [],
      "name": "terms",
      "outputs": [
        {
          "internalType": "uint256",
          "name": "controlVariable",
          "type": "uint256"
        },
        {
          "internalType": "uint256",
          "name": "vestingTerm",
          "type": "uint256"
        },
        {
          "internalType": "uint256",
          "name": "minimumPrice",
          "type": "uint256"
        },
        {
          "internalType": "uint256",
          "name": "maxPayout",
          "type": "uint256"
        },
        {
          "internalType": "uint256",
          "name": "maxDebt",
          "type": "uint256"
        }
      ],
      "stateMutability": "view",
      "type": "function"
    },
    {
      "inputs": [],
      "name": "totalDebt",
      "outputs": [
        {
          "internalType": "uint256",
          "name": "",
          "type": "uint256"
        }
      ],
      "stateMutability": "view",
      "type": "function"
    },
    {
      "inputs": [],
      "name": "treasury",
      "outputs": [
        {
          "internalType": "address",
          "name": "",
          "type": "address"
        }
      ],
      "stateMutability": "view",
      "type": "function"
    },
    {
      "inputs": [],
      "name": "useHelper",
      "outputs": [
        {
          "internalType": "bool",
          "name": "",
          "type": "bool"
        }
      ],
      "stateMutability": "view",
      "type": "function"
    }
  ],
  "transactionHash": "0x6297fef381fe09597e2b8be3906aca8d61b718614ab83f07cee6c79e24f6ce32",
  "args": [
    "0x4a436073552044D5f2f49B176853ad3Ad473d9d6",
    "0x0ceE045861051f8f5FD4e62622F87556c8e555B6",
    "0xfbAD41e4Dd040BC80c89FcC6E90d152A746139aF",
    "0xD4a7FEbD52efda82d6f8acE24908aE0aa5b4f956",
    "0x3b5bbC9d8243C6661CcadAdE17B68344770c20FD",
    "0x3f8BFbDc1e79777511c00Ad8591cef888C2113C1"
  ],
  "solcInputHash": "358b049dbf9378aea8fdf43a91e3d91e",
  "bytecode": "0x6101206040523480156200001257600080fd5b5060405162002d3938038062002d39833981810160405260c08110156200003857600080fd5b50805160208201516040808401516060850151608086015160a090960151600080546001600160a01b031916331780825594519697959693959294929391926001600160a01b0316917fea8258f2d9ddb679928cf34b78cf645b7feda9acc828e4dd82d014eaae270eba908290a36001600160a01b038616620000ba57600080fd5b6001600160601b0319606087901b166080526001600160a01b038516620000e057600080fd5b6001600160601b0319606086901b1660a0526001600160a01b0384166200010657600080fd5b6001600160601b0319606085901b1660c0526001600160a01b0383166200012c57600080fd5b606083811b6001600160601b031990811660e05283821b1661010052600280546001600160a01b0319166001600160a01b0393841617905560805160a05160c05191831c9850821c9650901c93509182169116612b2b6200020e60003980610dda5280610e4652806113d6528061142a52806118415250806114eb528061178e525080610c69528061102b52806111dd52806112425250806105bd5280610e75528061105a52806111ba5280611459528061174c52508061150f528061170d52806118b05280611b615280611d045280611e155280611f595250612b2b6000f3fe608060405234801561001057600080fd5b50600436106102415760003560e01c80638dbdbe6d11610145578063cea55f57116100bd578063d7ccfb0b1161008c578063e392a26211610071578063e392a262146105a3578063f5c2ab5b146105ab578063fc7b9c18146105b357610241565b8063d7ccfb0b14610593578063e0176de81461059b57610241565b8063cea55f5714610522578063d24378eb1461052a578063d4d863ce14610532578063d50256251461056057610241565b8063a15ad07711610114578063b4abccba116100f9578063b4abccba146104a8578063c5332b7c146104ce578063cd1234b3146104d657610241565b8063a15ad0771461047a578063a4b23980146104a057610241565b80638dbdbe6d14610430578063904b3ece1461046257806398fabd3a1461046a5780639d95fbd21461047257610241565b80634cf088d9116101d8578063759076e5116101a75780637927ebf81161018c5780637927ebf8146103d05780637b261727146103ed578063844b5c7c1461042857610241565b8063759076e5146103c057806377b81895146103c857610241565b80634cf088d914610382578063507930ec1461038a5780635beede08146103b057806361d027b3146103b857610241565b80631e321a0f116102145780631e321a0f146102dd5780631feed31f146103035780632f3f470a14610331578063451ee4a11461034d57610241565b8063016a42841461024657806301b88ee81461026a5780630505c8c9146102a25780631a3d0068146102aa575b600080fd5b61024e6105bb565b604080516001600160a01b039092168252519081900360200190f35b6102906004803603602081101561028057600080fd5b50356001600160a01b03166105df565b60408051918252519081900360200190f35b61024e610638565b6102db600480360360808110156102c057600080fd5b50803515159060208101359060408101359060600135610648565b005b6102db600480360360408110156102f357600080fd5b5060ff8135169060200135610785565b6102906004803603604081101561031957600080fd5b506001600160a01b03813516906020013515156108d6565b610339610acb565b604080519115158252519081900360200190f35b610355610aec565b60408051951515865260208601949094528484019290925260608401526080830152519081900360a00190f35b61024e610b04565b610290600480360360208110156103a057600080fd5b50356001600160a01b0316610b13565b6102db610ba5565b61024e610c67565b610290610c8b565b61024e610ca6565b610290600480360360208110156103e657600080fd5b5035610cb5565b6102db600480360360c081101561040357600080fd5b5080359060208101359060408101359060608101359060808101359060a00135610cda565b610290610dd6565b6102906004803603606081101561044657600080fd5b50803590602081013590604001356001600160a01b0316610f05565b6102906113d2565b61024e6114e9565b61024e61150d565b6102db6004803603602081101561049057600080fd5b50356001600160a01b0316611531565b6102db611648565b610339600480360360208110156104be57600080fd5b50356001600160a01b0316611709565b61024e61183f565b6104fc600480360360208110156104ec57600080fd5b50356001600160a01b0316611863565b604080519485526020850193909352838301919091526060830152519081900360800190f35b61029061188a565b610290611938565b6102db6004803603604081101561054857600080fd5b506001600160a01b03813516906020013515156119be565b610568611b0a565b6040805195865260208601949094528484019290925260608401526080830152519081900360a00190f35b610290611b1c565b610290611b4d565b610290611bea565b610290611c2f565b610290611c35565b7f000000000000000000000000000000000000000000000000000000000000000081565b6000806105eb83610b13565b6001600160a01b0384166000908152600f6020526040902054909150612710821061061857809250610631565b61062e6127106106288385611c3b565b90611c94565b92505b5050919050565b6000546001600160a01b03165b90565b6000546001600160a01b031633146106a7576040805162461bcd60e51b815260206004820181905260248201527f4f776e61626c653a2063616c6c6572206973206e6f7420746865206f776e6572604482015290519081900360640190fd5b6005546106bd906103e890610628906019611c3b565b831115806106cb5750826001145b61071c576040805162461bcd60e51b815260206004820152601360248201527f496e6372656d656e7420746f6f206c6172676500000000000000000000000000604482015290519081900360640190fd5b6040805160a0810182529415158086526020860185905290850183905260608501829052436080909501859052600a80547fffffffffffffffffffffffffffffffffffffffffffffffffffffffffffffff00169091179055600b92909255600c55600d55600e55565b6000546001600160a01b031633146107e4576040805162461bcd60e51b815260206004820181905260248201527f4f776e61626c653a2063616c6c6572206973206e6f7420746865206f776e6572604482015290519081900360640190fd5b60008260028111156107f257fe5b1415610843576127108110156108395760405162461bcd60e51b8152600401808060200182810382526024815260200180612aa86024913960400191505060405180910390fd5b60068190556108d2565b600182600281111561085157fe5b14156108b8576103e88111156108ae576040805162461bcd60e51b815260206004820181905260248201527f5061796f75742063616e6e6f742062652061626f766520312070657263656e74604482015290519081900360640190fd5b60088190556108d2565b60028260028111156108c657fe5b14156108d25760098190555b5050565b60006108e0612995565b506001600160a01b0383166000908152600f602090815260408083208151608081018352815481526001820154938101939093526002810154918301919091526003015460608201529061093385610b13565b905061271081106109c3576001600160a01b0385166000818152600f602090815260408083208381556001810184905560028101849055600301839055855181519081529182019290925281517f51c99f515c87b0d95ba97f616edd182e8f161c4932eac17c6fefe9dab58b77b1929181900390910190a26109ba85858460000151611cfb565b92505050610ac5565b81516000906109da90612710906106289085611c3b565b905060405180608001604052806109fe83866000015161207390919063ffffffff16565b8152602001610a28610a1d86604001514361207390919063ffffffff16565b602087015190612073565b8152436020808301919091526060808701516040938401526001600160a01b038a166000818152600f84528490208551808255868501516001830155868601516002830155959092015160039092019190915582518581529182019390935281517f51c99f515c87b0d95ba97f616edd182e8f161c4932eac17c6fefe9dab58b77b1929181900390910190a2610abf868683611cfb565b93505050505b92915050565b60045474010000000000000000000000000000000000000000900460ff1681565b600a54600b54600c54600d54600e5460ff9094169385565b6003546001600160a01b031681565b6000610b1d612995565b506001600160a01b0382166000908152600f602090815260408083208151608081018352815481526001820154938101939093526002810154918301829052600301546060830152909190610b73904390612073565b60208301519091508015610b9857610b918161062884612710611c3b565b9350610b9d565b600093505b505050919050565b6001546001600160a01b03163314610bee5760405162461bcd60e51b81526004018080602001828103825260228152602001806129f66022913960400191505060405180910390fd5b600154600080546040516001600160a01b0393841693909116917faa151555690c956fc3ea32f106bb9f119b5237a061eaa8557cff3e51e3792c8d91a3600154600080547fffffffffffffffffffffffff0000000000000000000000000000000000000000166001600160a01b03909216919091179055565b7f000000000000000000000000000000000000000000000000000000000000000081565b6000610ca1610c98611bea565b60105490612073565b905090565b6004546001600160a01b031681565b6000610ac5655af3107a4000610628610cd585610cd0611b1c565b6120d0565b612291565b6000546001600160a01b03163314610d39576040805162461bcd60e51b815260206004820181905260248201527f4f776e61626c653a2063616c6c6572206973206e6f7420746865206f776e6572604482015290519081900360640190fd5b60055415610d8e576040805162461bcd60e51b815260206004820181905260248201527f426f6e6473206d75737420626520696e697469616c697a65642066726f6d2030604482015290519081900360640190fd5b6040805160a081018252878152602081018790529081018590526060810184905260800182905260059590955560069390935560079190915560085560095560105543601155565b60007f00000000000000000000000000000000000000000000000000000000000000006001600160a01b0316610e2d57610e26620f4240610e20610e18611938565b610e20611b1c565b90611c3b565b9050610645565b610ca164e8d4a51000610628610e41611938565b610e207f00000000000000000000000000000000000000000000000000000000000000006001600160a01b03166332da80a37f00000000000000000000000000000000000000000000000000000000000000006040518263ffffffff1660e01b815260040180826001600160a01b0316815260200191505060206040518083038186803b158015610ed157600080fd5b505afa158015610ee5573d6000803e3d6000fd5b505050506040513d6020811015610efb57600080fd5b5051610e20611b1c565b60006001600160a01b038216610f62576040805162461bcd60e51b815260206004820152600f60248201527f496e76616c696420616464726573730000000000000000000000000000000000604482015290519081900360640190fd5b610f6a6122be565b60095460105411801590610f7f575060095415155b610fd0576040805162461bcd60e51b815260206004820152601460248201527f4d61782063617061636974792072656163686564000000000000000000000000604482015290519081900360640190fd5b6000610fda610dd6565b90506000610fe66122d2565b9050808510156110275760405162461bcd60e51b8152600401808060200182810382526023815260200180612a856023913960400191505060405180910390fd5b60007f00000000000000000000000000000000000000000000000000000000000000006001600160a01b0316631eec5a9a7f0000000000000000000000000000000000000000000000000000000000000000896040518363ffffffff1660e01b815260040180836001600160a01b031681526020018281526020019250505060206040518083038186803b1580156110be57600080fd5b505afa1580156110d2573d6000803e3d6000fd5b505050506040513d60208110156110e857600080fd5b5051905060006110f782610cb5565b905062989680811015611151576040805162461bcd60e51b815260206004820152600e60248201527f426f6e6420746f6f20736d616c6c000000000000000000000000000000000000604482015290519081900360640190fd5b611159611b4d565b8111156111ad576040805162461bcd60e51b815260206004820152600e60248201527f426f6e6420746f6f206c61726765000000000000000000000000000000000000604482015290519081900360640190fd5b6112026001600160a01b037f000000000000000000000000000000000000000000000000000000000000000016337f00000000000000000000000000000000000000000000000000000000000000008b61230c565b604080517f6a20de920000000000000000000000000000000000000000000000000000000081523060048201526024810183905290516001600160a01b037f00000000000000000000000000000000000000000000000000000000000000001691636a20de9291604480830192600092919082900301818387803b15801561128957600080fd5b505af115801561129d573d6000803e3d6000fd5b50506010546112af925090508361239a565b601055604080516080810182526001600160a01b0388166000908152600f602052919091205481906112e1908461239a565b81526006805460208084019190915243604080850182905260609485018a90526001600160a01b038c166000908152600f845281902086518155928601516001840155850151600283015593909201516003909201919091555485916113469161239a565b604080518b8152905184917f1fec6dc81f140574bf43f6b1e420ae1dd47928b9d57db8cbd7b8611063b85ae5919081900360200190a461138461188a565b61138c6122d2565b611394610dd6565b6040517f375b221f40939bfd8f49723a17cf7bc6d576ebf72efe2cc3e991826f5b3f390a90600090a46113c56123f4565b93505050505b9392505050565b60007f00000000000000000000000000000000000000000000000000000000000000006001600160a01b031661141d57610e266305f5e100610628611415611938565b610e2061188a565b610e26633b9aca006106287f00000000000000000000000000000000000000000000000000000000000000006001600160a01b03166332da80a37f00000000000000000000000000000000000000000000000000000000000000006040518263ffffffff1660e01b815260040180826001600160a01b0316815260200191505060206040518083038186803b1580156114b557600080fd5b505afa1580156114c9573d6000803e3d6000fd5b505050506040513d60208110156114df57600080fd5b5051610e2061188a565b7f000000000000000000000000000000000000000000000000000000000000000081565b7f000000000000000000000000000000000000000000000000000000000000000081565b6000546001600160a01b03163314611590576040805162461bcd60e51b815260206004820181905260248201527f4f776e61626c653a2063616c6c6572206973206e6f7420746865206f776e6572604482015290519081900360640190fd5b6001600160a01b0381166115d55760405162461bcd60e51b81526004018080602001828103825260268152602001806129d06026913960400191505060405180910390fd5b600080546040516001600160a01b03808516939216917fea8258f2d9ddb679928cf34b78cf645b7feda9acc828e4dd82d014eaae270eba91a3600180547fffffffffffffffffffffffff0000000000000000000000000000000000000000166001600160a01b0392909216919091179055565b6000546001600160a01b031633146116a7576040805162461bcd60e51b815260206004820181905260248201527f4f776e61626c653a2063616c6c6572206973206e6f7420746865206f776e6572604482015290519081900360640190fd5b600080546040516001600160a01b03909116907fea8258f2d9ddb679928cf34b78cf645b7feda9acc828e4dd82d014eaae270eba908390a3600080547fffffffffffffffffffffffff0000000000000000000000000000000000000000169055565b60007f00000000000000000000000000000000000000000000000000000000000000006001600160a01b0316826001600160a01b0316141561174a57600080fd5b7f00000000000000000000000000000000000000000000000000000000000000006001600160a01b0316826001600160a01b0316141561178957600080fd5b6118377f0000000000000000000000000000000000000000000000000000000000000000836001600160a01b03166370a08231306040518263ffffffff1660e01b815260040180826001600160a01b0316815260200191505060206040518083038186803b1580156117fa57600080fd5b505afa15801561180e573d6000803e3d6000fd5b505050506040513d602081101561182457600080fd5b50516001600160a01b03851691906124d4565b506001919050565b7f000000000000000000000000000000000000000000000000000000000000000081565b600f6020526000908152604090208054600182015460028301546003909301549192909184565b6000610ca1670de0b6b3a7640000610628610cd56118ae633b9aca00610e20610c8b565b7f00000000000000000000000000000000000000000000000000000000000000006001600160a01b03166318160ddd6040518163ffffffff1660e01b815260040160206040518083038186803b15801561190757600080fd5b505afa15801561191b573d6000803e3d6000fd5b505050506040513d602081101561193157600080fd5b50516120d0565b600080600260009054906101000a90046001600160a01b03166001600160a01b031663feaf968c6040518163ffffffff1660e01b815260040160a06040518083038186803b15801561198957600080fd5b505afa15801561199d573d6000803e3d6000fd5b505050506040513d60a08110156119b357600080fd5b506020015191505090565b6000546001600160a01b03163314611a1d576040805162461bcd60e51b815260206004820181905260248201527f4f776e61626c653a2063616c6c6572206973206e6f7420746865206f776e6572604482015290519081900360640190fd5b6001600160a01b038216611a3057600080fd5b8015611aa95760048054740100000000000000000000000000000000000000007fffffffffffffffffffffff00ffffffffffffffffffffffffffffffffffffffff909116177fffffffffffffffffffffffff0000000000000000000000000000000000000000166001600160a01b0384161790556108d2565b600480547fffffffffffffffffffffff00ffffffffffffffffffffffffffffffffffffffff169055600380546001600160a01b0384167fffffffffffffffffffffffff00000000000000000000000000000000000000009091161790555050565b60055460065460075460085460095485565b6000611b39620186a0610628611b3061188a565b60055490611c3b565b600754909150811015610645575060075490565b6000610ca1620186a06106286005600301547f00000000000000000000000000000000000000000000000000000000000000006001600160a01b03166318160ddd6040518163ffffffff1660e01b815260040160206040518083038186803b158015611bb857600080fd5b505afa158015611bcc573d6000803e3d6000fd5b505050506040513d6020811015611be257600080fd5b505190611c3b565b600080611c026011544361207390919063ffffffff16565b600654601054919250611c19916106289084611c3b565b9150601054821115611c2b5760105491505b5090565b60115481565b60105481565b600082611c4a57506000610ac5565b82820282848281611c5757fe5b04146113cb5760405162461bcd60e51b8152600401808060200182810382526021815260200180612a646021913960400191505060405180910390fd5b6000808211611cea576040805162461bcd60e51b815260206004820152601a60248201527f536166654d6174683a206469766973696f6e206279207a65726f000000000000604482015290519081900360640190fd5b818381611cf357fe5b049392505050565b600082611dab577f00000000000000000000000000000000000000000000000000000000000000006001600160a01b031663a9059cbb85846040518363ffffffff1660e01b815260040180836001600160a01b0316815260200182815260200192505050602060405180830381600087803b158015611d7957600080fd5b505af1158015611d8d573d6000803e3d6000fd5b505050506040513d6020811015611da357600080fd5b5061206c9050565b60045474010000000000000000000000000000000000000000900460ff1615611f145760048054604080517f095ea7b30000000000000000000000000000000000000000000000000000000081526001600160a01b039283169381019390935260248301859052517f00000000000000000000000000000000000000000000000000000000000000009091169163095ea7b39160448083019260209291908290030181600087803b158015611e5f57600080fd5b505af1158015611e73573d6000803e3d6000fd5b505050506040513d6020811015611e8957600080fd5b505060048054604080517f7acb77570000000000000000000000000000000000000000000000000000000081529283018590526001600160a01b0387811660248501529051911691637acb775791604480830192600092919082900301818387803b158015611ef757600080fd5b505af1158015611f0b573d6000803e3d6000fd5b5050505061206c565b600354604080517f095ea7b30000000000000000000000000000000000000000000000000000000081526001600160a01b0392831660048201526024810185905290517f00000000000000000000000000000000000000000000000000000000000000009092169163095ea7b3916044808201926020929091908290030181600087803b158015611fa457600080fd5b505af1158015611fb8573d6000803e3d6000fd5b505050506040513d6020811015611fce57600080fd5b5050600354604080517f7acb7757000000000000000000000000000000000000000000000000000000008152600481018590526001600160a01b03878116602483015291519190921691637acb77579160448083019260209291908290030181600087803b15801561203f57600080fd5b505af1158015612053573d6000803e3d6000fd5b505050506040513d602081101561206957600080fd5b50505b5092915050565b6000828211156120ca576040805162461bcd60e51b815260206004820152601e60248201527f536166654d6174683a207375627472616374696f6e206f766572666c6f770000604482015290519081900360640190fd5b50900390565b6120d86129bd565b600082116121175760405162461bcd60e51b8152600401808060200182810382526026815260200180612a3e6026913960400191505060405180910390fd5b826121315750604080516020810190915260008152610ac5565b71ffffffffffffffffffffffffffffffffffff831161220257600082607085901b8161215957fe5b0490507bffffffffffffffffffffffffffffffffffffffffffffffffffffffff8111156121cd576040805162461bcd60e51b815260206004820152601e60248201527f4669786564506f696e743a3a6672616374696f6e3a206f766572666c6f770000604482015290519081900360640190fd5b6040518060200160405280827bffffffffffffffffffffffffffffffffffffffffffffffffffffffff16815250915050610ac5565b600061221e846e01000000000000000000000000000085612559565b90507bffffffffffffffffffffffffffffffffffffffffffffffffffffffff8111156121cd576040805162461bcd60e51b815260206004820152601e60248201527f4669786564506f696e743a3a6672616374696f6e3a206f766572666c6f770000604482015290519081900360640190fd5b516612725dd1d243ab7bffffffffffffffffffffffffffffffffffffffffffffffffffffffff9091160490565b6122c9610c98611bea565b60105543601155565b60006122e6620186a0610628611b3061188a565b6007549091508110156122fc5750600754610645565b6007541561064557600060075590565b604080516001600160a01b0380861660248301528416604482015260648082018490528251808303909101815260849091019091526020810180517bffffffffffffffffffffffffffffffffffffffffffffffffffffffff167f23b872dd000000000000000000000000000000000000000000000000000000001790526123949085906125ee565b50505050565b6000828201838110156113cb576040805162461bcd60e51b815260206004820152601b60248201527f536166654d6174683a206164646974696f6e206f766572666c6f770000000000604482015290519081900360640190fd5b600d54600e54600091612407919061239a565b600b549091501580159061241b5750804310155b156124d157600554600a5460ff161561245557600b5460055461243d9161239a565b6005819055600c5411612450576000600b555b612477565b600b5460055461246491612073565b6005819055600c5410612477576000600b555b43600e55600554600b54600a546040805185815260208101949094528381019290925260ff1615156060830152517fb923e581a0f83128e9e1d8297aa52b18d6744310476e0b54509c054cd7a93b2a9181900360800190a1505b50565b604080516001600160a01b038416602482015260448082018490528251808303909101815260649091019091526020810180517bffffffffffffffffffffffffffffffffffffffffffffffffffffffff167fa9059cbb000000000000000000000000000000000000000000000000000000001790526125549084906125ee565b505050565b6000806000612568868661269f565b915091506000848061257657fe5b86880990508281111561258a576001820391505b80830392508482106125e3576040805162461bcd60e51b815260206004820152601a60248201527f46756c6c4d6174683a3a6d756c4469763a206f766572666c6f77000000000000604482015290519081900360640190fd5b6113c58383876126ea565b6060612643826040518060400160405280602081526020017f5361666545524332303a206c6f772d6c6576656c2063616c6c206661696c6564815250856001600160a01b031661275a9092919063ffffffff16565b8051909150156125545780806020019051602081101561266257600080fd5b50516125545760405162461bcd60e51b815260040180806020018281038252602a815260200180612acc602a913960400191505060405180910390fd5b600080807fffffffffffffffffffffffffffffffffffffffffffffffffffffffffffffffff848609905083850292508281039150828110156126e2576001820391505b509250929050565b600081810382168083816126fa57fe5b04925080858161270657fe5b04945080816000038161271557fe5b60028581038087028203028087028203028087028203028087028203028087028203028087028203029586029003909402930460010193909302939093010292915050565b60606127698484600085612771565b949350505050565b6060824710156127b25760405162461bcd60e51b8152600401808060200182810382526026815260200180612a186026913960400191505060405180910390fd5b6127bb856128eb565b61280c576040805162461bcd60e51b815260206004820152601d60248201527f416464726573733a2063616c6c20746f206e6f6e2d636f6e7472616374000000604482015290519081900360640190fd5b60006060866001600160a01b031685876040518082805190602001908083835b6020831061286957805182527fffffffffffffffffffffffffffffffffffffffffffffffffffffffffffffffe0909201916020918201910161282c565b6001836020036101000a03801982511681845116808217855250505050505090500191505060006040518083038185875af1925050503d80600081146128cb576040519150601f19603f3d011682016040523d82523d6000602084013e6128d0565b606091505b50915091506128e08282866128f1565b979650505050505050565b3b151590565b606083156129005750816113cb565b8251156129105782518084602001fd5b8160405162461bcd60e51b81526004018080602001828103825283818151815260200191508051906020019080838360005b8381101561295a578181015183820152602001612942565b50505050905090810190601f1680156129875780820380516001836020036101000a031916815260200191505b509250505060405180910390fd5b6040518060800160405280600081526020016000815260200160008152602001600081525090565b6040805160208101909152600081529056fe4f776e61626c653a206e6577206f776e657220697320746865207a65726f20616464726573734f776e61626c653a206d757374206265206e6577206f776e657220746f2070756c6c416464726573733a20696e73756666696369656e742062616c616e636520666f722063616c6c4669786564506f696e743a3a6672616374696f6e3a206469766973696f6e206279207a65726f536166654d6174683a206d756c7469706c69636174696f6e206f766572666c6f77536c697070616765206c696d69743a206d6f7265207468616e206d617820707269636556657374696e67206d757374206265206c6f6e676572207468616e20333620686f7572735361666545524332303a204552433230206f7065726174696f6e20646964206e6f742073756363656564a264697066735822122047a8a06e23577b8cf69f10015f5955f54efd0fae469b97e12cbce95dd53e7cf064736f6c63430007050033",
  "devdoc": {
    "kind": "dev",
    "methods": {
      "bondPrice()": {
        "returns": {
          "price_": "uint"
        }
      },
      "bondPriceInUSD()": {
        "returns": {
          "price_": "uint"
        }
      },
      "currentDebt()": {
        "returns": {
          "_0": "uint"
        }
      },
      "debtDecay()": {
        "returns": {
          "decay_": "uint"
        }
      },
      "debtRatio()": {
        "returns": {
          "debtRatio_": "uint"
        }
      },
      "deposit(uint256,uint256,address)": {
        "params": {
          "_amount": "uint",
          "_depositor": "address",
          "_maxPrice": "uint"
        },
        "returns": {
          "_0": "uint"
        }
      },
      "initializeBondTerms(uint256,uint256,uint256,uint256,uint256,uint256)": {
        "params": {
          "_controlVariable": "uint",
          "_initialDebt": "uint",
          "_maxDebt": "uint",
          "_maxPayout": "uint",
          "_minimumPrice": "uint",
          "_vestingTerm": "uint"
        }
      },
      "maxPayout()": {
        "returns": {
          "_0": "uint"
        }
      },
      "payoutFor(uint256)": {
        "params": {
          "_value": "uint"
        },
        "returns": {
          "_0": "uint"
        }
      },
      "pendingPayoutFor(address)": {
        "params": {
          "_depositor": "address"
        },
        "returns": {
          "pendingPayout_": "uint"
        }
      },
      "percentVestedFor(address)": {
        "params": {
          "_depositor": "address"
        },
        "returns": {
          "percentVested_": "uint"
        }
      },
      "recoverLostToken(address)": {
        "returns": {
          "_0": "bool"
        }
      },
      "redeem(address,bool)": {
        "params": {
          "_recipient": "address",
          "_stake": "bool"
        },
        "returns": {
          "_0": "uint"
        }
      },
      "setAdjustment(bool,uint256,uint256,uint256)": {
        "params": {
          "_addition": "bool",
          "_buffer": "uint",
          "_increment": "uint",
          "_target": "uint"
        }
      },
      "setBondTerms(uint8,uint256)": {
        "params": {
          "_input": "uint",
          "_parameter": "PARAMETER"
        }
      },
      "setStaking(address,bool)": {
        "params": {
          "_helper": "bool",
          "_staking": "address"
        }
      },
      "standardizedDebtRatio()": {
        "returns": {
          "_0": "uint"
        }
      }
    },
    "version": 1
  },
  "userdoc": {
    "kind": "user",
    "methods": {
      "assetPrice()": {
        "notice": "get asset price from chainlink"
      },
      "bondPrice()": {
        "notice": "calculate current bond premium"
      },
      "bondPriceInUSD()": {
        "notice": "converts bond price to DAI value"
      },
      "currentDebt()": {
        "notice": "calculate debt factoring in decay"
      },
      "debtDecay()": {
        "notice": "amount to decay total debt by"
      },
      "debtRatio()": {
        "notice": "calculate current ratio of debt to ROME supply"
      },
      "deposit(uint256,uint256,address)": {
        "notice": "deposit bond"
      },
      "initializeBondTerms(uint256,uint256,uint256,uint256,uint256,uint256)": {
        "notice": "initializes bond parameters"
      },
      "maxPayout()": {
        "notice": "determine maximum bond size"
      },
      "payoutFor(uint256)": {
        "notice": "calculate interest due for new bond"
      },
      "pendingPayoutFor(address)": {
        "notice": "calculate amount of ROME available for claim by depositor"
      },
      "percentVestedFor(address)": {
        "notice": "calculate how far into vesting a depositor is"
      },
      "recoverLostToken(address)": {
        "notice": "allow anyone to send lost tokens (excluding principle or ROME) to the DAO"
      },
      "redeem(address,bool)": {
        "notice": "redeem bond for user"
      },
      "setAdjustment(bool,uint256,uint256,uint256)": {
        "notice": "set control variable adjustment"
      },
      "setBondTerms(uint8,uint256)": {
        "notice": "set parameters for new bonds"
      },
      "setStaking(address,bool)": {
        "notice": "set contract for auto stake"
      },
      "standardizedDebtRatio()": {
        "notice": "debt ratio in same terms as reserve bonds"
      }
    },
    "version": 1
  },
  "storageLayout": {
    "storage": [
      {
        "astId": 15522,
        "contract": "src/Protocol/Bonds/ROMEMOVRBondDepository.sol:ROMEMOVRBondDepository",
        "label": "_owner",
        "offset": 0,
        "slot": "0",
        "type": "t_address"
      },
      {
        "astId": 15524,
        "contract": "src/Protocol/Bonds/ROMEMOVRBondDepository.sol:ROMEMOVRBondDepository",
        "label": "_newOwner",
        "offset": 0,
        "slot": "1",
        "type": "t_address"
      },
      {
        "astId": 7033,
        "contract": "src/Protocol/Bonds/ROMEMOVRBondDepository.sol:ROMEMOVRBondDepository",
        "label": "priceFeed",
        "offset": 0,
        "slot": "2",
        "type": "t_contract(AggregatorV3Interface)6912"
      },
      {
        "astId": 7035,
        "contract": "src/Protocol/Bonds/ROMEMOVRBondDepository.sol:ROMEMOVRBondDepository",
        "label": "staking",
        "offset": 0,
        "slot": "3",
        "type": "t_address"
      },
      {
        "astId": 7037,
        "contract": "src/Protocol/Bonds/ROMEMOVRBondDepository.sol:ROMEMOVRBondDepository",
        "label": "stakingHelper",
        "offset": 0,
        "slot": "4",
        "type": "t_address"
      },
      {
        "astId": 7039,
        "contract": "src/Protocol/Bonds/ROMEMOVRBondDepository.sol:ROMEMOVRBondDepository",
        "label": "useHelper",
        "offset": 20,
        "slot": "4",
        "type": "t_bool"
      },
      {
        "astId": 7041,
        "contract": "src/Protocol/Bonds/ROMEMOVRBondDepository.sol:ROMEMOVRBondDepository",
        "label": "terms",
        "offset": 0,
        "slot": "5",
        "type": "t_struct(Terms)7062_storage"
      },
      {
        "astId": 7043,
        "contract": "src/Protocol/Bonds/ROMEMOVRBondDepository.sol:ROMEMOVRBondDepository",
        "label": "adjustment",
        "offset": 0,
        "slot": "10",
        "type": "t_struct(Adjust)7082_storage"
      },
      {
        "astId": 7047,
        "contract": "src/Protocol/Bonds/ROMEMOVRBondDepository.sol:ROMEMOVRBondDepository",
        "label": "bondInfo",
        "offset": 0,
        "slot": "15",
        "type": "t_mapping(t_address,t_struct(Bond)7071_storage)"
      },
      {
        "astId": 7049,
        "contract": "src/Protocol/Bonds/ROMEMOVRBondDepository.sol:ROMEMOVRBondDepository",
        "label": "totalDebt",
        "offset": 0,
        "slot": "16",
        "type": "t_uint256"
      },
      {
        "astId": 7051,
        "contract": "src/Protocol/Bonds/ROMEMOVRBondDepository.sol:ROMEMOVRBondDepository",
        "label": "lastDecay",
        "offset": 0,
        "slot": "17",
        "type": "t_uint256"
      }
    ],
    "types": {
      "t_address": {
        "encoding": "inplace",
        "label": "address",
        "numberOfBytes": "20"
      },
      "t_bool": {
        "encoding": "inplace",
        "label": "bool",
        "numberOfBytes": "1"
      },
      "t_contract(AggregatorV3Interface)6912": {
        "encoding": "inplace",
        "label": "contract AggregatorV3Interface",
        "numberOfBytes": "20"
      },
      "t_mapping(t_address,t_struct(Bond)7071_storage)": {
        "encoding": "mapping",
        "key": "t_address",
        "label": "mapping(address => struct ROMEMOVRBondDepository.Bond)",
        "numberOfBytes": "32",
        "value": "t_struct(Bond)7071_storage"
      },
      "t_struct(Adjust)7082_storage": {
        "encoding": "inplace",
        "label": "struct ROMEMOVRBondDepository.Adjust",
        "members": [
          {
            "astId": 7073,
            "contract": "src/Protocol/Bonds/ROMEMOVRBondDepository.sol:ROMEMOVRBondDepository",
            "label": "add",
            "offset": 0,
            "slot": "0",
            "type": "t_bool"
          },
          {
            "astId": 7075,
            "contract": "src/Protocol/Bonds/ROMEMOVRBondDepository.sol:ROMEMOVRBondDepository",
            "label": "rate",
            "offset": 0,
            "slot": "1",
            "type": "t_uint256"
          },
          {
            "astId": 7077,
            "contract": "src/Protocol/Bonds/ROMEMOVRBondDepository.sol:ROMEMOVRBondDepository",
            "label": "target",
            "offset": 0,
            "slot": "2",
            "type": "t_uint256"
          },
          {
            "astId": 7079,
            "contract": "src/Protocol/Bonds/ROMEMOVRBondDepository.sol:ROMEMOVRBondDepository",
            "label": "buffer",
            "offset": 0,
            "slot": "3",
            "type": "t_uint256"
          },
          {
            "astId": 7081,
            "contract": "src/Protocol/Bonds/ROMEMOVRBondDepository.sol:ROMEMOVRBondDepository",
            "label": "lastBlock",
            "offset": 0,
            "slot": "4",
            "type": "t_uint256"
          }
        ],
        "numberOfBytes": "160"
      },
      "t_struct(Bond)7071_storage": {
        "encoding": "inplace",
        "label": "struct ROMEMOVRBondDepository.Bond",
        "members": [
          {
            "astId": 7064,
            "contract": "src/Protocol/Bonds/ROMEMOVRBondDepository.sol:ROMEMOVRBondDepository",
            "label": "payout",
            "offset": 0,
            "slot": "0",
            "type": "t_uint256"
          },
          {
            "astId": 7066,
            "contract": "src/Protocol/Bonds/ROMEMOVRBondDepository.sol:ROMEMOVRBondDepository",
            "label": "vesting",
            "offset": 0,
            "slot": "1",
            "type": "t_uint256"
          },
          {
            "astId": 7068,
            "contract": "src/Protocol/Bonds/ROMEMOVRBondDepository.sol:ROMEMOVRBondDepository",
            "label": "lastBlock",
            "offset": 0,
            "slot": "2",
            "type": "t_uint256"
          },
          {
            "astId": 7070,
            "contract": "src/Protocol/Bonds/ROMEMOVRBondDepository.sol:ROMEMOVRBondDepository",
            "label": "pricePaid",
            "offset": 0,
            "slot": "3",
            "type": "t_uint256"
          }
        ],
        "numberOfBytes": "128"
      },
      "t_struct(Terms)7062_storage": {
        "encoding": "inplace",
        "label": "struct ROMEMOVRBondDepository.Terms",
        "members": [
          {
            "astId": 7053,
            "contract": "src/Protocol/Bonds/ROMEMOVRBondDepository.sol:ROMEMOVRBondDepository",
            "label": "controlVariable",
            "offset": 0,
            "slot": "0",
            "type": "t_uint256"
          },
          {
            "astId": 7055,
            "contract": "src/Protocol/Bonds/ROMEMOVRBondDepository.sol:ROMEMOVRBondDepository",
            "label": "vestingTerm",
            "offset": 0,
            "slot": "1",
            "type": "t_uint256"
          },
          {
            "astId": 7057,
            "contract": "src/Protocol/Bonds/ROMEMOVRBondDepository.sol:ROMEMOVRBondDepository",
            "label": "minimumPrice",
            "offset": 0,
            "slot": "2",
            "type": "t_uint256"
          },
          {
            "astId": 7059,
            "contract": "src/Protocol/Bonds/ROMEMOVRBondDepository.sol:ROMEMOVRBondDepository",
            "label": "maxPayout",
            "offset": 0,
            "slot": "3",
            "type": "t_uint256"
          },
          {
            "astId": 7061,
            "contract": "src/Protocol/Bonds/ROMEMOVRBondDepository.sol:ROMEMOVRBondDepository",
            "label": "maxDebt",
            "offset": 0,
            "slot": "4",
            "type": "t_uint256"
          }
        ],
        "numberOfBytes": "160"
      },
      "t_uint256": {
        "encoding": "inplace",
        "label": "uint256",
        "numberOfBytes": "32"
      }
    }
  }
}