{
  "address": "0x63c1863C876011f5139BaC2d084089FB170F5F82",
  "abi": [
    {
      "inputs": [],
      "stateMutability": "nonpayable",
      "type": "constructor"
    },
    {
      "anonymous": false,
      "inputs": [
        {
          "indexed": true,
          "internalType": "address",
          "name": "src",
          "type": "address"
        },
        {
          "indexed": true,
          "internalType": "address",
          "name": "guy",
          "type": "address"
        },
        {
          "indexed": false,
          "internalType": "uint256",
          "name": "wad",
          "type": "uint256"
        }
      ],
      "name": "Approval",
      "type": "event"
    },
    {
      "anonymous": true,
      "inputs": [
        {
          "indexed": true,
          "internalType": "bytes4",
          "name": "sig",
          "type": "bytes4"
        },
        {
          "indexed": true,
          "internalType": "address",
          "name": "usr",
          "type": "address"
        },
        {
          "indexed": true,
          "internalType": "bytes32",
          "name": "arg1",
          "type": "bytes32"
        },
        {
          "indexed": true,
          "internalType": "bytes32",
          "name": "arg2",
          "type": "bytes32"
        },
        {
          "indexed": false,
          "internalType": "bytes",
          "name": "data",
          "type": "bytes"
        }
      ],
      "name": "LogNote",
      "type": "event"
    },
    {
      "anonymous": false,
      "inputs": [
        {
          "indexed": true,
          "internalType": "address",
          "name": "src",
          "type": "address"
        },
        {
          "indexed": true,
          "internalType": "address",
          "name": "dst",
          "type": "address"
        },
        {
          "indexed": false,
          "internalType": "uint256",
          "name": "wad",
          "type": "uint256"
        }
      ],
      "name": "Transfer",
      "type": "event"
    },
    {
      "inputs": [],
      "name": "DOMAIN_SEPARATOR",
      "outputs": [
        {
          "internalType": "bytes32",
          "name": "",
          "type": "bytes32"
        }
      ],
      "stateMutability": "view",
      "type": "function"
    },
    {
      "inputs": [
        {
          "internalType": "address",
          "name": "",
          "type": "address"
        }
      ],
      "name": "FRAXMintedToday",
      "outputs": [
        {
          "internalType": "uint256",
          "name": "",
          "type": "uint256"
        }
      ],
      "stateMutability": "view",
      "type": "function"
    },
    {
      "inputs": [],
      "name": "FRAXlyFRAXLimit",
      "outputs": [
        {
          "internalType": "uint256",
          "name": "",
          "type": "uint256"
        }
      ],
      "stateMutability": "view",
      "type": "function"
    },
    {
      "inputs": [],
      "name": "PERMIT_TYPEHASH",
      "outputs": [
        {
          "internalType": "bytes32",
          "name": "",
          "type": "bytes32"
        }
      ],
      "stateMutability": "view",
      "type": "function"
    },
    {
      "inputs": [
        {
          "internalType": "address",
          "name": "usr",
          "type": "address"
        }
      ],
      "name": "addAuth",
      "outputs": [],
      "stateMutability": "nonpayable",
      "type": "function"
    },
    {
      "inputs": [
        {
          "internalType": "uint256",
          "name": "_limit",
          "type": "uint256"
        }
      ],
      "name": "adjustFRAXlyFRAXLimit",
      "outputs": [],
      "stateMutability": "nonpayable",
      "type": "function"
    },
    {
      "inputs": [
        {
          "internalType": "address",
          "name": "account_",
          "type": "address"
        },
        {
          "internalType": "address",
          "name": "sender_",
          "type": "address"
        }
      ],
      "name": "allowance",
      "outputs": [
        {
          "internalType": "uint256",
          "name": "",
          "type": "uint256"
        }
      ],
      "stateMutability": "view",
      "type": "function"
    },
    {
      "inputs": [
        {
          "internalType": "address",
          "name": "usr_",
          "type": "address"
        },
        {
          "internalType": "uint256",
          "name": "wad_",
          "type": "uint256"
        }
      ],
      "name": "approve",
      "outputs": [
        {
          "internalType": "bool",
          "name": "",
          "type": "bool"
        }
      ],
      "stateMutability": "nonpayable",
      "type": "function"
    },
    {
      "inputs": [
        {
          "internalType": "address",
          "name": "",
          "type": "address"
        }
      ],
      "name": "balanceOf",
      "outputs": [
        {
          "internalType": "uint256",
          "name": "",
          "type": "uint256"
        }
      ],
      "stateMutability": "view",
      "type": "function"
    },
    {
      "inputs": [
        {
          "internalType": "address",
          "name": "usr",
          "type": "address"
        },
        {
          "internalType": "uint256",
          "name": "wad",
          "type": "uint256"
        }
      ],
      "name": "burn",
      "outputs": [],
      "stateMutability": "nonpayable",
      "type": "function"
    },
    {
      "inputs": [],
      "name": "decimals",
      "outputs": [
        {
          "internalType": "uint8",
          "name": "",
          "type": "uint8"
        }
      ],
      "stateMutability": "view",
      "type": "function"
    },
    {
      "inputs": [
        {
          "internalType": "address",
          "name": "guy",
          "type": "address"
        }
      ],
      "name": "deny",
      "outputs": [],
      "stateMutability": "nonpayable",
      "type": "function"
    },
    {
      "inputs": [
        {
          "internalType": "address",
          "name": "",
          "type": "address"
        }
      ],
      "name": "lastMintRestart",
      "outputs": [
        {
          "internalType": "uint256",
          "name": "",
          "type": "uint256"
        }
      ],
      "stateMutability": "view",
      "type": "function"
    },
    {
      "inputs": [
        {
          "internalType": "address",
          "name": "usr",
          "type": "address"
        },
        {
          "internalType": "uint256",
          "name": "wad",
          "type": "uint256"
        }
      ],
      "name": "mint",
      "outputs": [],
      "stateMutability": "nonpayable",
      "type": "function"
    },
    {
      "inputs": [
        {
          "internalType": "address",
          "name": "src",
          "type": "address"
        },
        {
          "internalType": "address",
          "name": "dst",
          "type": "address"
        },
        {
          "internalType": "uint256",
          "name": "wad",
          "type": "uint256"
        }
      ],
      "name": "move",
      "outputs": [],
      "stateMutability": "nonpayable",
      "type": "function"
    },
    {
      "inputs": [],
      "name": "name",
      "outputs": [
        {
          "internalType": "string",
          "name": "",
          "type": "string"
        }
      ],
      "stateMutability": "view",
      "type": "function"
    },
    {
      "inputs": [
        {
          "internalType": "address",
          "name": "",
          "type": "address"
        }
      ],
      "name": "nonces",
      "outputs": [
        {
          "internalType": "uint256",
          "name": "",
          "type": "uint256"
        }
      ],
      "stateMutability": "view",
      "type": "function"
    },
    {
      "inputs": [
        {
          "internalType": "address",
          "name": "holder",
          "type": "address"
        },
        {
          "internalType": "address",
          "name": "spender",
          "type": "address"
        },
        {
          "internalType": "uint256",
          "name": "nonce",
          "type": "uint256"
        },
        {
          "internalType": "uint256",
          "name": "expiry",
          "type": "uint256"
        },
        {
          "internalType": "bool",
          "name": "allowed",
          "type": "bool"
        },
        {
          "internalType": "uint8",
          "name": "v",
          "type": "uint8"
        },
        {
          "internalType": "bytes32",
          "name": "r",
          "type": "bytes32"
        },
        {
          "internalType": "bytes32",
          "name": "s",
          "type": "bytes32"
        }
      ],
      "name": "permit",
      "outputs": [],
      "stateMutability": "nonpayable",
      "type": "function"
    },
    {
      "inputs": [
        {
          "internalType": "address",
          "name": "usr",
          "type": "address"
        },
        {
          "internalType": "uint256",
          "name": "wad",
          "type": "uint256"
        }
      ],
      "name": "pull",
      "outputs": [],
      "stateMutability": "nonpayable",
      "type": "function"
    },
    {
      "inputs": [
        {
          "internalType": "address",
          "name": "usr",
          "type": "address"
        },
        {
          "internalType": "uint256",
          "name": "wad",
          "type": "uint256"
        }
      ],
      "name": "push",
      "outputs": [],
      "stateMutability": "nonpayable",
      "type": "function"
    },
    {
      "inputs": [
        {
          "internalType": "address",
          "name": "guy",
          "type": "address"
        }
      ],
      "name": "rely",
      "outputs": [],
      "stateMutability": "nonpayable",
      "type": "function"
    },
    {
      "inputs": [],
      "name": "symbol",
      "outputs": [
        {
          "internalType": "string",
          "name": "",
          "type": "string"
        }
      ],
      "stateMutability": "view",
      "type": "function"
    },
    {
      "inputs": [],
      "name": "totalSupply",
      "outputs": [
        {
          "internalType": "uint256",
          "name": "",
          "type": "uint256"
        }
      ],
      "stateMutability": "view",
      "type": "function"
    },
    {
      "inputs": [
        {
          "internalType": "address",
          "name": "dst",
          "type": "address"
        },
        {
          "internalType": "uint256",
          "name": "wad",
          "type": "uint256"
        }
      ],
      "name": "transfer",
      "outputs": [
        {
          "internalType": "bool",
          "name": "",
          "type": "bool"
        }
      ],
      "stateMutability": "nonpayable",
      "type": "function"
    },
    {
      "inputs": [
        {
          "internalType": "address",
          "name": "src",
          "type": "address"
        },
        {
          "internalType": "address",
          "name": "dst",
          "type": "address"
        },
        {
          "internalType": "uint256",
          "name": "wad",
          "type": "uint256"
        }
      ],
      "name": "transferFrom",
      "outputs": [
        {
          "internalType": "bool",
          "name": "",
          "type": "bool"
        }
      ],
      "stateMutability": "nonpayable",
      "type": "function"
    },
    {
      "inputs": [],
      "name": "version",
      "outputs": [
        {
          "internalType": "string",
          "name": "",
          "type": "string"
        }
      ],
      "stateMutability": "view",
      "type": "function"
    },
    {
      "inputs": [
        {
          "internalType": "address",
          "name": "",
          "type": "address"
        }
      ],
      "name": "wards",
      "outputs": [
        {
          "internalType": "uint256",
          "name": "",
          "type": "uint256"
        }
      ],
      "stateMutability": "view",
      "type": "function"
    }
  ],
  "transactionHash": "0x42e972ce0da6a85e21385ce70326dc8afb63072a660176cbc23431d32f9165f1",
  "args": [],
  "solcInputHash": "3c836cff23da2a2c0d79acddddaab1fb",
  "bytecode": "0x608060405234801561001057600080fd5b50336000908152602081815260409182902060019081905582518084018452600f81526e232920ac1029ba30b13632b1b7b4b760891b9083015282518084018452908152603160f81b9082015281517f8b73c3c69bb8fe3d512ecc4cf759cc79239f7b179b0ffacaa9a75d522b39400f818301527f1b6754de0399061cbfadfcf3dae340ad210b126ba43eceea0775e672d361ac78818401527fc89efdaa54c0f20c7adf612882df0950f5a951637e0307cdcb4c672f298b8bc66060820152306080808301919091528351808303909101815260a0909101909252815191012060085569021e19e0c9bab24000006002556114c5806101106000396000f3fe608060405234801561001057600080fd5b50600436106101b95760003560e01c806365fae35e116100f95780639dc29fac11610097578063bb35783b11610071578063bb35783b146105c7578063bf353dbb1461060a578063dd62ed3e1461063d578063f2d5d56b14610678576101b9565b80639dc29fac1461051c578063a9059cbb14610555578063b753a98c1461058e576101b9565b80637ecebe00116100d35780637ecebe00146104475780638fcbaf0c1461047a57806395d89b41146104e15780639c52a7f1146104e9576101b9565b806365fae35e1461037357806370a08231146103e1578063798247ae14610414576101b9565b806330adf81f1161016657806340c10f191161014057806340c10f191461033a5780635422224e146103735780635459388e146103a657806354fd4d50146103d9576101b9565b806330adf81f1461030c578063313ce567146103145780633644e51514610332576101b9565b806317fc01d71161019757806317fc01d7146102a757806318160ddd146102c157806323b872dd146102c9576101b9565b806306fdde03146101be578063095ea7b31461023b578063170c58e214610288575b600080fd5b6101c66106b1565b6040805160208082528351818301528351919283929083019185019080838360005b838110156102005781810151838201526020016101e8565b50505050905090810190601f16801561022d5780820380516001836020036101000a031916815260200191505b509250505060405180910390f35b6102746004803603604081101561025157600080fd5b5073ffffffffffffffffffffffffffffffffffffffff81351690602001356106ea565b604080519115158252519081900360200190f35b6102a56004803603602081101561029e57600080fd5b50356106ff565b005b6102af610768565b60408051918252519081900360200190f35b6102af61076e565b610274600480360360608110156102df57600080fd5b5073ffffffffffffffffffffffffffffffffffffffff813581169160208101359091169060400135610774565b6102af6109bf565b61031c6109e3565b6040805160ff9092168252519081900360200190f35b6102af6109e8565b6102a56004803603604081101561035057600080fd5b5073ffffffffffffffffffffffffffffffffffffffff81351690602001356109ee565b6102a56004803603602081101561038957600080fd5b503573ffffffffffffffffffffffffffffffffffffffff16610bd3565b6102af600480360360208110156103bc57600080fd5b503573ffffffffffffffffffffffffffffffffffffffff16610c61565b6101c6610c73565b6102af600480360360208110156103f757600080fd5b503573ffffffffffffffffffffffffffffffffffffffff16610cac565b6102af6004803603602081101561042a57600080fd5b503573ffffffffffffffffffffffffffffffffffffffff16610cbe565b6102af6004803603602081101561045d57600080fd5b503573ffffffffffffffffffffffffffffffffffffffff16610cd0565b6102a5600480360361010081101561049157600080fd5b5073ffffffffffffffffffffffffffffffffffffffff8135811691602081013590911690604081013590606081013590608081013515159060ff60a0820135169060c08101359060e00135610ce2565b6101c6611080565b6102a5600480360360208110156104ff57600080fd5b503573ffffffffffffffffffffffffffffffffffffffff166110b9565b6102a56004803603604081101561053257600080fd5b5073ffffffffffffffffffffffffffffffffffffffff8135169060200135611144565b6102746004803603604081101561056b57600080fd5b5073ffffffffffffffffffffffffffffffffffffffff813516906020013561136d565b6102a5600480360360408110156105a457600080fd5b5073ffffffffffffffffffffffffffffffffffffffff813516906020013561137a565b6102a5600480360360608110156105dd57600080fd5b5073ffffffffffffffffffffffffffffffffffffffff81358116916020810135909116906040013561138a565b6102af6004803603602081101561062057600080fd5b503573ffffffffffffffffffffffffffffffffffffffff1661139b565b6102af6004803603604081101561065357600080fd5b5073ffffffffffffffffffffffffffffffffffffffff813581169160200135166113ad565b6102a56004803603604081101561068e57600080fd5b5073ffffffffffffffffffffffffffffffffffffffff81351690602001356113b9565b6040518060400160405280600f81526020017f4652415820537461626c65636f696e000000000000000000000000000000000081525081565b60006106f683836113c4565b90505b92915050565b33600090815260208190526040902054600114610763576040805162461bcd60e51b815260206004820152601360248201527f465241582f6e6f742d617574686f72697a656400000000000000000000000000604482015290519081900360640190fd5b600255565b60025481565b60015481565b73ffffffffffffffffffffffffffffffffffffffff83166000908152600360205260408120548211156107ee576040805162461bcd60e51b815260206004820152601960248201527f465241582f696e73756666696369656e742d62616c616e636500000000000000604482015290519081900360640190fd5b73ffffffffffffffffffffffffffffffffffffffff8416331480159061083d57507fffffffffffffffffffffffffffffffffffffffffffffffffffffffffffffffff61083a8533611437565b14155b156108e5578161084d8533611437565b10156108a0576040805162461bcd60e51b815260206004820152601b60248201527f465241582f696e73756666696369656e742d616c6c6f77616e63650000000000604482015290519081900360640190fd5b6108b36108ad8533611437565b8361146f565b73ffffffffffffffffffffffffffffffffffffffff851660009081526004602090815260408083203384529091529020555b73ffffffffffffffffffffffffffffffffffffffff8416600090815260036020526040902054610915908361146f565b73ffffffffffffffffffffffffffffffffffffffff8086166000908152600360205260408082209390935590851681522054610951908361147f565b73ffffffffffffffffffffffffffffffffffffffff80851660008181526003602090815260409182902094909455805186815290519193928816927fddf252ad1be2c89b69c2b068fc378daa952ba7f163c4a11628f55a4df523b3ef92918290030190a35060019392505050565b7fea2aa0a1be11a07ed86d755c93467f4f82362b452371d1ba94d1715123511acb81565b601281565b60085481565b33600090815260208190526040902054610b1b5760025433600090815260076020526040902054610a2090839061147f565b111580610a5757503360009081526006602052604090205461196490610a4790439061146f565b10158015610a5757506002548111155b610aa8576040805162461bcd60e51b815260206004820152601660248201527f4f76657220465241586c792046524158204c696d697400000000000000000000604482015290519081900360640190fd5b3360009081526006602052604090205461196490610ac790439061146f565b10610af05733600090815260076020908152604080832084905560069091529020439055610b1b565b33600090815260076020526040902054610b0a908261147f565b336000908152600760205260409020555b73ffffffffffffffffffffffffffffffffffffffff8216600090815260036020526040902054610b4b908261147f565b73ffffffffffffffffffffffffffffffffffffffff8316600090815260036020526040902055600154610b7e908261147f565b60015560408051828152905173ffffffffffffffffffffffffffffffffffffffff8416916000917fddf252ad1be2c89b69c2b068fc378daa952ba7f163c4a11628f55a4df523b3ef9181900360200190a35050565b33600090815260208190526040902054600114610c37576040805162461bcd60e51b815260206004820152601360248201527f465241582f6e6f742d617574686f72697a656400000000000000000000000000604482015290519081900360640190fd5b73ffffffffffffffffffffffffffffffffffffffff16600090815260208190526040902060019055565b60076020526000908152604090205481565b6040518060400160405280600181526020017f310000000000000000000000000000000000000000000000000000000000000081525081565b60036020526000908152604090205481565b60066020526000908152604090205481565b60056020526000908152604090205481565b600854604080517fea2aa0a1be11a07ed86d755c93467f4f82362b452371d1ba94d1715123511acb60208083019190915273ffffffffffffffffffffffffffffffffffffffff808d16838501819052908c166060840152608083018b905260a083018a905288151560c0808501919091528451808503909101815260e0840185528051908301207f190100000000000000000000000000000000000000000000000000000000000061010085015261010284019590955261012280840195909552835180840390950185526101429092019092528251929091019190912090610e12576040805162461bcd60e51b815260206004820152601660248201527f465241582f696e76616c69642d616464726573732d3000000000000000000000604482015290519081900360640190fd5b60018185858560405160008152602001604052604051808581526020018460ff1681526020018381526020018281526020019450505050506020604051602081039080840390855afa158015610e6c573d6000803e3d6000fd5b5050506020604051035173ffffffffffffffffffffffffffffffffffffffff168973ffffffffffffffffffffffffffffffffffffffff1614610ef5576040805162461bcd60e51b815260206004820152601360248201527f465241582f696e76616c69642d7065726d697400000000000000000000000000604482015290519081900360640190fd5b851580610f025750854211155b610f53576040805162461bcd60e51b815260206004820152601360248201527f465241582f7065726d69742d6578706972656400000000000000000000000000604482015290519081900360640190fd5b73ffffffffffffffffffffffffffffffffffffffff891660009081526005602052604090208054600181019091558714610fd4576040805162461bcd60e51b815260206004820152601260248201527f465241582f696e76616c69642d6e6f6e63650000000000000000000000000000604482015290519081900360640190fd5b600085610fe2576000611004565b7fffffffffffffffffffffffffffffffffffffffffffffffffffffffffffffffff5b73ffffffffffffffffffffffffffffffffffffffff808c166000818152600460209081526040808320948f168084529482529182902085905581518581529151949550929391927f8c5be1e5ebec7d5bd14f71427d1e84f3dd0314c0f7b2291e5b200ac8c7c3b92592918290030190a350505050505050505050565b6040518060400160405280600481526020017f465241580000000000000000000000000000000000000000000000000000000081525081565b3360009081526020819052604090205460011461111d576040805162461bcd60e51b815260206004820152601360248201527f465241582f6e6f742d617574686f72697a656400000000000000000000000000604482015290519081900360640190fd5b73ffffffffffffffffffffffffffffffffffffffff16600090815260208190526040812055565b73ffffffffffffffffffffffffffffffffffffffff82166000908152600360205260409020548111156111be576040805162461bcd60e51b815260206004820152601960248201527f465241582f696e73756666696369656e742d62616c616e636500000000000000604482015290519081900360640190fd5b73ffffffffffffffffffffffffffffffffffffffff8216331480159061120d57507fffffffffffffffffffffffffffffffffffffffffffffffffffffffffffffffff61120a8333611437565b14155b156112b5578061121d8333611437565b1015611270576040805162461bcd60e51b815260206004820152601b60248201527f465241582f696e73756666696369656e742d616c6c6f77616e63650000000000604482015290519081900360640190fd5b61128361127d8333611437565b8261146f565b73ffffffffffffffffffffffffffffffffffffffff831660009081526004602090815260408083203384529091529020555b73ffffffffffffffffffffffffffffffffffffffff82166000908152600360205260409020546112e5908261146f565b73ffffffffffffffffffffffffffffffffffffffff8316600090815260036020526040902055600154611318908261146f565b60015560408051828152905160009173ffffffffffffffffffffffffffffffffffffffff8516917fddf252ad1be2c89b69c2b068fc378daa952ba7f163c4a11628f55a4df523b3ef9181900360200190a35050565b60006106f6338484610774565b611385338383610774565b505050565b611395838383610774565b50505050565b60006020819052908152604090205481565b60006106f68383611437565b611385823383610774565b33600081815260046020908152604080832073ffffffffffffffffffffffffffffffffffffffff8716808552908352818420869055815186815291519394909390927f8c5be1e5ebec7d5bd14f71427d1e84f3dd0314c0f7b2291e5b200ac8c7c3b925928290030190a350600192915050565b73ffffffffffffffffffffffffffffffffffffffff918216600090815260046020908152604080832093909416825291909152205490565b808203828111156106f957600080fd5b808201828110156106f957600080fdfea2646970667358221220dc272f01a1c76c9a82cc890f85416337b8ba067d72324183b934695bba745b4264736f6c63430007050033",
  "devdoc": {
    "kind": "dev",
    "methods": {},
    "version": 1
  },
  "userdoc": {
    "kind": "user",
    "methods": {},
    "version": 1
  },
  "storageLayout": {
    "storage": [
      {
        "astId": 141,
        "contract": "src/mocks/FRAX.sol:mockFRAX",
        "label": "wards",
        "offset": 0,
        "slot": "0",
        "type": "t_mapping(t_address,t_uint256)"
      },
      {
        "astId": 201,
        "contract": "src/mocks/FRAX.sol:mockFRAX",
        "label": "totalSupply",
        "offset": 0,
        "slot": "1",
        "type": "t_uint256"
      },
      {
        "astId": 203,
        "contract": "src/mocks/FRAX.sol:mockFRAX",
        "label": "FRAXlyFRAXLimit",
        "offset": 0,
        "slot": "2",
        "type": "t_uint256"
      },
      {
        "astId": 207,
        "contract": "src/mocks/FRAX.sol:mockFRAX",
        "label": "balanceOf",
        "offset": 0,
        "slot": "3",
        "type": "t_mapping(t_address,t_uint256)"
      },
      {
        "astId": 213,
        "contract": "src/mocks/FRAX.sol:mockFRAX",
        "label": "allowances",
        "offset": 0,
        "slot": "4",
        "type": "t_mapping(t_address,t_mapping(t_address,t_uint256))"
      },
      {
        "astId": 217,
        "contract": "src/mocks/FRAX.sol:mockFRAX",
        "label": "nonces",
        "offset": 0,
        "slot": "5",
        "type": "t_mapping(t_address,t_uint256)"
      },
      {
        "astId": 221,
        "contract": "src/mocks/FRAX.sol:mockFRAX",
        "label": "lastMintRestart",
        "offset": 0,
        "slot": "6",
        "type": "t_mapping(t_address,t_uint256)"
      },
      {
        "astId": 225,
        "contract": "src/mocks/FRAX.sol:mockFRAX",
        "label": "FRAXMintedToday",
        "offset": 0,
        "slot": "7",
        "type": "t_mapping(t_address,t_uint256)"
      },
      {
        "astId": 269,
        "contract": "src/mocks/FRAX.sol:mockFRAX",
        "label": "DOMAIN_SEPARATOR",
        "offset": 0,
        "slot": "8",
        "type": "t_bytes32"
      }
    ],
    "types": {
      "t_address": {
        "encoding": "inplace",
        "label": "address",
        "numberOfBytes": "20"
      },
      "t_bytes32": {
        "encoding": "inplace",
        "label": "bytes32",
        "numberOfBytes": "32"
      },
      "t_mapping(t_address,t_mapping(t_address,t_uint256))": {
        "encoding": "mapping",
        "key": "t_address",
        "label": "mapping(address => mapping(address => uint256))",
        "numberOfBytes": "32",
        "value": "t_mapping(t_address,t_uint256)"
      },
      "t_mapping(t_address,t_uint256)": {
        "encoding": "mapping",
        "key": "t_address",
        "label": "mapping(address => uint256)",
        "numberOfBytes": "32",
        "value": "t_uint256"
      },
      "t_uint256": {
        "encoding": "inplace",
        "label": "uint256",
        "numberOfBytes": "32"
      }
    }
  }
}