{
  "address": "0x6b65495585B81b4a15E54186B1FD344E63264F47",
  "abi": [
    {
      "inputs": [],
      "stateMutability": "nonpayable",
      "type": "constructor"
    },
    {
      "anonymous": false,
      "inputs": [
        {
          "indexed": true,
          "internalType": "address",
          "name": "token0",
          "type": "address"
        },
        {
          "indexed": true,
          "internalType": "address",
          "name": "token1",
          "type": "address"
        },
        {
          "indexed": false,
          "internalType": "address",
          "name": "pair",
          "type": "address"
        },
        {
          "indexed": false,
          "internalType": "uint256",
          "name": "",
          "type": "uint256"
        }
      ],
      "name": "PairCreated",
      "type": "event"
    },
    {
      "inputs": [],
      "name": "INIT_CODE_PAIR_HASH",
      "outputs": [
        {
          "internalType": "bytes32",
          "name": "",
          "type": "bytes32"
        }
      ],
      "stateMutability": "view",
      "type": "function"
    },
    {
      "inputs": [
        {
          "internalType": "uint256",
          "name": "",
          "type": "uint256"
        }
      ],
      "name": "allPairs",
      "outputs": [
        {
          "internalType": "address",
          "name": "",
          "type": "address"
        }
      ],
      "stateMutability": "view",
      "type": "function"
    },
    {
      "inputs": [],
      "name": "allPairsLength",
      "outputs": [
        {
          "internalType": "uint256",
          "name": "",
          "type": "uint256"
        }
      ],
      "stateMutability": "view",
      "type": "function"
    },
    {
      "inputs": [],
      "name": "auro",
      "outputs": [
        {
          "internalType": "address",
          "name": "",
          "type": "address"
        }
      ],
      "stateMutability": "view",
      "type": "function"
    },
    {
      "inputs": [
        {
          "internalType": "address",
          "name": "tokenA",
          "type": "address"
        },
        {
          "internalType": "address",
          "name": "tokenB",
          "type": "address"
        }
      ],
      "name": "createPair",
      "outputs": [
        {
          "internalType": "address",
          "name": "pair",
          "type": "address"
        }
      ],
      "stateMutability": "nonpayable",
      "type": "function"
    },
    {
      "inputs": [
        {
          "internalType": "address",
          "name": "pairAddress",
          "type": "address"
        }
      ],
      "name": "disableMetaTxnsPair",
      "outputs": [],
      "stateMutability": "nonpayable",
      "type": "function"
    },
    {
      "inputs": [
        {
          "internalType": "address",
          "name": "pairAddress",
          "type": "address"
        }
      ],
      "name": "enableMetaTxnsPair",
      "outputs": [],
      "stateMutability": "nonpayable",
      "type": "function"
    },
    {
      "inputs": [],
      "name": "feeTo",
      "outputs": [
        {
          "internalType": "address",
          "name": "",
          "type": "address"
        }
      ],
      "stateMutability": "view",
      "type": "function"
    },
    {
      "inputs": [],
      "name": "feeToSetter",
      "outputs": [
        {
          "internalType": "address",
          "name": "",
          "type": "address"
        }
      ],
      "stateMutability": "view",
      "type": "function"
    },
    {
      "inputs": [
        {
          "internalType": "address",
          "name": "",
          "type": "address"
        },
        {
          "internalType": "address",
          "name": "",
          "type": "address"
        }
      ],
      "name": "getPair",
      "outputs": [
        {
          "internalType": "address",
          "name": "",
          "type": "address"
        }
      ],
      "stateMutability": "view",
      "type": "function"
    },
    {
      "inputs": [],
      "name": "migrator",
      "outputs": [
        {
          "internalType": "address",
          "name": "",
          "type": "address"
        }
      ],
      "stateMutability": "view",
      "type": "function"
    },
    {
      "inputs": [
        {
          "internalType": "address",
          "name": "_auro",
          "type": "address"
        }
      ],
      "name": "setAuroAddress",
      "outputs": [],
      "stateMutability": "nonpayable",
      "type": "function"
    },
    {
      "inputs": [
        {
          "internalType": "address",
          "name": "_feeTo",
          "type": "address"
        }
      ],
      "name": "setFeeTo",
      "outputs": [],
      "stateMutability": "nonpayable",
      "type": "function"
    },
    {
      "inputs": [
        {
          "internalType": "address",
          "name": "_feeToSetter",
          "type": "address"
        }
      ],
      "name": "setFeeToSetter",
      "outputs": [],
      "stateMutability": "nonpayable",
      "type": "function"
    },
    {
      "inputs": [
        {
          "internalType": "address",
          "name": "_migrator",
          "type": "address"
        }
      ],
      "name": "setMigrator",
      "outputs": [],
      "stateMutability": "nonpayable",
      "type": "function"
    }
  ],
  "transactionHash": "0x47128e07fff41561e08e4e444df6a1f16b79a9c52f08e6884dc459df1a0653a7",
  "args": [],
  "solcInputHash": "ff797e83051c3a329627ae14bc719023",
  "bytecode": "0x608060405234801561001057600080fd5b50600180546001600160a01b03191633179055613f56806100326000396000f3fe608060405234801561001057600080fd5b50600436106100f55760003560e01c80635e07d17b11610097578063b0cb33fe11610066578063b0cb33fe14610250578063c9c6539614610283578063e6a43905146102be578063f46901ed146102f9576100f5565b80635e07d17b146101af5780636bd7c172146101e25780637cd07e4714610215578063a2e74af61461021d576100f5565b806321dd70e6116100d357806321dd70e61461015057806323cf311814610158578063574f2ba31461018d5780635855a25a146101a7576100f5565b8063017e7e58146100fa578063094b74151461012b5780631e3dd18b14610133575b600080fd5b61010261032c565b6040805173ffffffffffffffffffffffffffffffffffffffff9092168252519081900360200190f35b610102610348565b6101026004803603602081101561014957600080fd5b5035610364565b610102610398565b61018b6004803603602081101561016e57600080fd5b503573ffffffffffffffffffffffffffffffffffffffff166103b4565b005b610195610467565b60408051918252519081900360200190f35b61019561046d565b61018b600480360360208110156101c557600080fd5b503573ffffffffffffffffffffffffffffffffffffffff1661051e565b61018b600480360360208110156101f857600080fd5b503573ffffffffffffffffffffffffffffffffffffffff16610709565b610102610824565b61018b6004803603602081101561023357600080fd5b503573ffffffffffffffffffffffffffffffffffffffff16610840565b61018b6004803603602081101561026657600080fd5b503573ffffffffffffffffffffffffffffffffffffffff166108f3565b6101026004803603604081101561029957600080fd5b5073ffffffffffffffffffffffffffffffffffffffff81358116916020013516610ac1565b610102600480360360408110156102d457600080fd5b5073ffffffffffffffffffffffffffffffffffffffff81358116916020013516610ea7565b61018b6004803603602081101561030f57600080fd5b503573ffffffffffffffffffffffffffffffffffffffff16610eda565b60005473ffffffffffffffffffffffffffffffffffffffff1681565b60015473ffffffffffffffffffffffffffffffffffffffff1681565b6005818154811061037157fe5b60009182526020909120015473ffffffffffffffffffffffffffffffffffffffff16905081565b60035473ffffffffffffffffffffffffffffffffffffffff1681565b60015473ffffffffffffffffffffffffffffffffffffffff163314610420576040805162461bcd60e51b815260206004820152601460248201527f536f6c61724265616d3a20464f5242494444454e000000000000000000000000604482015290519081900360640190fd5b600280547fffffffffffffffffffffffff00000000000000000000000000000000000000001673ffffffffffffffffffffffffffffffffffffffff92909216919091179055565b60055490565b60405161047c60208201610f8d565b6020820181038252601f19601f820116604052506040516020018082805190602001908083835b602083106104e057805182527fffffffffffffffffffffffffffffffffffffffffffffffffffffffffffffffe090920191602091820191016104a3565b6001836020036101000a0380198251168184511680821785525050505050509050019150506040516020818303038152906040528051906020012081565b60015473ffffffffffffffffffffffffffffffffffffffff16331461058a576040805162461bcd60e51b815260206004820152601460248201527f536f6c61724265616d3a20464f5242494444454e000000000000000000000000604482015290519081900360640190fd5b73ffffffffffffffffffffffffffffffffffffffff81166105f2576040805162461bcd60e51b815260206004820152601a60248201527f536f6c61724265616d3a20504149525f4e4f545f455849535453000000000000604482015290519081900360640190fd5b60008190508073ffffffffffffffffffffffffffffffffffffffff1663a8c95dc06040518163ffffffff1660e01b815260040160206040518083038186803b15801561063d57600080fd5b505afa158015610651573d6000803e3d6000fd5b505050506040513d602081101561066757600080fd5b5051156106a55760405162461bcd60e51b8152600401808060200182810382526024815260200180613ed86024913960400191505060405180910390fd5b8073ffffffffffffffffffffffffffffffffffffffff1663578bb42d6040518163ffffffff1660e01b8152600401600060405180830381600087803b1580156106ed57600080fd5b505af1158015610701573d6000803e3d6000fd5b505050505050565b60015473ffffffffffffffffffffffffffffffffffffffff163314610775576040805162461bcd60e51b815260206004820152601460248201527f536f6c61724265616d3a20464f5242494444454e000000000000000000000000604482015290519081900360640190fd5b73ffffffffffffffffffffffffffffffffffffffff81166107dd576040805162461bcd60e51b815260206004820152601a60248201527f536f6c61724265616d3a20494e56414c49445f41444452455353000000000000604482015290519081900360640190fd5b600380547fffffffffffffffffffffffff00000000000000000000000000000000000000001673ffffffffffffffffffffffffffffffffffffffff92909216919091179055565b60025473ffffffffffffffffffffffffffffffffffffffff1681565b60015473ffffffffffffffffffffffffffffffffffffffff1633146108ac576040805162461bcd60e51b815260206004820152601460248201527f536f6c61724265616d3a20464f5242494444454e000000000000000000000000604482015290519081900360640190fd5b600180547fffffffffffffffffffffffff00000000000000000000000000000000000000001673ffffffffffffffffffffffffffffffffffffffff92909216919091179055565b60015473ffffffffffffffffffffffffffffffffffffffff16331461095f576040805162461bcd60e51b815260206004820152601460248201527f536f6c61724265616d3a20464f5242494444454e000000000000000000000000604482015290519081900360640190fd5b73ffffffffffffffffffffffffffffffffffffffff81166109c7576040805162461bcd60e51b815260206004820152601a60248201527f536f6c61724265616d3a20504149525f4e4f545f455849535453000000000000604482015290519081900360640190fd5b60008190508073ffffffffffffffffffffffffffffffffffffffff1663a8c95dc06040518163ffffffff1660e01b815260040160206040518083038186803b158015610a1257600080fd5b505afa158015610a26573d6000803e3d6000fd5b505050506040513d6020811015610a3c57600080fd5b5051610a795760405162461bcd60e51b8152600401808060200182810382526025815260200180613efc6025913960400191505060405180910390fd5b8073ffffffffffffffffffffffffffffffffffffffff1663083836406040518163ffffffff1660e01b8152600401600060405180830381600087803b1580156106ed57600080fd5b60008173ffffffffffffffffffffffffffffffffffffffff168373ffffffffffffffffffffffffffffffffffffffff161415610b44576040805162461bcd60e51b815260206004820152601e60248201527f536f6c61724265616d3a204944454e544943414c5f4144445245535345530000604482015290519081900360640190fd5b6000808373ffffffffffffffffffffffffffffffffffffffff168573ffffffffffffffffffffffffffffffffffffffff1610610b81578385610b84565b84845b909250905073ffffffffffffffffffffffffffffffffffffffff8216610bf1576040805162461bcd60e51b815260206004820152601760248201527f536f6c61724265616d3a205a45524f5f41444452455353000000000000000000604482015290519081900360640190fd5b73ffffffffffffffffffffffffffffffffffffffff828116600090815260046020908152604080832085851684529091529020541615610c78576040805162461bcd60e51b815260206004820152601660248201527f536f6c61724265616d3a20504149525f45584953545300000000000000000000604482015290519081900360640190fd5b606060405180602001610c8a90610f8d565b6020820181038252601f19601f82011660405250905060008383604051602001808373ffffffffffffffffffffffffffffffffffffffff1660601b81526014018273ffffffffffffffffffffffffffffffffffffffff1660601b815260140192505050604051602081830303815290604052805190602001209050808251602084016000f594508473ffffffffffffffffffffffffffffffffffffffff1663485cc95585856040518363ffffffff1660e01b8152600401808373ffffffffffffffffffffffffffffffffffffffff1681526020018273ffffffffffffffffffffffffffffffffffffffff16815260200192505050600060405180830381600087803b158015610d9857600080fd5b505af1158015610dac573d6000803e3d6000fd5b5050505073ffffffffffffffffffffffffffffffffffffffff84811660008181526004602081815260408084208987168086529083528185208054978d167fffffffffffffffffffffffff000000000000000000000000000000000000000098891681179091559383528185208686528352818520805488168517905560058054600181018255958190527f036b6384b5eca791c62761152d0c79bb0604c104a5fb6f4eb0703f3154bb3db090950180549097168417909655925483519283529082015281517f0d3648bd0f6ba80134a33ba9275ac585d9d315f0ad8355cddefde31afa28d0e9929181900390910190a35050505092915050565b600460209081526000928352604080842090915290825290205473ffffffffffffffffffffffffffffffffffffffff1681565b60015473ffffffffffffffffffffffffffffffffffffffff163314610f46576040805162461bcd60e51b815260206004820152601460248201527f536f6c61724265616d3a20464f5242494444454e000000000000000000000000604482015290519081900360640190fd5b600080547fffffffffffffffffffffffff00000000000000000000000000000000000000001673ffffffffffffffffffffffffffffffffffffffff92909216919091179055565b612f3d80610f9b8339019056fe60806040526005805460ff60a01b191690556001600d5534801561002257600080fd5b50604080518082018252601281527129b7b630b92132b0b6902628102a37b5b2b760711b6020918201528151808301835260018152603160f81b9082015281517f8b73c3c69bb8fe3d512ecc4cf759cc79239f7b179b0ffacaa9a75d522b39400f818301527fb4fdaf01ee326634338de6f91bba9d1d19adcd068a294d0ed0b956eedce7081e818401527fc89efdaa54c0f20c7adf612882df0950f5a951637e0307cdcb4c672f298b8bc660608201524660808201523060a0808301919091528351808303909101815260c09091019092528151910120600355600680546001600160a01b03191633179055612e208061011d6000396000f3fe608060405234801561001057600080fd5b50600436106101e55760003560e01c80635a3d54931161010f578063a9059cbb116100a2578063d21220a711610071578063d21220a7146105b5578063d505accf146105bd578063dd62ed3e1461060e578063fff6cae91461063c576101e5565b8063a9059cbb14610553578063ba9a7a561461057f578063bc25cf7714610587578063c45a0155146105ad576101e5565b80637ecebe00116100de5780637ecebe00146104de57806389afcb441461050457806395d89b4114610543578063a8c95dc01461054b576101e5565b80635a3d5493146104825780636a6278421461048a57806370a08231146104b05780637464fc3d146104d6576101e5565b806323b872dd11610187578063485cc95511610156578063485cc9551461041e578063572b6c051461044c578063578bb42d146104725780635909c0d51461047a576101e5565b806323b872dd146103ba57806330adf81f146103f0578063313ce567146103f85780633644e51514610416576101e5565b80630902f1ac116101c35780630902f1ac146102fd578063095ea7b31461033c5780630dfe16811461037c57806318160ddd146103a0576101e5565b8063022c0d9f146101ea57806306fdde031461027857806308383640146102f5575b600080fd5b6102766004803603608081101561020057600080fd5b8135916020810135916001600160a01b03604083013516919081019060808101606082013564010000000081111561023757600080fd5b82018360208201111561024957600080fd5b8035906020019184600183028401116401000000008311171561026b57600080fd5b509092509050610644565b005b610280610cf7565b6040805160208082528351818301528351919283929083019185019080838360005b838110156102ba5781810151838201526020016102a2565b50505050905090810190601f1680156102e75780820380516001836020036101000a031916815260200191505b509250505060405180910390f35b610276610d30565b610305610e5f565b604080516dffffffffffffffffffffffffffff948516815292909316602083015263ffffffff168183015290519081900360600190f35b6103686004803603604081101561035257600080fd5b506001600160a01b038135169060200135610eb4565b604080519115158252519081900360200190f35b610384610ed2565b604080516001600160a01b039092168252519081900360200190f35b6103a8610ee1565b60408051918252519081900360200190f35b610368600480360360608110156103d057600080fd5b506001600160a01b03813581169160208101359091169060400135610ee7565b6103a8610fe8565b61040061100c565b6040805160ff9092168252519081900360200190f35b6103a8611011565b6102766004803603604081101561043457600080fd5b506001600160a01b0381358116916020013516611017565b6103686004803603602081101561046257600080fd5b50356001600160a01b03166110bc565b6102766110fe565b6103a8611245565b6103a861124b565b6103a8600480360360208110156104a057600080fd5b50356001600160a01b0316611251565b6103a8600480360360208110156104c657600080fd5b50356001600160a01b03166117a5565b6103a86117b7565b6103a8600480360360208110156104f457600080fd5b50356001600160a01b03166117bd565b61052a6004803603602081101561051a57600080fd5b50356001600160a01b03166117cf565b6040805192835260208301919091528051918290030190f35b610280611bf7565b610368611c30565b6103686004803603604081101561056957600080fd5b506001600160a01b038135169060200135611c51565b6103a8611c65565b6102766004803603602081101561059d57600080fd5b50356001600160a01b0316611c6b565b610384611e17565b610384611e26565b610276600480360360e08110156105d357600080fd5b506001600160a01b03813581169160208101359091169060408101359060608101359060ff6080820135169060a08101359060c00135611e35565b6103a86004803603604081101561062457600080fd5b506001600160a01b0381358116916020013516612099565b6102766120b6565b600d5460011461069b576040805162461bcd60e51b815260206004820152601160248201527f536f6c61724265616d3a204c4f434b4544000000000000000000000000000000604482015290519081900360640190fd5b6000600d55841515806106ae5750600084115b6106e95760405162461bcd60e51b8152600401808060200182810382526025815260200180612ce86025913960400191505060405180910390fd5b6106f1612c8a565b6040518060e0016040528060006dffffffffffffffffffffffffffff16815260200160006dffffffffffffffffffffffffffff1681526020016000815260200160008152602001600081526020016000815260200160008152509050610755610e5f565b506dffffffffffffffffffffffffffff90811660208401521680825286108015610792575080602001516dffffffffffffffffffffffffffff1685105b6107cd5760405162461bcd60e51b8152600401808060200182810382526021815260200180612da26021913960400191505060405180910390fd5b601960c08201526007546008546001600160a01b0391821691908116908616821480159061080d5750806001600160a01b0316866001600160a01b031614155b61085e576040805162461bcd60e51b815260206004820152601560248201527f536f6c61724265616d3a20494e56414c49445f544f0000000000000000000000604482015290519081900360640190fd5b871561086f5761086f82878a612268565b861561088057610880818789612268565b831561093957856001600160a01b03166310d1e85c61089d61244e565b8a8a89896040518663ffffffff1660e01b815260040180866001600160a01b03168152602001858152602001848152602001806020018281038252848482818152602001925080828437600081840152601f19601f8201169050808301925050509650505050505050600060405180830381600087803b15801561092057600080fd5b505af1158015610934573d6000803e3d6000fd5b505050505b604080517f70a0823100000000000000000000000000000000000000000000000000000000815230600482015290516001600160a01b038416916370a08231916024808301926020929190829003018186803b15801561099857600080fd5b505afa1580156109ac573d6000803e3d6000fd5b505050506040513d60208110156109c257600080fd5b505160408085019190915280517f70a0823100000000000000000000000000000000000000000000000000000000815230600482015290516001600160a01b038316916370a08231916024808301926020929190829003018186803b158015610a2a57600080fd5b505afa158015610a3e573d6000803e3d6000fd5b505050506040513d6020811015610a5457600080fd5b505160608401525050805160408201516dffffffffffffffffffffffffffff90911687900310610a85576000610aa3565b8581600001516dffffffffffffffffffffffffffff16038160400151035b8160800181815250508481602001516dffffffffffffffffffffffffffff1603816060015111610ad4576000610af2565b8481602001516dffffffffffffffffffffffffffff16038160600151035b60a08201526080810151151580610b0d575060008160a00151115b610b485760405162461bcd60e51b8152600401808060200182810382526024815260200180612d7e6024913960400191505060405180910390fd5b6000610b7f610b688360c00151846080015161249190919063ffffffff16565b6040840151610b7990612710612491565b906124fd565b90506000610bb2610ba18460c001518560a0015161249190919063ffffffff16565b6060850151610b7990612710612491565b9050610bfd6305f5e100610bf785602001516dffffffffffffffffffffffffffff1686600001516dffffffffffffffffffffffffffff1661249190919063ffffffff16565b90612491565b610c078383612491565b1015610c5a576040805162461bcd60e51b815260206004820152600c60248201527f536f6c61724265616d3a204b0000000000000000000000000000000000000000604482015290519081900360640190fd5b5050610c788160400151826060015183600001518460200151612555565b836001600160a01b0316610c8a61244e565b6001600160a01b03167fd78ad95fa46c994b6551d0da85fc275fe613ce37657fb8d5e3d130840159d82283608001518460a001518a8a6040518085815260200184815260200183815260200182815260200194505050505060405180910390a350506001600d5550505050565b6040518060400160405280601281526020017f536f6c61724265616d204c5020546f6b656e000000000000000000000000000081525081565b6006546001600160a01b0316610d4461244e565b6001600160a01b031614610d9f576040805162461bcd60e51b815260206004820152601460248201527f536f6c61724265616d3a20464f5242494444454e000000000000000000000000604482015290519081900360640190fd5b60055474010000000000000000000000000000000000000000900460ff16610df85760405162461bcd60e51b8152600401808060200182810382526025815260200180612d316025913960400191505060405180910390fd5b600580547fffffffffffffffffffffff00ffffffffffffffffffffffffffffffffffffffff169055610e2861244e565b6001600160a01b03167f096be170ccc67847e55535e7d8334b2afedd95805baedc160005addb9144745060405160405180910390a2565b6009546dffffffffffffffffffffffffffff808216926e0100000000000000000000000000008304909116917c0100000000000000000000000000000000000000000000000000000000900463ffffffff1690565b6000610ec8610ec161244e565b84846127f1565b5060015b92915050565b6007546001600160a01b031681565b60005481565b6001600160a01b03831660009081526002602052604081207fffffffffffffffffffffffffffffffffffffffffffffffffffffffffffffffff9082610f2a61244e565b6001600160a01b03166001600160a01b031681526020019081526020016000205414610fd3576001600160a01b0384166000908152600260205260408120610f9791849190610f7761244e565b6001600160a01b03168152602081019190915260400160002054906124fd565b6001600160a01b038516600090815260026020526040812090610fb861244e565b6001600160a01b031681526020810191909152604001600020555b610fde848484612853565b5060019392505050565b7f6e71edae12b1b97f4d1f60370fef10105fa2faae0126114a169c64845d6126c981565b601281565b60035481565b6006546001600160a01b03163314611076576040805162461bcd60e51b815260206004820152601460248201527f536f6c61724265616d3a20464f5242494444454e000000000000000000000000604482015290519081900360640190fd5b600780546001600160a01b039384167fffffffffffffffffffffffff00000000000000000000000000000000000000009182161790915560088054929093169116179055565b60055460009074010000000000000000000000000000000000000000900460ff1680156110f657506005546001600160a01b038381169116145b90505b919050565b6006546001600160a01b031661111261244e565b6001600160a01b03161461116d576040805162461bcd60e51b815260206004820152601460248201527f536f6c61724265616d3a20464f5242494444454e000000000000000000000000604482015290519081900360640190fd5b60055474010000000000000000000000000000000000000000900460ff16156111c75760405162461bcd60e51b8152600401808060200182810382526024815260200180612d0d6024913960400191505060405180910390fd5b600580547fffffffffffffffffffffff00ffffffffffffffffffffffffffffffffffffffff167401000000000000000000000000000000000000000017905561120e61244e565b6001600160a01b03167f92e4c08d47b71e8dc051232b8e475ec296489a67a4ba5cca88ff20fb6ac499e660405160405180910390a2565b600a5481565b600b5481565b6000600d546001146112aa576040805162461bcd60e51b815260206004820152601160248201527f536f6c61724265616d3a204c4f434b4544000000000000000000000000000000604482015290519081900360640190fd5b6000600d819055806112ba610e5f565b50600754604080517f70a0823100000000000000000000000000000000000000000000000000000000815230600482015290519395509193506000926001600160a01b03909116916370a08231916024808301926020929190829003018186803b15801561132757600080fd5b505afa15801561133b573d6000803e3d6000fd5b505050506040513d602081101561135157600080fd5b5051600854604080517f70a0823100000000000000000000000000000000000000000000000000000000815230600482015290519293506000926001600160a01b03909216916370a0823191602480820192602092909190829003018186803b1580156113bd57600080fd5b505afa1580156113d1573d6000803e3d6000fd5b505050506040513d60208110156113e757600080fd5b505190506000611407836dffffffffffffffffffffffffffff87166124fd565b90506000611425836dffffffffffffffffffffffffffff87166124fd565b905060006114338787612901565b6000549091508061166057600654604080517f7cd07e4700000000000000000000000000000000000000000000000000000000815290516000926001600160a01b031691637cd07e47916004808301926020929190829003018186803b15801561149c57600080fd5b505afa1580156114b0573d6000803e3d6000fd5b505050506040513d60208110156114c657600080fd5b505190506001600160a01b0381166114dc61244e565b6001600160a01b031614156115d757806001600160a01b03166340dc0e376040518163ffffffff1660e01b815260040160206040518083038186803b15801561152457600080fd5b505afa158015611538573d6000803e3d6000fd5b505050506040513d602081101561154e57600080fd5b50519950891580159061158157507fffffffffffffffffffffffffffffffffffffffffffffffffffffffffffffffff8a14155b6115d2576040805162461bcd60e51b815260206004820152601560248201527f4261642064657369726564206c69717569646974790000000000000000000000604482015290519081900360640190fd5b61165a565b6001600160a01b03811615611633576040805162461bcd60e51b815260206004820152601660248201527f4d757374206e6f742068617665206d69677261746f7200000000000000000000604482015290519081900360640190fd5b61164b6103e8610b796116468888612491565b612a48565b995061165a60006103e8612a99565b506116b1565b6116ae6dffffffffffffffffffffffffffff891661167e8684612491565b8161168557fe5b046dffffffffffffffffffffffffffff89166116a18685612491565b816116a857fe5b04612b23565b98505b600089116116f05760405162461bcd60e51b8152600401808060200182810382526028815260200180612dc36028913960400191505060405180910390fd5b6116fa8a8a612a99565b61170686868a8a612555565b81156117425760095461173e906dffffffffffffffffffffffffffff808216916e010000000000000000000000000000900416612491565b600c555b61174a61244e565b6001600160a01b03167f4c209b5fc8ad50758f13e2e1088ba56a560dff690a1c6fef26394f4c03821c4f8585604051808381526020018281526020019250505060405180910390a250506001600d5550949695505050505050565b60016020526000908152604090205481565b600c5481565b60046020526000908152604090205481565b600080600d54600114611829576040805162461bcd60e51b815260206004820152601160248201527f536f6c61724265616d3a204c4f434b4544000000000000000000000000000000604482015290519081900360640190fd5b6000600d81905580611839610e5f565b50600754600854604080517f70a0823100000000000000000000000000000000000000000000000000000000815230600482015290519496509294506001600160a01b039182169391169160009184916370a08231916024808301926020929190829003018186803b1580156118ae57600080fd5b505afa1580156118c2573d6000803e3d6000fd5b505050506040513d60208110156118d857600080fd5b5051604080517f70a0823100000000000000000000000000000000000000000000000000000000815230600482015290519192506000916001600160a01b038516916370a08231916024808301926020929190829003018186803b15801561193f57600080fd5b505afa158015611953573d6000803e3d6000fd5b505050506040513d602081101561196957600080fd5b5051306000908152600160205260408120549192506119888888612901565b600054909150806119998487612491565b816119a057fe5b049a50806119ae8486612491565b816119b557fe5b04995060008b1180156119c8575060008a115b611a035760405162461bcd60e51b8152600401808060200182810382526028815260200180612d566028913960400191505060405180910390fd5b611a0d3084612b3b565b611a18878d8d612268565b611a23868d8c612268565b604080517f70a0823100000000000000000000000000000000000000000000000000000000815230600482015290516001600160a01b038916916370a08231916024808301926020929190829003018186803b158015611a8257600080fd5b505afa158015611a96573d6000803e3d6000fd5b505050506040513d6020811015611aac57600080fd5b5051604080517f70a0823100000000000000000000000000000000000000000000000000000000815230600482015290519196506001600160a01b038816916370a0823191602480820192602092909190829003018186803b158015611b1157600080fd5b505afa158015611b25573d6000803e3d6000fd5b505050506040513d6020811015611b3b57600080fd5b50519350611b4b85858b8b612555565b8115611b8757600954611b83906dffffffffffffffffffffffffffff808216916e010000000000000000000000000000900416612491565b600c555b8b6001600160a01b0316611b9961244e565b6001600160a01b03167fdccd412f0b1252819cb1fd330b93224ca42612892bb3f4f789976e6d819364968d8d604051808381526020018281526020019250505060405180910390a35050505050505050506001600d81905550915091565b6040518060400160405280600381526020017f534c50000000000000000000000000000000000000000000000000000000000081525081565b60055474010000000000000000000000000000000000000000900460ff1681565b6000610ec8611c5e61244e565b8484612853565b6103e881565b600d54600114611cc2576040805162461bcd60e51b815260206004820152601160248201527f536f6c61724265616d3a204c4f434b4544000000000000000000000000000000604482015290519081900360640190fd5b6000600d55600754600854600954604080517f70a0823100000000000000000000000000000000000000000000000000000000815230600482015290516001600160a01b039485169490931692611d8b9285928792611d86926dffffffffffffffffffffffffffff169185916370a0823191602480820192602092909190829003018186803b158015611d5457600080fd5b505afa158015611d68573d6000803e3d6000fd5b505050506040513d6020811015611d7e57600080fd5b5051906124fd565b612268565b611e0d8184611d866009600e9054906101000a90046dffffffffffffffffffffffffffff166dffffffffffffffffffffffffffff16856001600160a01b03166370a08231306040518263ffffffff1660e01b815260040180826001600160a01b0316815260200191505060206040518083038186803b158015611d5457600080fd5b50506001600d5550565b6006546001600160a01b031681565b6008546001600160a01b031681565b42841015611e8a576040805162461bcd60e51b815260206004820152601260248201527f536f6c61724265616d3a20455850495245440000000000000000000000000000604482015290519081900360640190fd5b6003546001600160a01b0380891660008181526004602090815260408083208054600180820190925582517f6e71edae12b1b97f4d1f60370fef10105fa2faae0126114a169c64845d6126c98186015280840196909652958d166060860152608085018c905260a085019590955260c08085018b90528151808603909101815260e0850182528051908301207f19010000000000000000000000000000000000000000000000000000000000006101008601526101028501969096526101228085019690965280518085039096018652610142840180825286519683019690962095839052610162840180825286905260ff89166101828501526101a284018890526101c28401879052519193926101e2808201937fffffffffffffffffffffffffffffffffffffffffffffffffffffffffffffffe081019281900390910190855afa158015611fde573d6000803e3d6000fd5b50506040517fffffffffffffffffffffffffffffffffffffffffffffffffffffffffffffffe001519150506001600160a01b038116158015906120325750886001600160a01b0316816001600160a01b0316145b612083576040805162461bcd60e51b815260206004820152601c60248201527f536f6c61724265616d3a20494e56414c49445f5349474e415455524500000000604482015290519081900360640190fd5b61208e8989896127f1565b505050505050505050565b600260209081526000928352604080842090915290825290205481565b600d5460011461210d576040805162461bcd60e51b815260206004820152601160248201527f536f6c61724265616d3a204c4f434b4544000000000000000000000000000000604482015290519081900360640190fd5b6000600d55600754604080517f70a082310000000000000000000000000000000000000000000000000000000081523060048201529051612261926001600160a01b0316916370a08231916024808301926020929190829003018186803b15801561217757600080fd5b505afa15801561218b573d6000803e3d6000fd5b505050506040513d60208110156121a157600080fd5b5051600854604080517f70a0823100000000000000000000000000000000000000000000000000000000815230600482015290516001600160a01b03909216916370a0823191602480820192602092909190829003018186803b15801561220757600080fd5b505afa15801561221b573d6000803e3d6000fd5b505050506040513d602081101561223157600080fd5b50516009546dffffffffffffffffffffffffffff808216916e010000000000000000000000000000900416612555565b6001600d55565b604080518082018252601981527f7472616e7366657228616464726573732c75696e74323536290000000000000060209182015281516001600160a01b0385811660248301526044808301869052845180840390910181526064909201845291810180517bffffffffffffffffffffffffffffffffffffffffffffffffffffffff167fa9059cbb000000000000000000000000000000000000000000000000000000001781529251815160009460609489169392918291908083835b6020831061236157805182527fffffffffffffffffffffffffffffffffffffffffffffffffffffffffffffffe09092019160209182019101612324565b6001836020036101000a0380198251168184511680821785525050505050509050019150506000604051808303816000865af19150503d80600081146123c3576040519150601f19603f3d011682016040523d82523d6000602084013e6123c8565b606091505b50915091508180156123f65750805115806123f657508080602001905160208110156123f357600080fd5b50515b612447576040805162461bcd60e51b815260206004820152601a60248201527f536f6c61724265616d3a205452414e534645525f4641494c4544000000000000604482015290519081900360640190fd5b5050505050565b6000612459336110bc565b1561248b57507fffffffffffffffffffffffffffffffffffffffffffffffffffffffffffffffec36013560601c61248e565b50335b90565b60008115806124ac575050808202828282816124a957fe5b04145b610ecc576040805162461bcd60e51b815260206004820152601460248201527f64732d6d6174682d6d756c2d6f766572666c6f77000000000000000000000000604482015290519081900360640190fd5b80820382811115610ecc576040805162461bcd60e51b815260206004820152601560248201527f64732d6d6174682d7375622d756e646572666c6f770000000000000000000000604482015290519081900360640190fd5b6dffffffffffffffffffffffffffff841180159061258157506dffffffffffffffffffffffffffff8311155b6125d2576040805162461bcd60e51b815260206004820152601360248201527f536f6c61724265616d3a204f564552464c4f5700000000000000000000000000604482015290519081900360640190fd5b60095463ffffffff428116917c01000000000000000000000000000000000000000000000000000000009004811682039081161580159061262257506dffffffffffffffffffffffffffff841615155b801561263d57506dffffffffffffffffffffffffffff831615155b156126e7578063ffffffff1661267a8561265686612bcd565b7bffffffffffffffffffffffffffffffffffffffffffffffffffffffff1690612bf1565b600a80547bffffffffffffffffffffffffffffffffffffffffffffffffffffffff929092169290920201905563ffffffff81166126ba8461265687612bcd565b600b80547bffffffffffffffffffffffffffffffffffffffffffffffffffffffff92909216929092020190555b600980547fffffffffffffffffffffffffffffffffffff0000000000000000000000000000166dffffffffffffffffffffffffffff888116919091177fffffffff0000000000000000000000000000ffffffffffffffffffffffffffff166e0100000000000000000000000000008883168102919091177bffffffffffffffffffffffffffffffffffffffffffffffffffffffff167c010000000000000000000000000000000000000000000000000000000063ffffffff871602179283905560408051848416815291909304909116602082015281517f1c411e9a96e071241c2f21f7726b17ae89e3cab4c78be50e062b03a9fffbbad1929181900390910190a1505050505050565b6001600160a01b03808416600081815260026020908152604080832094871680845294825291829020859055815185815291517f8c5be1e5ebec7d5bd14f71427d1e84f3dd0314c0f7b2291e5b200ac8c7c3b9259281900390910190a3505050565b6001600160a01b03831660009081526001602052604090205461287690826124fd565b6001600160a01b0380851660009081526001602052604080822093909355908416815220546128a59082612c32565b6001600160a01b0380841660008181526001602090815260409182902094909455805185815290519193928716927fddf252ad1be2c89b69c2b068fc378daa952ba7f163c4a11628f55a4df523b3ef92918290030190a3505050565b600080600660009054906101000a90046001600160a01b03166001600160a01b031663017e7e586040518163ffffffff1660e01b815260040160206040518083038186803b15801561295257600080fd5b505afa158015612966573d6000803e3d6000fd5b505050506040513d602081101561297c57600080fd5b5051600c546001600160a01b038216158015945091925090612a34578015612a2f5760006129c06116466dffffffffffffffffffffffffffff888116908816612491565b905060006129cd83612a48565b905080821115612a2c5760006129ef6129e684846124fd565b60005490612491565b90506000612a0883612a02866005612491565b90612c32565b90506000818381612a1557fe5b0490508015612a2857612a288782612a99565b5050505b50505b612a40565b8015612a40576000600c555b505092915050565b60006003821115612a8b575080600160028204015b81811015612a8557809150600281828581612a7457fe5b040181612a7d57fe5b049050612a5d565b506110f9565b81156110f957506001919050565b600054612aa69082612c32565b60009081556001600160a01b038316815260016020526040902054612acb9082612c32565b6001600160a01b03831660008181526001602090815260408083209490945583518581529351929391927fddf252ad1be2c89b69c2b068fc378daa952ba7f163c4a11628f55a4df523b3ef9281900390910190a35050565b6000818310612b325781612b34565b825b9392505050565b6001600160a01b038216600090815260016020526040902054612b5e90826124fd565b6001600160a01b03831660009081526001602052604081209190915554612b8590826124fd565b60009081556040805183815290516001600160a01b038516917fddf252ad1be2c89b69c2b068fc378daa952ba7f163c4a11628f55a4df523b3ef919081900360200190a35050565b6dffffffffffffffffffffffffffff166e0100000000000000000000000000000290565b60006dffffffffffffffffffffffffffff82167bffffffffffffffffffffffffffffffffffffffffffffffffffffffff841681612c2a57fe5b049392505050565b80820182811015610ecc576040805162461bcd60e51b815260206004820152601460248201527f64732d6d6174682d6164642d6f766572666c6f77000000000000000000000000604482015290519081900360640190fd5b6040518060e0016040528060006dffffffffffffffffffffffffffff16815260200160006dffffffffffffffffffffffffffff1681526020016000815260200160008152602001600081526020016000815260200160008152509056fe536f6c61724265616d3a20494e53554646494349454e545f4f55545055545f414d4f554e54536f6c61724265616d3a204d4554415f54584e535f414c52454144595f454e41424c4544536f6c61724265616d3a204d4554415f54584e535f414c52454144595f44495341424c4544536f6c61724265616d3a20494e53554646494349454e545f4c49515549444954595f4255524e4544536f6c61724265616d3a20494e53554646494349454e545f494e5055545f414d4f554e54536f6c61724265616d3a20494e53554646494349454e545f4c4951554944495459536f6c61724265616d3a20494e53554646494349454e545f4c49515549444954595f4d494e544544a2646970667358221220aef80e514440ad9146a9889dc2541565bf7c1b49bb6020ff9785b01f01a6a21764736f6c634300060c0033536f6c61724265616d3a204d4554415f54584e535f414c52454144595f454e41424c4544536f6c61724265616d3a204d4554415f54584e535f414c52454144595f44495341424c4544a264697066735822122071ca7afc8f0c11a5dc62858b3dd7850a00377a1be24ede40050a563d17a4d07f64736f6c634300060c0033",
  "devdoc": {
    "kind": "dev",
    "methods": {},
    "version": 1
  },
  "userdoc": {
    "kind": "user",
    "methods": {},
    "version": 1
  },
  "storageLayout": {
    "storage": [
      {
        "astId": 2067,
        "contract": "src/mocks/factory.sol:mockFactory",
        "label": "feeTo",
        "offset": 0,
        "slot": "0",
        "type": "t_address"
      },
      {
        "astId": 2070,
        "contract": "src/mocks/factory.sol:mockFactory",
        "label": "feeToSetter",
        "offset": 0,
        "slot": "1",
        "type": "t_address"
      },
      {
        "astId": 2073,
        "contract": "src/mocks/factory.sol:mockFactory",
        "label": "migrator",
        "offset": 0,
        "slot": "2",
        "type": "t_address"
      },
      {
        "astId": 2076,
        "contract": "src/mocks/factory.sol:mockFactory",
        "label": "auro",
        "offset": 0,
        "slot": "3",
        "type": "t_address"
      },
      {
        "astId": 2083,
        "contract": "src/mocks/factory.sol:mockFactory",
        "label": "getPair",
        "offset": 0,
        "slot": "4",
        "type": "t_mapping(t_address,t_mapping(t_address,t_address))"
      },
      {
        "astId": 2087,
        "contract": "src/mocks/factory.sol:mockFactory",
        "label": "allPairs",
        "offset": 0,
        "slot": "5",
        "type": "t_array(t_address)dyn_storage"
      }
    ],
    "types": {
      "t_address": {
        "encoding": "inplace",
        "label": "address",
        "numberOfBytes": "20"
      },
      "t_array(t_address)dyn_storage": {
        "base": "t_address",
        "encoding": "dynamic_array",
        "label": "address[]",
        "numberOfBytes": "32"
      },
      "t_mapping(t_address,t_address)": {
        "encoding": "mapping",
        "key": "t_address",
        "label": "mapping(address => address)",
        "numberOfBytes": "32",
        "value": "t_address"
      },
      "t_mapping(t_address,t_mapping(t_address,t_address))": {
        "encoding": "mapping",
        "key": "t_address",
        "label": "mapping(address => mapping(address => address))",
        "numberOfBytes": "32",
        "value": "t_mapping(t_address,t_address)"
      }
    }
  }
}