{
  "address": "0xDFB725B09fA4819d4f48681bE05E922Ad3d09373",
  "abi": [
    {
      "inputs": [
        {
          "internalType": "address",
          "name": "_ROME",
          "type": "address"
        },
        {
          "internalType": "address",
          "name": "_sROME",
          "type": "address"
        },
        {
          "internalType": "uint256",
          "name": "_epochLength",
          "type": "uint256"
        },
        {
          "internalType": "uint256",
          "name": "_firstEpochNumber",
          "type": "uint256"
        },
        {
          "internalType": "uint256",
          "name": "_firstEpochBlock",
          "type": "uint256"
        }
      ],
      "stateMutability": "nonpayable",
      "type": "constructor"
    },
    {
      "anonymous": false,
      "inputs": [
        {
          "indexed": true,
          "internalType": "address",
          "name": "previousOwner",
          "type": "address"
        },
        {
          "indexed": true,
          "internalType": "address",
          "name": "newOwner",
          "type": "address"
        }
      ],
      "name": "OwnershipPulled",
      "type": "event"
    },
    {
      "anonymous": false,
      "inputs": [
        {
          "indexed": true,
          "internalType": "address",
          "name": "previousOwner",
          "type": "address"
        },
        {
          "indexed": true,
          "internalType": "address",
          "name": "newOwner",
          "type": "address"
        }
      ],
      "name": "OwnershipPushed",
      "type": "event"
    },
    {
      "inputs": [],
      "name": "ROME",
      "outputs": [
        {
          "internalType": "address",
          "name": "",
          "type": "address"
        }
      ],
      "stateMutability": "view",
      "type": "function"
    },
    {
      "inputs": [
        {
          "internalType": "address",
          "name": "_recipient",
          "type": "address"
        }
      ],
      "name": "claim",
      "outputs": [],
      "stateMutability": "nonpayable",
      "type": "function"
    },
    {
      "inputs": [],
      "name": "contractBalance",
      "outputs": [
        {
          "internalType": "uint256",
          "name": "",
          "type": "uint256"
        }
      ],
      "stateMutability": "view",
      "type": "function"
    },
    {
      "inputs": [],
      "name": "distributor",
      "outputs": [
        {
          "internalType": "address",
          "name": "",
          "type": "address"
        }
      ],
      "stateMutability": "view",
      "type": "function"
    },
    {
      "inputs": [],
      "name": "epoch",
      "outputs": [
        {
          "internalType": "uint256",
          "name": "length",
          "type": "uint256"
        },
        {
          "internalType": "uint256",
          "name": "number",
          "type": "uint256"
        },
        {
          "internalType": "uint256",
          "name": "endBlock",
          "type": "uint256"
        },
        {
          "internalType": "uint256",
          "name": "distribute",
          "type": "uint256"
        }
      ],
      "stateMutability": "view",
      "type": "function"
    },
    {
      "inputs": [],
      "name": "forfeit",
      "outputs": [],
      "stateMutability": "nonpayable",
      "type": "function"
    },
    {
      "inputs": [
        {
          "internalType": "uint256",
          "name": "_amount",
          "type": "uint256"
        }
      ],
      "name": "giveLockBonus",
      "outputs": [],
      "stateMutability": "nonpayable",
      "type": "function"
    },
    {
      "inputs": [],
      "name": "index",
      "outputs": [
        {
          "internalType": "uint256",
          "name": "",
          "type": "uint256"
        }
      ],
      "stateMutability": "view",
      "type": "function"
    },
    {
      "inputs": [],
      "name": "locker",
      "outputs": [
        {
          "internalType": "address",
          "name": "",
          "type": "address"
        }
      ],
      "stateMutability": "view",
      "type": "function"
    },
    {
      "inputs": [],
      "name": "policy",
      "outputs": [
        {
          "internalType": "address",
          "name": "",
          "type": "address"
        }
      ],
      "stateMutability": "view",
      "type": "function"
    },
    {
      "inputs": [],
      "name": "pullPolicy",
      "outputs": [],
      "stateMutability": "nonpayable",
      "type": "function"
    },
    {
      "inputs": [
        {
          "internalType": "address",
          "name": "newOwner_",
          "type": "address"
        }
      ],
      "name": "pushPolicy",
      "outputs": [],
      "stateMutability": "nonpayable",
      "type": "function"
    },
    {
      "inputs": [],
      "name": "rebase",
      "outputs": [],
      "stateMutability": "nonpayable",
      "type": "function"
    },
    {
      "inputs": [],
      "name": "renouncePolicy",
      "outputs": [],
      "stateMutability": "nonpayable",
      "type": "function"
    },
    {
      "inputs": [
        {
          "internalType": "uint256",
          "name": "_amount",
          "type": "uint256"
        }
      ],
      "name": "returnLockBonus",
      "outputs": [],
      "stateMutability": "nonpayable",
      "type": "function"
    },
    {
      "inputs": [],
      "name": "sROME",
      "outputs": [
        {
          "internalType": "address",
          "name": "",
          "type": "address"
        }
      ],
      "stateMutability": "view",
      "type": "function"
    },
    {
      "inputs": [
        {
          "internalType": "enum RomeStaking.CONTRACTS",
          "name": "_contract",
          "type": "uint8"
        },
        {
          "internalType": "address",
          "name": "_address",
          "type": "address"
        }
      ],
      "name": "setContract",
      "outputs": [],
      "stateMutability": "nonpayable",
      "type": "function"
    },
    {
      "inputs": [
        {
          "internalType": "uint256",
          "name": "_warmupPeriod",
          "type": "uint256"
        }
      ],
      "name": "setWarmup",
      "outputs": [],
      "stateMutability": "nonpayable",
      "type": "function"
    },
    {
      "inputs": [
        {
          "internalType": "uint256",
          "name": "_amount",
          "type": "uint256"
        },
        {
          "internalType": "address",
          "name": "_recipient",
          "type": "address"
        }
      ],
      "name": "stake",
      "outputs": [
        {
          "internalType": "bool",
          "name": "",
          "type": "bool"
        }
      ],
      "stateMutability": "nonpayable",
      "type": "function"
    },
    {
      "inputs": [],
      "name": "toggleDepositLock",
      "outputs": [],
      "stateMutability": "nonpayable",
      "type": "function"
    },
    {
      "inputs": [],
      "name": "totalBonus",
      "outputs": [
        {
          "internalType": "uint256",
          "name": "",
          "type": "uint256"
        }
      ],
      "stateMutability": "view",
      "type": "function"
    },
    {
      "inputs": [
        {
          "internalType": "uint256",
          "name": "_amount",
          "type": "uint256"
        },
        {
          "internalType": "bool",
          "name": "_trigger",
          "type": "bool"
        }
      ],
      "name": "unstake",
      "outputs": [],
      "stateMutability": "nonpayable",
      "type": "function"
    },
    {
      "inputs": [],
      "name": "warmupContract",
      "outputs": [
        {
          "internalType": "address",
          "name": "",
          "type": "address"
        }
      ],
      "stateMutability": "view",
      "type": "function"
    },
    {
      "inputs": [
        {
          "internalType": "address",
          "name": "",
          "type": "address"
        }
      ],
      "name": "warmupInfo",
      "outputs": [
        {
          "internalType": "uint256",
          "name": "deposit",
          "type": "uint256"
        },
        {
          "internalType": "uint256",
          "name": "gons",
          "type": "uint256"
        },
        {
          "internalType": "uint256",
          "name": "expiry",
          "type": "uint256"
        },
        {
          "internalType": "bool",
          "name": "lock",
          "type": "bool"
        }
      ],
      "stateMutability": "view",
      "type": "function"
    },
    {
      "inputs": [],
      "name": "warmupPeriod",
      "outputs": [
        {
          "internalType": "uint256",
          "name": "",
          "type": "uint256"
        }
      ],
      "stateMutability": "view",
      "type": "function"
    }
  ],
  "transactionHash": "0xa6862b4721550eca602c2353bd97cc48efb0b33c91bd30c616c9c03e27e5c958",
  "args": [
    "0x322246bD605758691b096D7A6e85B65830629637",
    "0x26985e438D5Bb2732102Ea93E217f6E6489D1baa",
    "10000000",
    "1",
    "50"
  ],
  "solcInputHash": "129f47c0d7b0ff122ed0decc13425477",
  "bytecode": "0x60c060405234801561001057600080fd5b5060405161218c38038061218c833981810160405260a081101561003357600080fd5b50805160208201516040808401516060850151608090950151600080546001600160a01b031916331780825593519596949592949391926001600160a01b0392909216917fea8258f2d9ddb679928cf34b78cf645b7feda9acc828e4dd82d014eaae270eba908290a36001600160a01b0385166100af57600080fd5b6001600160601b0319606086901b166080526001600160a01b0384166100d457600080fd5b6001600160601b0319606094851b1660a0526040805160808101825284815260208101849052908101829052600094018490526002929092556003556004556005555060805160601c60a05160601c6120066101866000398061043b5280610584528061067d52806109855280610aaf5280610ae45280610ed0528061119152806113a7528061167452806117d452508061088f5280610ce45280610dd95280610f43528061177352506120066000f3fe608060405234801561001057600080fd5b50600436106101a35760003560e01c80639d95fbd2116100ee578063bfe1092811610097578063deac361a11610071578063deac361a146103ce578063ed4acaa8146103d6578063f3d86e4a146103de578063f62ae76a146103e6576101a3565b8063bfe10928146103a1578063c9f464ff146103a9578063d7b96d4e146103c6576101a3565b8063a4b23980116100c8578063a4b2398014610389578063a8dd07dc14610391578063af14052c14610399576101a3565b80639d95fbd2146103365780639ebea88c1461033e578063a15ad07714610363576101a3565b80637acb7757116101505780638b7afe2e1161012a5780638b7afe2e146102f85780638f077b8314610300578063900cf0cf14610308576101a3565b80637acb7757146102815780638147f558146102c1578063865e6fd3146102c9576101a3565b80632986c0e5116101815780632986c0e5146102115780635beede081461022b5780636746f4c214610233576101a3565b806303c23670146101a85780630505c8c9146101c75780631e83409a146101eb575b600080fd5b6101c5600480360360208110156101be57600080fd5b5035610403565b005b6101cf610467565b604080516001600160a01b039092168252519081900360200190f35b6101c56004803603602081101561020157600080fd5b50356001600160a01b0316610476565b610219610679565b60408051918252519081900360200190f35b6101c5610705565b6102596004803603602081101561024957600080fd5b50356001600160a01b03166107c7565b6040805194855260208501939093528383019190915215156060830152519081900360800190f35b6102ad6004803603604081101561029757600080fd5b50803590602001356001600160a01b03166107f1565b604080519115158252519081900360200190f35b6101cf610ae2565b6101c5600480360360408110156102df57600080fd5b50803560ff1690602001356001600160a01b0316610b06565b610219610cda565b6101c5610d86565b610310610dc8565b604080519485526020850193909352838301919091526060830152519081900360800190f35b6101cf610dd7565b6101c56004803603604081101561035457600080fd5b50803590602001351515610dfb565b6101c56004803603602081101561037957600080fd5b50356001600160a01b0316610f6a565b6101c5611081565b610219611142565b6101c5611148565b6101cf61150c565b6101c5600480360360208110156103bf57600080fd5b503561151b565b6101cf61157f565b61021961158e565b6101cf611594565b6101c56115a3565b6101c5600480360360208110156103fc57600080fd5b503561179c565b6007546001600160a01b0316331461041a57600080fd5b60085461042790826117fe565b600855600754610464906001600160a01b037f0000000000000000000000000000000000000000000000000000000000000000811691168361185f565b50565b6000546001600160a01b031690565b61047e611ec8565b506001600160a01b0381166000908152600b6020908152604091829020825160808101845281548152600182015492810192909252600281015492820183905260039081015460ff1615156060830152549091118015906104e25750604081015115155b15610675576001600160a01b038083166000908152600b60209081526040808320838155600181018490556002810193909355600390920180547fffffffffffffffffffffffffffffffffffffffffffffffffffffffffffffff001690556009548482015183517f7965d56d000000000000000000000000000000000000000000000000000000008152600481019190915292519084169363c3a2a6659387937f000000000000000000000000000000000000000000000000000000000000000090921692637965d56d92602480840193919291829003018186803b1580156105ca57600080fd5b505afa1580156105de573d6000803e3d6000fd5b505050506040513d60208110156105f457600080fd5b5051604080517fffffffff0000000000000000000000000000000000000000000000000000000060e086901b1681526001600160a01b039093166004840152602483019190915251604480830192600092919082900301818387803b15801561065c57600080fd5b505af1158015610670573d6000803e3d6000fd5b505050505b5050565b60007f00000000000000000000000000000000000000000000000000000000000000006001600160a01b0316632986c0e56040518163ffffffff1660e01b815260040160206040518083038186803b1580156106d457600080fd5b505afa1580156106e8573d6000803e3d6000fd5b505050506040513d60208110156106fe57600080fd5b5051905090565b6001546001600160a01b0316331461074e5760405162461bcd60e51b8152600401808060200182810382526022815260200180611f5f6022913960400191505060405180910390fd5b600154600080546040516001600160a01b0393841693909116917faa151555690c956fc3ea32f106bb9f119b5237a061eaa8557cff3e51e3792c8d91a3600154600080547fffffffffffffffffffffffff0000000000000000000000000000000000000000166001600160a01b03909216919091179055565b600b6020526000908152604090208054600182015460028301546003909301549192909160ff1684565b60006108396040518060400160405280601e81526020017f62616c616e6365206265666f7265207265626173696e67203d3d3e2025730000815250610834610cda565b6118e4565b610841611148565b6108826040518060400160405280601d81526020017f62616c616e6365206166746572207265626173696e67203d3d3e202573000000815250610834610cda565b6108b76001600160a01b037f0000000000000000000000000000000000000000000000000000000000000000163330866119de565b6108bf611ec8565b506001600160a01b0382166000908152600b602090815260409182902082516080810184528154815260018201549281019290925260028101549282019290925260039091015460ff161580156060830152610962576040805162461bcd60e51b815260206004820152601f60248201527f4465706f7369747320666f72206163636f756e7420617265206c6f636b656400604482015290519081900360640190fd5b60408051608081019091528151819061097b90876117fe565b8152602001610a1e7f00000000000000000000000000000000000000000000000000000000000000006001600160a01b0316631bd39674886040518263ffffffff1660e01b81526004018082815260200191505060206040518083038186803b1580156109e757600080fd5b505afa1580156109fb573d6000803e3d6000fd5b505050506040513d6020811015610a1157600080fd5b50516020850151906117fe565b8152600a54600354602090920191610a35916117fe565b8152600060209182018190526001600160a01b038681168252600b835260409182902084518155928401516001840155908301516002830155606090920151600390910180547fffffffffffffffffffffffffffffffffffffffffffffffffffffffffffffff0016911515919091179055600954610ad8917f0000000000000000000000000000000000000000000000000000000000000000811691168661185f565b5060019392505050565b7f000000000000000000000000000000000000000000000000000000000000000081565b6000546001600160a01b03163314610b65576040805162461bcd60e51b815260206004820181905260248201527f4f776e61626c653a2063616c6c6572206973206e6f7420746865206f776e6572604482015290519081900360640190fd5b6000826002811115610b7357fe5b1415610bb157600680547fffffffffffffffffffffffff0000000000000000000000000000000000000000166001600160a01b038316179055610675565b6001826002811115610bbf57fe5b1415610c45576009546001600160a01b031615610c0d5760405162461bcd60e51b8152600401808060200182810382526023815260200180611f3c6023913960400191505060405180910390fd5b600980547fffffffffffffffffffffffff0000000000000000000000000000000000000000166001600160a01b038316179055610675565b6002826002811115610c5357fe5b1415610675576007546001600160a01b031615610ca15760405162461bcd60e51b8152600401808060200182810382526023815260200180611ef36023913960400191505060405180910390fd5b600780546001600160a01b0383167fffffffffffffffffffffffff00000000000000000000000000000000000000009091161790555050565b6000610d816008547f00000000000000000000000000000000000000000000000000000000000000006001600160a01b03166370a08231306040518263ffffffff1660e01b815260040180826001600160a01b0316815260200191505060206040518083038186803b158015610d4f57600080fd5b505afa158015610d63573d6000803e3d6000fd5b505050506040513d6020811015610d7957600080fd5b5051906117fe565b905090565b336000908152600b6020526040902060030180547fffffffffffffffffffffffffffffffffffffffffffffffffffffffffffffff00811660ff90911615179055565b60025460035460045460055484565b7f000000000000000000000000000000000000000000000000000000000000000081565b610e396040518060400160405280601281526020017f656e746572696e6720756e7374616b696e670000000000000000000000000000815250611a6c565b8015610e8557610e7d6040518060400160405280601781526020017f656e746572696e67207265626173652074726967676572000000000000000000815250611a6c565b610e85611148565b610ec36040518060400160405280601a81526020017f656e746572696e67207472616e73666572696e672073524f4d45000000000000815250611a6c565b610ef86001600160a01b037f0000000000000000000000000000000000000000000000000000000000000000163330856119de565b610f366040518060400160405280601981526020017f656e746572696e67207472616e73666572696e6720524f4d4500000000000000815250611a6c565b6106756001600160a01b037f000000000000000000000000000000000000000000000000000000000000000016338461185f565b6000546001600160a01b03163314610fc9576040805162461bcd60e51b815260206004820181905260248201527f4f776e61626c653a2063616c6c6572206973206e6f7420746865206f776e6572604482015290519081900360640190fd5b6001600160a01b03811661100e5760405162461bcd60e51b8152600401808060200182810382526026815260200180611f166026913960400191505060405180910390fd5b600080546040516001600160a01b03808516939216917fea8258f2d9ddb679928cf34b78cf645b7feda9acc828e4dd82d014eaae270eba91a3600180547fffffffffffffffffffffffff0000000000000000000000000000000000000000166001600160a01b0392909216919091179055565b6000546001600160a01b031633146110e0576040805162461bcd60e51b815260206004820181905260248201527f4f776e61626c653a2063616c6c6572206973206e6f7420746865206f776e6572604482015290519081900360640190fd5b600080546040516001600160a01b03909116907fea8258f2d9ddb679928cf34b78cf645b7feda9acc828e4dd82d014eaae270eba908390a3600080547fffffffffffffffffffffffff0000000000000000000000000000000000000000169055565b60085481565b600454431061150a5761118f6040518060400160405280600f81526020017f636865636b2031205374616b696e670000000000000000000000000000000000815250611a6c565b7f00000000000000000000000000000000000000000000000000000000000000006001600160a01b031663058ecdb46002600301546002600101546040518363ffffffff1660e01b81526004018083815260200182815260200192505050602060405180830381600087803b15801561120757600080fd5b505af115801561121b573d6000803e3d6000fd5b505050506040513d602081101561123157600080fd5b5050600254600454611242916117fe565b6004556003805460010190556006546001600160a01b0316156112dc57600660009054906101000a90046001600160a01b03166001600160a01b031663e4fc6b6d6040518163ffffffff1660e01b8152600401602060405180830381600087803b1580156112af57600080fd5b505af11580156112c3573d6000803e3d6000fd5b505050506040513d60208110156112d957600080fd5b50505b61131a6040518060400160405280600f81526020017f636865636b2032205374616b696e670000000000000000000000000000000000815250611a6c565b6000611324610cda565b90506113656040518060400160405280601681526020017f62616c616e6365205374616b696e67203d3d3e20257300000000000000000000815250826118e4565b6113a36040518060400160405280600f81526020017f636865636b2033205374616b696e670000000000000000000000000000000000815250611a6c565b60007f00000000000000000000000000000000000000000000000000000000000000006001600160a01b0316639358928b6040518163ffffffff1660e01b815260040160206040518083038186803b1580156113fe57600080fd5b505afa158015611412573d6000803e3d6000fd5b505050506040513d602081101561142857600080fd5b505160408051808201909152601581527f7374616b6564205374616b696e67203d3d3e2025730000000000000000000000602082015290915061146b90836118e4565b6114aa6040518060400160405280600d81526020017f62616c616e6365203d3e20257300000000000000000000000000000000000000815250836118e4565b6114e96040518060400160405280600c81526020017f7374616b6564203d3e2025730000000000000000000000000000000000000000815250826118e4565b8082116114fa576000600555610675565b6115048282611b5e565b60055550505b565b6006546001600160a01b031681565b6000546001600160a01b0316331461157a576040805162461bcd60e51b815260206004820181905260248201527f4f776e61626c653a2063616c6c6572206973206e6f7420746865206f776e6572604482015290519081900360640190fd5b600a55565b6007546001600160a01b031681565b600a5481565b6009546001600160a01b031681565b6115ab611ec8565b50336000818152600b602081815260408084208151608081018352815481526001820180548286019081526002840180548487015260038501805460ff8116151560608701529a8a529787529388905590879055959091557fffffffffffffffffffffffffffffffffffffffffffffffffffffffffffffff00909516909255600954925182517f7965d56d000000000000000000000000000000000000000000000000000000008152600481019190915291516001600160a01b039384169363c3a2a6659330937f000000000000000000000000000000000000000000000000000000000000000090921692637965d56d92602480840193919291829003018186803b1580156116ba57600080fd5b505afa1580156116ce573d6000803e3d6000fd5b505050506040513d60208110156116e457600080fd5b5051604080517fffffffff0000000000000000000000000000000000000000000000000000000060e086901b1681526001600160a01b039093166004840152602483019190915251604480830192600092919082900301818387803b15801561174c57600080fd5b505af1158015611760573d6000803e3d6000fd5b5050825161046492506001600160a01b037f0000000000000000000000000000000000000000000000000000000000000000169150339061185f565b6007546001600160a01b031633146117b357600080fd5b6008546117c09082611b5e565b600855600754610464906001600160a01b037f00000000000000000000000000000000000000000000000000000000000000008116911630846119de565b600082820183811015611858576040805162461bcd60e51b815260206004820152601b60248201527f536166654d6174683a206164646974696f6e206f766572666c6f770000000000604482015290519081900360640190fd5b9392505050565b604080516001600160a01b038416602482015260448082018490528251808303909101815260649091019091526020810180517bffffffffffffffffffffffffffffffffffffffffffffffffffffffff167fa9059cbb000000000000000000000000000000000000000000000000000000001790526118df908490611bbb565b505050565b61067582826040516024018080602001838152602001828103825284818151815260200191508051906020019080838360005b8381101561192f578181015183820152602001611917565b50505050905090810190601f16801561195c5780820380516001836020036101000a031916815260200191505b50604080517fffffffffffffffffffffffffffffffffffffffffffffffffffffffffffffffe08184030181529190526020810180517bffffffffffffffffffffffffffffffffffffffffffffffffffffffff167f9710a9d0000000000000000000000000000000000000000000000000000000001790529350611c6c92505050565b604080516001600160a01b0380861660248301528416604482015260648082018490528251808303909101815260849091019091526020810180517bffffffffffffffffffffffffffffffffffffffffffffffffffffffff167f23b872dd00000000000000000000000000000000000000000000000000000000179052611a66908590611bbb565b50505050565b610464816040516024018080602001828103825283818151815260200191508051906020019080838360005b83811015611ab0578181015183820152602001611a98565b50505050905090810190601f168015611add5780820380516001836020036101000a031916815260200191505b50604080517fffffffffffffffffffffffffffffffffffffffffffffffffffffffffffffffe08184030181529190526020810180517bffffffffffffffffffffffffffffffffffffffffffffffffffffffff167f41304fac000000000000000000000000000000000000000000000000000000001790529250611c6c915050565b600082821115611bb5576040805162461bcd60e51b815260206004820152601e60248201527f536166654d6174683a207375627472616374696f6e206f766572666c6f770000604482015290519081900360640190fd5b50900390565b6060611c10826040518060400160405280602081526020017f5361666545524332303a206c6f772d6c6576656c2063616c6c206661696c6564815250856001600160a01b0316611c8d9092919063ffffffff16565b8051909150156118df57808060200190516020811015611c2f57600080fd5b50516118df5760405162461bcd60e51b815260040180806020018281038252602a815260200180611fa7602a913960400191505060405180910390fd5b80516a636f6e736f6c652e6c6f67602083016000808483855afa5050505050565b6060611c9c8484600085611ca4565b949350505050565b606082471015611ce55760405162461bcd60e51b8152600401808060200182810382526026815260200180611f816026913960400191505060405180910390fd5b611cee85611e1e565b611d3f576040805162461bcd60e51b815260206004820152601d60248201527f416464726573733a2063616c6c20746f206e6f6e2d636f6e7472616374000000604482015290519081900360640190fd5b60006060866001600160a01b031685876040518082805190602001908083835b60208310611d9c57805182527fffffffffffffffffffffffffffffffffffffffffffffffffffffffffffffffe09092019160209182019101611d5f565b6001836020036101000a03801982511681845116808217855250505050505090500191505060006040518083038185875af1925050503d8060008114611dfe576040519150601f19603f3d011682016040523d82523d6000602084013e611e03565b606091505b5091509150611e13828286611e24565b979650505050505050565b3b151590565b60608315611e33575081611858565b825115611e435782518084602001fd5b8160405162461bcd60e51b81526004018080602001828103825283818151815260200191508051906020019080838360005b83811015611e8d578181015183820152602001611e75565b50505050905090810190601f168015611eba5780820380516001836020036101000a031916815260200191505b509250505060405180910390fd5b6040518060800160405280600081526020016000815260200160008152602001600015158152509056fe4c6f636b65722063616e6e6f7420626520736574206d6f7265207468616e206f6e63654f776e61626c653a206e6577206f776e657220697320746865207a65726f20616464726573735761726d75702063616e6e6f7420626520736574206d6f7265207468616e206f6e63654f776e61626c653a206d757374206265206e6577206f776e657220746f2070756c6c416464726573733a20696e73756666696369656e742062616c616e636520666f722063616c6c5361666545524332303a204552433230206f7065726174696f6e20646964206e6f742073756363656564a264697066735822122071aa49f1c55b74a1d6a81ed06a72d10c49a7fc871ed9245ee3701e21ef7031b164736f6c63430007050033",
  "devdoc": {
    "kind": "dev",
    "methods": {
      "claim(address)": {
        "params": {
          "_recipient": "address"
        }
      },
      "contractBalance()": {
        "returns": {
          "_0": "uint"
        }
      },
      "giveLockBonus(uint256)": {
        "params": {
          "_amount": "uint"
        }
      },
      "index()": {
        "returns": {
          "_0": "uint"
        }
      },
      "returnLockBonus(uint256)": {
        "params": {
          "_amount": "uint"
        }
      },
      "setContract(uint8,address)": {
        "params": {
          "_contract": "address"
        }
      },
      "setWarmup(uint256)": {
        "params": {
          "_warmupPeriod": "uint"
        }
      },
      "stake(uint256,address)": {
        "params": {
          "_amount": "uint"
        },
        "returns": {
          "_0": "bool"
        }
      },
      "unstake(uint256,bool)": {
        "params": {
          "_amount": "uint",
          "_trigger": "bool"
        }
      }
    },
    "version": 1
  },
  "userdoc": {
    "kind": "user",
    "methods": {
      "claim(address)": {
        "notice": "retrieve sROME from warmup"
      },
      "contractBalance()": {
        "notice": "returns contract ROME holdings, including bonuses provided"
      },
      "forfeit()": {
        "notice": "forfeit sROME in warmup and retrieve ROME"
      },
      "giveLockBonus(uint256)": {
        "notice": "provide bonus to locked staking contract"
      },
      "index()": {
        "notice": "returns the sROME index, which tracks rebase growth"
      },
      "rebase()": {
        "notice": "trigger rebase if epoch over"
      },
      "returnLockBonus(uint256)": {
        "notice": "reclaim bonus from locked staking contract"
      },
      "setContract(uint8,address)": {
        "notice": "sets the contract address for LP staking"
      },
      "setWarmup(uint256)": {
        "notice": "set warmup period for new stakers"
      },
      "stake(uint256,address)": {
        "notice": "stake ROME to enter warmup"
      },
      "toggleDepositLock()": {
        "notice": "prevent new deposits to address (protection from malicious activity)"
      },
      "unstake(uint256,bool)": {
        "notice": "redeem sROME for ROME"
      }
    },
    "version": 1
  },
  "storageLayout": {
    "storage": [
      {
        "astId": 23473,
        "contract": "src/Staking.sol:RomeStaking",
        "label": "_owner",
        "offset": 0,
        "slot": "0",
        "type": "t_address"
      },
      {
        "astId": 23475,
        "contract": "src/Staking.sol:RomeStaking",
        "label": "_newOwner",
        "offset": 0,
        "slot": "1",
        "type": "t_address"
      },
      {
        "astId": 8774,
        "contract": "src/Staking.sol:RomeStaking",
        "label": "epoch",
        "offset": 0,
        "slot": "2",
        "type": "t_struct(Epoch)8772_storage"
      },
      {
        "astId": 8776,
        "contract": "src/Staking.sol:RomeStaking",
        "label": "distributor",
        "offset": 0,
        "slot": "6",
        "type": "t_address"
      },
      {
        "astId": 8778,
        "contract": "src/Staking.sol:RomeStaking",
        "label": "locker",
        "offset": 0,
        "slot": "7",
        "type": "t_address"
      },
      {
        "astId": 8780,
        "contract": "src/Staking.sol:RomeStaking",
        "label": "totalBonus",
        "offset": 0,
        "slot": "8",
        "type": "t_uint256"
      },
      {
        "astId": 8782,
        "contract": "src/Staking.sol:RomeStaking",
        "label": "warmupContract",
        "offset": 0,
        "slot": "9",
        "type": "t_address"
      },
      {
        "astId": 8784,
        "contract": "src/Staking.sol:RomeStaking",
        "label": "warmupPeriod",
        "offset": 0,
        "slot": "10",
        "type": "t_uint256"
      },
      {
        "astId": 8846,
        "contract": "src/Staking.sol:RomeStaking",
        "label": "warmupInfo",
        "offset": 0,
        "slot": "11",
        "type": "t_mapping(t_address,t_struct(Claim)8842_storage)"
      }
    ],
    "types": {
      "t_address": {
        "encoding": "inplace",
        "label": "address",
        "numberOfBytes": "20"
      },
      "t_bool": {
        "encoding": "inplace",
        "label": "bool",
        "numberOfBytes": "1"
      },
      "t_mapping(t_address,t_struct(Claim)8842_storage)": {
        "encoding": "mapping",
        "key": "t_address",
        "label": "mapping(address => struct RomeStaking.Claim)",
        "numberOfBytes": "32",
        "value": "t_struct(Claim)8842_storage"
      },
      "t_struct(Claim)8842_storage": {
        "encoding": "inplace",
        "label": "struct RomeStaking.Claim",
        "members": [
          {
            "astId": 8835,
            "contract": "src/Staking.sol:RomeStaking",
            "label": "deposit",
            "offset": 0,
            "slot": "0",
            "type": "t_uint256"
          },
          {
            "astId": 8837,
            "contract": "src/Staking.sol:RomeStaking",
            "label": "gons",
            "offset": 0,
            "slot": "1",
            "type": "t_uint256"
          },
          {
            "astId": 8839,
            "contract": "src/Staking.sol:RomeStaking",
            "label": "expiry",
            "offset": 0,
            "slot": "2",
            "type": "t_uint256"
          },
          {
            "astId": 8841,
            "contract": "src/Staking.sol:RomeStaking",
            "label": "lock",
            "offset": 0,
            "slot": "3",
            "type": "t_bool"
          }
        ],
        "numberOfBytes": "128"
      },
      "t_struct(Epoch)8772_storage": {
        "encoding": "inplace",
        "label": "struct RomeStaking.Epoch",
        "members": [
          {
            "astId": 8765,
            "contract": "src/Staking.sol:RomeStaking",
            "label": "length",
            "offset": 0,
            "slot": "0",
            "type": "t_uint256"
          },
          {
            "astId": 8767,
            "contract": "src/Staking.sol:RomeStaking",
            "label": "number",
            "offset": 0,
            "slot": "1",
            "type": "t_uint256"
          },
          {
            "astId": 8769,
            "contract": "src/Staking.sol:RomeStaking",
            "label": "endBlock",
            "offset": 0,
            "slot": "2",
            "type": "t_uint256"
          },
          {
            "astId": 8771,
            "contract": "src/Staking.sol:RomeStaking",
            "label": "distribute",
            "offset": 0,
            "slot": "3",
            "type": "t_uint256"
          }
        ],
        "numberOfBytes": "128"
      },
      "t_uint256": {
        "encoding": "inplace",
        "label": "uint256",
        "numberOfBytes": "32"
      }
    }
  }
}