{
  "address": "0xCe5761BA02B8808d8b7735E227Ad2E8EF64Baea0",
  "abi": [
    {
      "inputs": [
        {
          "internalType": "address",
          "name": "_governor",
          "type": "address"
        },
        {
          "internalType": "address",
          "name": "_guardian",
          "type": "address"
        },
        {
          "internalType": "address",
          "name": "_policy",
          "type": "address"
        },
        {
          "internalType": "address",
          "name": "_vault",
          "type": "address"
        }
      ],
      "stateMutability": "nonpayable",
      "type": "constructor"
    },
    {
      "anonymous": false,
      "inputs": [
        {
          "indexed": true,
          "internalType": "contract IRomeAuthority",
          "name": "authority",
          "type": "address"
        }
      ],
      "name": "AuthorityUpdated",
      "type": "event"
    },
    {
      "anonymous": false,
      "inputs": [
        {
          "indexed": true,
          "internalType": "address",
          "name": "from",
          "type": "address"
        },
        {
          "indexed": true,
          "internalType": "address",
          "name": "to",
          "type": "address"
        }
      ],
      "name": "GovernorPulled",
      "type": "event"
    },
    {
      "anonymous": false,
      "inputs": [
        {
          "indexed": true,
          "internalType": "address",
          "name": "from",
          "type": "address"
        },
        {
          "indexed": true,
          "internalType": "address",
          "name": "to",
          "type": "address"
        },
        {
          "indexed": false,
          "internalType": "bool",
          "name": "_effectiveImmediately",
          "type": "bool"
        }
      ],
      "name": "GovernorPushed",
      "type": "event"
    },
    {
      "anonymous": false,
      "inputs": [
        {
          "indexed": true,
          "internalType": "address",
          "name": "from",
          "type": "address"
        },
        {
          "indexed": true,
          "internalType": "address",
          "name": "to",
          "type": "address"
        }
      ],
      "name": "GuardianPulled",
      "type": "event"
    },
    {
      "anonymous": false,
      "inputs": [
        {
          "indexed": true,
          "internalType": "address",
          "name": "from",
          "type": "address"
        },
        {
          "indexed": true,
          "internalType": "address",
          "name": "to",
          "type": "address"
        },
        {
          "indexed": false,
          "internalType": "bool",
          "name": "_effectiveImmediately",
          "type": "bool"
        }
      ],
      "name": "GuardianPushed",
      "type": "event"
    },
    {
      "anonymous": false,
      "inputs": [
        {
          "indexed": true,
          "internalType": "address",
          "name": "from",
          "type": "address"
        },
        {
          "indexed": true,
          "internalType": "address",
          "name": "to",
          "type": "address"
        }
      ],
      "name": "PolicyPulled",
      "type": "event"
    },
    {
      "anonymous": false,
      "inputs": [
        {
          "indexed": true,
          "internalType": "address",
          "name": "from",
          "type": "address"
        },
        {
          "indexed": true,
          "internalType": "address",
          "name": "to",
          "type": "address"
        },
        {
          "indexed": false,
          "internalType": "bool",
          "name": "_effectiveImmediately",
          "type": "bool"
        }
      ],
      "name": "PolicyPushed",
      "type": "event"
    },
    {
      "anonymous": false,
      "inputs": [
        {
          "indexed": true,
          "internalType": "address",
          "name": "from",
          "type": "address"
        },
        {
          "indexed": true,
          "internalType": "address",
          "name": "to",
          "type": "address"
        }
      ],
      "name": "VaultPulled",
      "type": "event"
    },
    {
      "anonymous": false,
      "inputs": [
        {
          "indexed": true,
          "internalType": "address",
          "name": "from",
          "type": "address"
        },
        {
          "indexed": true,
          "internalType": "address",
          "name": "to",
          "type": "address"
        },
        {
          "indexed": false,
          "internalType": "bool",
          "name": "_effectiveImmediately",
          "type": "bool"
        }
      ],
      "name": "VaultPushed",
      "type": "event"
    },
    {
      "inputs": [],
      "name": "authority",
      "outputs": [
        {
          "internalType": "contract IRomeAuthority",
          "name": "",
          "type": "address"
        }
      ],
      "stateMutability": "view",
      "type": "function"
    },
    {
      "inputs": [],
      "name": "governor",
      "outputs": [
        {
          "internalType": "address",
          "name": "",
          "type": "address"
        }
      ],
      "stateMutability": "view",
      "type": "function"
    },
    {
      "inputs": [],
      "name": "guardian",
      "outputs": [
        {
          "internalType": "address",
          "name": "",
          "type": "address"
        }
      ],
      "stateMutability": "view",
      "type": "function"
    },
    {
      "inputs": [],
      "name": "newGovernor",
      "outputs": [
        {
          "internalType": "address",
          "name": "",
          "type": "address"
        }
      ],
      "stateMutability": "view",
      "type": "function"
    },
    {
      "inputs": [],
      "name": "newGuardian",
      "outputs": [
        {
          "internalType": "address",
          "name": "",
          "type": "address"
        }
      ],
      "stateMutability": "view",
      "type": "function"
    },
    {
      "inputs": [],
      "name": "newPolicy",
      "outputs": [
        {
          "internalType": "address",
          "name": "",
          "type": "address"
        }
      ],
      "stateMutability": "view",
      "type": "function"
    },
    {
      "inputs": [],
      "name": "newVault",
      "outputs": [
        {
          "internalType": "address",
          "name": "",
          "type": "address"
        }
      ],
      "stateMutability": "view",
      "type": "function"
    },
    {
      "inputs": [],
      "name": "policy",
      "outputs": [
        {
          "internalType": "address",
          "name": "",
          "type": "address"
        }
      ],
      "stateMutability": "view",
      "type": "function"
    },
    {
      "inputs": [],
      "name": "pullGovernor",
      "outputs": [],
      "stateMutability": "nonpayable",
      "type": "function"
    },
    {
      "inputs": [],
      "name": "pullGuardian",
      "outputs": [],
      "stateMutability": "nonpayable",
      "type": "function"
    },
    {
      "inputs": [],
      "name": "pullPolicy",
      "outputs": [],
      "stateMutability": "nonpayable",
      "type": "function"
    },
    {
      "inputs": [],
      "name": "pullVault",
      "outputs": [],
      "stateMutability": "nonpayable",
      "type": "function"
    },
    {
      "inputs": [
        {
          "internalType": "address",
          "name": "_newGovernor",
          "type": "address"
        },
        {
          "internalType": "bool",
          "name": "_effectiveImmediately",
          "type": "bool"
        }
      ],
      "name": "pushGovernor",
      "outputs": [],
      "stateMutability": "nonpayable",
      "type": "function"
    },
    {
      "inputs": [
        {
          "internalType": "address",
          "name": "_newGuardian",
          "type": "address"
        },
        {
          "internalType": "bool",
          "name": "_effectiveImmediately",
          "type": "bool"
        }
      ],
      "name": "pushGuardian",
      "outputs": [],
      "stateMutability": "nonpayable",
      "type": "function"
    },
    {
      "inputs": [
        {
          "internalType": "address",
          "name": "_newPolicy",
          "type": "address"
        },
        {
          "internalType": "bool",
          "name": "_effectiveImmediately",
          "type": "bool"
        }
      ],
      "name": "pushPolicy",
      "outputs": [],
      "stateMutability": "nonpayable",
      "type": "function"
    },
    {
      "inputs": [
        {
          "internalType": "address",
          "name": "_newVault",
          "type": "address"
        },
        {
          "internalType": "bool",
          "name": "_effectiveImmediately",
          "type": "bool"
        }
      ],
      "name": "pushVault",
      "outputs": [],
      "stateMutability": "nonpayable",
      "type": "function"
    },
    {
      "inputs": [
        {
          "internalType": "contract IRomeAuthority",
          "name": "_newAuthority",
          "type": "address"
        }
      ],
      "name": "setAuthority",
      "outputs": [],
      "stateMutability": "nonpayable",
      "type": "function"
    },
    {
      "inputs": [],
      "name": "vault",
      "outputs": [
        {
          "internalType": "address",
          "name": "",
          "type": "address"
        }
      ],
      "stateMutability": "view",
      "type": "function"
    }
  ],
  "transactionHash": "0x782c90f4dbbf3cedd1cfce2bd2100f168efa37e4396814d1fa521f74694b5db1",
  "args": [
    "0xBc2B315D65C909C9B80DDfC7573bAc74ef41Ac5c",
    "0xBaFccb9E094b250971d77493f3c47bbE65f87D4a",
    "0x24BE032430B2D43Cba3d4F8f520dA915aCA5c9d6",
    "0x0000000000000000000000000000000000000000"
  ],
  "solcInputHash": "aa32d09f9f32562eb6d8ca9977e5fc94",
  "bytecode": "0x60c0604052600c60808190526b15539055551213d49256915160a21b60a09081526200002f9160009190620001ff565b503480156200003d57600080fd5b506040516200129b3803806200129b8339810160408190526200006091620002c2565b600180546001600160a01b0319163090811790915560405181907f2f658b440c35314f52658ea8a740e05b284cdc84dc9ae01e891f21b8933e7cad90600090a250600280546001600160a01b0319166001600160a01b038616908117909155604051600181526000907f4f337dcbb2512f18373c1f72d990a2f0a6ee5024b04007c52afd01eb73374a899060200160405180910390a3600380546001600160a01b0319166001600160a01b038516908117909155604051600181526000907fde655975891e8f09671597b37bd4d663bcc5c21dc6d7641b33cdf85fbe15d08b9060200160405180910390a3600480546001600160a01b0319166001600160a01b038416908117909155604051600181526000907f90a5902a45c24aae553d5aff384ca16d6560f08d74c9784a4fbd2796d9e13f2b9060200160405180910390a3600580546001600160a01b0319166001600160a01b038316908117909155604051600181526000907f05a80f5053574d6a62733e1692e8cbcfaf927dc82df0a7267ea2e489a7cc18ff9060200160405180910390a3505050506200035c565b8280546200020d906200031f565b90600052602060002090601f0160209004810192826200023157600085556200027c565b82601f106200024c57805160ff19168380011785556200027c565b828001600101855582156200027c579182015b828111156200027c5782518255916020019190600101906200025f565b506200028a9291506200028e565b5090565b5b808211156200028a57600081556001016200028f565b80516001600160a01b0381168114620002bd57600080fd5b919050565b60008060008060808587031215620002d957600080fd5b620002e485620002a5565b9350620002f460208601620002a5565b92506200030460408601620002a5565b91506200031460608601620002a5565b905092959194509250565b600181811c908216806200033457607f821691505b602082108114156200035657634e487b7160e01b600052602260045260246000fd5b50919050565b610f2f806200036c6000396000f3fe608060405234801561001057600080fd5b50600436106101365760003560e01c80635beede08116100b25780638fd2057711610081578063bf7e214f11610066578063bf7e214f14610255578063d8a0421214610268578063fbfa77cf1461027057600080fd5b80638fd205771461023a578063be11f1dd1461024d57600080fd5b80635beede08146101f95780636fe72c14146102015780637a9e5e4b1461021457806388aaf0c81461022757600080fd5b8063215e92bc11610109578063452a9320116100ee578063452a9320146101c057806352759694146101d357806354e3d703146101e657600080fd5b8063215e92bc146101a55780633bf90c28146101ad57600080fd5b80630505c8c91461013b5780630c340a241461016a578063198598471461017d5780631afe871414610190575b600080fd5b60045461014e906001600160a01b031681565b6040516001600160a01b03909116815260200160405180910390f35b60025461014e906001600160a01b031681565b60075461014e906001600160a01b031681565b6101a361019e366004610d9b565b610283565b005b6101a3610413565b60085461014e906001600160a01b031681565b60035461014e906001600160a01b031681565b6101a36101e1366004610d9b565b610502565b6101a36101f4366004610d9b565b610681565b6101a3610800565b6101a361020f366004610d9b565b6108ef565b6101a3610222366004610dd9565b610a6e565b60095461014e906001600160a01b031681565b60065461014e906001600160a01b031681565b6101a3610ba5565b60015461014e906001600160a01b031681565b6101a3610c94565b60055461014e906001600160a01b031681565b600160009054906101000a90046001600160a01b03166001600160a01b0316630c340a246040518163ffffffff1660e01b815260040160206040518083038186803b1580156102d157600080fd5b505afa1580156102e5573d6000803e3d6000fd5b505050506040513d601f19601f820116820180604052508101906103099190610dfd565b6001600160a01b0316336001600160a01b031614600090610360576040517f08c379a00000000000000000000000000000000000000000000000000000000081526004016103579190610e1a565b60405180910390fd5b50801561039b57600380547fffffffffffffffffffffffff0000000000000000000000000000000000000000166001600160a01b0384161790555b600780547fffffffffffffffffffffffff0000000000000000000000000000000000000000166001600160a01b038481169182179092556003546040518415158152919216907fde655975891e8f09671597b37bd4d663bcc5c21dc6d7641b33cdf85fbe15d08b906020015b60405180910390a35050565b6009546001600160a01b03163314610487576040517f08c379a000000000000000000000000000000000000000000000000000000000815260206004820152600960248201527f216e65775661756c7400000000000000000000000000000000000000000000006044820152606401610357565b6009546005546040516001600160a01b0392831692909116907f3d08e01e3b8340be6ca709db7a9321448661a1f490da4d7f3eb03d84fe73095390600090a3600954600580547fffffffffffffffffffffffff0000000000000000000000000000000000000000166001600160a01b03909216919091179055565b600160009054906101000a90046001600160a01b03166001600160a01b0316630c340a246040518163ffffffff1660e01b815260040160206040518083038186803b15801561055057600080fd5b505afa158015610564573d6000803e3d6000fd5b505050506040513d601f19601f820116820180604052508101906105889190610dfd565b6001600160a01b0316336001600160a01b0316146000906105d6576040517f08c379a00000000000000000000000000000000000000000000000000000000081526004016103579190610e1a565b50801561061157600280547fffffffffffffffffffffffff0000000000000000000000000000000000000000166001600160a01b0384161790555b600680547fffffffffffffffffffffffff0000000000000000000000000000000000000000166001600160a01b038481169182179092556002546040518415158152919216907f4f337dcbb2512f18373c1f72d990a2f0a6ee5024b04007c52afd01eb73374a8990602001610407565b600160009054906101000a90046001600160a01b03166001600160a01b0316630c340a246040518163ffffffff1660e01b815260040160206040518083038186803b1580156106cf57600080fd5b505afa1580156106e3573d6000803e3d6000fd5b505050506040513d601f19601f820116820180604052508101906107079190610dfd565b6001600160a01b0316336001600160a01b031614600090610755576040517f08c379a00000000000000000000000000000000000000000000000000000000081526004016103579190610e1a565b50801561079057600480547fffffffffffffffffffffffff0000000000000000000000000000000000000000166001600160a01b0384161790555b600880547fffffffffffffffffffffffff0000000000000000000000000000000000000000166001600160a01b038481169182179092556004546040518415158152919216907f90a5902a45c24aae553d5aff384ca16d6560f08d74c9784a4fbd2796d9e13f2b90602001610407565b6008546001600160a01b03163314610874576040517f08c379a000000000000000000000000000000000000000000000000000000000815260206004820152600a60248201527f216e6577506f6c696379000000000000000000000000000000000000000000006044820152606401610357565b6008546004546040516001600160a01b0392831692909116907f64d2fa522b403ca222efff0c7ad07d2ef45472a45e5770918bdfa9a2845d29a890600090a3600854600480547fffffffffffffffffffffffff0000000000000000000000000000000000000000166001600160a01b03909216919091179055565b600160009054906101000a90046001600160a01b03166001600160a01b0316630c340a246040518163ffffffff1660e01b815260040160206040518083038186803b15801561093d57600080fd5b505afa158015610951573d6000803e3d6000fd5b505050506040513d601f19601f820116820180604052508101906109759190610dfd565b6001600160a01b0316336001600160a01b0316146000906109c3576040517f08c379a00000000000000000000000000000000000000000000000000000000081526004016103579190610e1a565b5080156109fe57600580547fffffffffffffffffffffffff0000000000000000000000000000000000000000166001600160a01b0384161790555b600980547fffffffffffffffffffffffff0000000000000000000000000000000000000000166001600160a01b038481169182179092556005546040518415158152919216907f05a80f5053574d6a62733e1692e8cbcfaf927dc82df0a7267ea2e489a7cc18ff90602001610407565b600160009054906101000a90046001600160a01b03166001600160a01b0316630c340a246040518163ffffffff1660e01b815260040160206040518083038186803b158015610abc57600080fd5b505afa158015610ad0573d6000803e3d6000fd5b505050506040513d601f19601f82011682018060405250810190610af49190610dfd565b6001600160a01b0316336001600160a01b031614600090610b42576040517f08c379a00000000000000000000000000000000000000000000000000000000081526004016103579190610e1a565b50600180547fffffffffffffffffffffffff0000000000000000000000000000000000000000166001600160a01b0383169081179091556040517f2f658b440c35314f52658ea8a740e05b284cdc84dc9ae01e891f21b8933e7cad90600090a250565b6007546001600160a01b03163314610c19576040517f08c379a000000000000000000000000000000000000000000000000000000000815260206004820152600960248201527f216e6577477561726400000000000000000000000000000000000000000000006044820152606401610357565b6007546003546040516001600160a01b0392831692909116907f0960fb9900fb8096216606c4f7fc2fce5d08cc0c82da55cec8619b66b523848190600090a3600754600380547fffffffffffffffffffffffff0000000000000000000000000000000000000000166001600160a01b03909216919091179055565b6006546001600160a01b03163314610d08576040517f08c379a000000000000000000000000000000000000000000000000000000000815260206004820152600c60248201527f216e6577476f7665726e6f7200000000000000000000000000000000000000006044820152606401610357565b6006546002546040516001600160a01b0392831692909116907fffd6fed33fe8ec1016718bdd5d04ae6fecd9aba0da6578807daaaa7fc3d1682690600090a3600654600280547fffffffffffffffffffffffff0000000000000000000000000000000000000000166001600160a01b03909216919091179055565b6001600160a01b0381168114610d9857600080fd5b50565b60008060408385031215610dae57600080fd5b8235610db981610d83565b915060208301358015158114610dce57600080fd5b809150509250929050565b600060208284031215610deb57600080fd5b8135610df681610d83565b9392505050565b600060208284031215610e0f57600080fd5b8151610df681610d83565b600060208083526000845481600182811c915080831680610e3c57607f831692505b858310811415610e73577f4e487b710000000000000000000000000000000000000000000000000000000085526022600452602485fd5b878601838152602001818015610e905760018114610ebf57610eea565b7fffffffffffffffffffffffffffffffffffffffffffffffffffffffffffffff00861682528782019650610eea565b60008b81526020902060005b86811015610ee457815484820152908501908901610ecb565b83019750505b5094999850505050505050505056fea264697066735822122092dd7bce05a30a36c546afad543a10214a6133508ba76aead4d630eb16a2a76b64736f6c63430008090033",
  "devdoc": {
    "kind": "dev",
    "methods": {},
    "version": 1
  },
  "userdoc": {
    "kind": "user",
    "methods": {},
    "version": 1
  },
  "storageLayout": {
    "storage": [
      {
        "astId": 414,
        "contract": "src/RomeAuthority.sol:RomeAuthority",
        "label": "UNAUTHORIZED",
        "offset": 0,
        "slot": "0",
        "type": "t_string_storage"
      },
      {
        "astId": 417,
        "contract": "src/RomeAuthority.sol:RomeAuthority",
        "label": "authority",
        "offset": 0,
        "slot": "1",
        "type": "t_contract(IRomeAuthority)403"
      },
      {
        "astId": 10,
        "contract": "src/RomeAuthority.sol:RomeAuthority",
        "label": "governor",
        "offset": 0,
        "slot": "2",
        "type": "t_address"
      },
      {
        "astId": 13,
        "contract": "src/RomeAuthority.sol:RomeAuthority",
        "label": "guardian",
        "offset": 0,
        "slot": "3",
        "type": "t_address"
      },
      {
        "astId": 16,
        "contract": "src/RomeAuthority.sol:RomeAuthority",
        "label": "policy",
        "offset": 0,
        "slot": "4",
        "type": "t_address"
      },
      {
        "astId": 19,
        "contract": "src/RomeAuthority.sol:RomeAuthority",
        "label": "vault",
        "offset": 0,
        "slot": "5",
        "type": "t_address"
      },
      {
        "astId": 21,
        "contract": "src/RomeAuthority.sol:RomeAuthority",
        "label": "newGovernor",
        "offset": 0,
        "slot": "6",
        "type": "t_address"
      },
      {
        "astId": 23,
        "contract": "src/RomeAuthority.sol:RomeAuthority",
        "label": "newGuardian",
        "offset": 0,
        "slot": "7",
        "type": "t_address"
      },
      {
        "astId": 25,
        "contract": "src/RomeAuthority.sol:RomeAuthority",
        "label": "newPolicy",
        "offset": 0,
        "slot": "8",
        "type": "t_address"
      },
      {
        "astId": 27,
        "contract": "src/RomeAuthority.sol:RomeAuthority",
        "label": "newVault",
        "offset": 0,
        "slot": "9",
        "type": "t_address"
      }
    ],
    "types": {
      "t_address": {
        "encoding": "inplace",
        "label": "address",
        "numberOfBytes": "20"
      },
      "t_contract(IRomeAuthority)403": {
        "encoding": "inplace",
        "label": "contract IRomeAuthority",
        "numberOfBytes": "20"
      },
      "t_string_storage": {
        "encoding": "bytes",
        "label": "string",
        "numberOfBytes": "32"
      }
    }
  }
}