{
  "address": "0x26985e438D5Bb2732102Ea93E217f6E6489D1baa",
  "abi": [
    {
      "inputs": [],
      "stateMutability": "nonpayable",
      "type": "constructor"
    },
    {
      "anonymous": false,
      "inputs": [
        {
          "indexed": true,
          "internalType": "address",
          "name": "owner",
          "type": "address"
        },
        {
          "indexed": true,
          "internalType": "address",
          "name": "spender",
          "type": "address"
        },
        {
          "indexed": false,
          "internalType": "uint256",
          "name": "value",
          "type": "uint256"
        }
      ],
      "name": "Approval",
      "type": "event"
    },
    {
      "anonymous": false,
      "inputs": [
        {
          "indexed": true,
          "internalType": "uint256",
          "name": "epoch",
          "type": "uint256"
        },
        {
          "indexed": false,
          "internalType": "uint256",
          "name": "rebase",
          "type": "uint256"
        },
        {
          "indexed": false,
          "internalType": "uint256",
          "name": "index",
          "type": "uint256"
        }
      ],
      "name": "LogRebase",
      "type": "event"
    },
    {
      "anonymous": false,
      "inputs": [
        {
          "indexed": false,
          "internalType": "address",
          "name": "stakingContract",
          "type": "address"
        }
      ],
      "name": "LogStakingContractUpdated",
      "type": "event"
    },
    {
      "anonymous": false,
      "inputs": [
        {
          "indexed": true,
          "internalType": "uint256",
          "name": "epoch",
          "type": "uint256"
        },
        {
          "indexed": false,
          "internalType": "uint256",
          "name": "timestamp",
          "type": "uint256"
        },
        {
          "indexed": false,
          "internalType": "uint256",
          "name": "totalSupply",
          "type": "uint256"
        }
      ],
      "name": "LogSupply",
      "type": "event"
    },
    {
      "anonymous": false,
      "inputs": [
        {
          "indexed": true,
          "internalType": "address",
          "name": "previousOwner",
          "type": "address"
        },
        {
          "indexed": true,
          "internalType": "address",
          "name": "newOwner",
          "type": "address"
        }
      ],
      "name": "OwnershipPulled",
      "type": "event"
    },
    {
      "anonymous": false,
      "inputs": [
        {
          "indexed": true,
          "internalType": "address",
          "name": "previousOwner",
          "type": "address"
        },
        {
          "indexed": true,
          "internalType": "address",
          "name": "newOwner",
          "type": "address"
        }
      ],
      "name": "OwnershipPushed",
      "type": "event"
    },
    {
      "anonymous": false,
      "inputs": [
        {
          "indexed": true,
          "internalType": "address",
          "name": "from",
          "type": "address"
        },
        {
          "indexed": true,
          "internalType": "address",
          "name": "to",
          "type": "address"
        },
        {
          "indexed": false,
          "internalType": "uint256",
          "name": "value",
          "type": "uint256"
        }
      ],
      "name": "Transfer",
      "type": "event"
    },
    {
      "inputs": [],
      "name": "DOMAIN_SEPARATOR",
      "outputs": [
        {
          "internalType": "bytes32",
          "name": "",
          "type": "bytes32"
        }
      ],
      "stateMutability": "view",
      "type": "function"
    },
    {
      "inputs": [],
      "name": "INDEX",
      "outputs": [
        {
          "internalType": "uint256",
          "name": "",
          "type": "uint256"
        }
      ],
      "stateMutability": "view",
      "type": "function"
    },
    {
      "inputs": [
        {
          "internalType": "address",
          "name": "owner_",
          "type": "address"
        },
        {
          "internalType": "address",
          "name": "spender",
          "type": "address"
        }
      ],
      "name": "allowance",
      "outputs": [
        {
          "internalType": "uint256",
          "name": "",
          "type": "uint256"
        }
      ],
      "stateMutability": "view",
      "type": "function"
    },
    {
      "inputs": [
        {
          "internalType": "address",
          "name": "spender",
          "type": "address"
        },
        {
          "internalType": "uint256",
          "name": "value",
          "type": "uint256"
        }
      ],
      "name": "approve",
      "outputs": [
        {
          "internalType": "bool",
          "name": "",
          "type": "bool"
        }
      ],
      "stateMutability": "nonpayable",
      "type": "function"
    },
    {
      "inputs": [
        {
          "internalType": "uint256",
          "name": "gons",
          "type": "uint256"
        }
      ],
      "name": "balanceForGons",
      "outputs": [
        {
          "internalType": "uint256",
          "name": "",
          "type": "uint256"
        }
      ],
      "stateMutability": "view",
      "type": "function"
    },
    {
      "inputs": [
        {
          "internalType": "address",
          "name": "who",
          "type": "address"
        }
      ],
      "name": "balanceOf",
      "outputs": [
        {
          "internalType": "uint256",
          "name": "",
          "type": "uint256"
        }
      ],
      "stateMutability": "view",
      "type": "function"
    },
    {
      "inputs": [],
      "name": "circulatingSupply",
      "outputs": [
        {
          "internalType": "uint256",
          "name": "",
          "type": "uint256"
        }
      ],
      "stateMutability": "view",
      "type": "function"
    },
    {
      "inputs": [],
      "name": "decimals",
      "outputs": [
        {
          "internalType": "uint8",
          "name": "",
          "type": "uint8"
        }
      ],
      "stateMutability": "view",
      "type": "function"
    },
    {
      "inputs": [
        {
          "internalType": "address",
          "name": "spender",
          "type": "address"
        },
        {
          "internalType": "uint256",
          "name": "subtractedValue",
          "type": "uint256"
        }
      ],
      "name": "decreaseAllowance",
      "outputs": [
        {
          "internalType": "bool",
          "name": "",
          "type": "bool"
        }
      ],
      "stateMutability": "nonpayable",
      "type": "function"
    },
    {
      "inputs": [
        {
          "internalType": "uint256",
          "name": "amount",
          "type": "uint256"
        }
      ],
      "name": "gonsForBalance",
      "outputs": [
        {
          "internalType": "uint256",
          "name": "",
          "type": "uint256"
        }
      ],
      "stateMutability": "view",
      "type": "function"
    },
    {
      "inputs": [
        {
          "internalType": "address",
          "name": "spender",
          "type": "address"
        },
        {
          "internalType": "uint256",
          "name": "addedValue",
          "type": "uint256"
        }
      ],
      "name": "increaseAllowance",
      "outputs": [
        {
          "internalType": "bool",
          "name": "",
          "type": "bool"
        }
      ],
      "stateMutability": "nonpayable",
      "type": "function"
    },
    {
      "inputs": [],
      "name": "index",
      "outputs": [
        {
          "internalType": "uint256",
          "name": "",
          "type": "uint256"
        }
      ],
      "stateMutability": "view",
      "type": "function"
    },
    {
      "inputs": [
        {
          "internalType": "address",
          "name": "stakingContract_",
          "type": "address"
        }
      ],
      "name": "initialize",
      "outputs": [
        {
          "internalType": "bool",
          "name": "",
          "type": "bool"
        }
      ],
      "stateMutability": "nonpayable",
      "type": "function"
    },
    {
      "inputs": [],
      "name": "initializer",
      "outputs": [
        {
          "internalType": "address",
          "name": "",
          "type": "address"
        }
      ],
      "stateMutability": "view",
      "type": "function"
    },
    {
      "inputs": [],
      "name": "name",
      "outputs": [
        {
          "internalType": "string",
          "name": "",
          "type": "string"
        }
      ],
      "stateMutability": "view",
      "type": "function"
    },
    {
      "inputs": [
        {
          "internalType": "address",
          "name": "owner",
          "type": "address"
        }
      ],
      "name": "nonces",
      "outputs": [
        {
          "internalType": "uint256",
          "name": "",
          "type": "uint256"
        }
      ],
      "stateMutability": "view",
      "type": "function"
    },
    {
      "inputs": [
        {
          "internalType": "address",
          "name": "owner",
          "type": "address"
        },
        {
          "internalType": "address",
          "name": "spender",
          "type": "address"
        },
        {
          "internalType": "uint256",
          "name": "value",
          "type": "uint256"
        },
        {
          "internalType": "uint256",
          "name": "deadline",
          "type": "uint256"
        },
        {
          "internalType": "uint8",
          "name": "v",
          "type": "uint8"
        },
        {
          "internalType": "bytes32",
          "name": "r",
          "type": "bytes32"
        },
        {
          "internalType": "bytes32",
          "name": "s",
          "type": "bytes32"
        }
      ],
      "name": "permit",
      "outputs": [],
      "stateMutability": "nonpayable",
      "type": "function"
    },
    {
      "inputs": [],
      "name": "policy",
      "outputs": [
        {
          "internalType": "address",
          "name": "",
          "type": "address"
        }
      ],
      "stateMutability": "view",
      "type": "function"
    },
    {
      "inputs": [],
      "name": "pullPolicy",
      "outputs": [],
      "stateMutability": "nonpayable",
      "type": "function"
    },
    {
      "inputs": [
        {
          "internalType": "address",
          "name": "newOwner_",
          "type": "address"
        }
      ],
      "name": "pushPolicy",
      "outputs": [],
      "stateMutability": "nonpayable",
      "type": "function"
    },
    {
      "inputs": [
        {
          "internalType": "uint256",
          "name": "profit_",
          "type": "uint256"
        },
        {
          "internalType": "uint256",
          "name": "epoch_",
          "type": "uint256"
        }
      ],
      "name": "rebase",
      "outputs": [
        {
          "internalType": "uint256",
          "name": "",
          "type": "uint256"
        }
      ],
      "stateMutability": "nonpayable",
      "type": "function"
    },
    {
      "inputs": [
        {
          "internalType": "uint256",
          "name": "",
          "type": "uint256"
        }
      ],
      "name": "rebases",
      "outputs": [
        {
          "internalType": "uint256",
          "name": "epoch",
          "type": "uint256"
        },
        {
          "internalType": "uint256",
          "name": "rebase",
          "type": "uint256"
        },
        {
          "internalType": "uint256",
          "name": "totalStakedBefore",
          "type": "uint256"
        },
        {
          "internalType": "uint256",
          "name": "totalStakedAfter",
          "type": "uint256"
        },
        {
          "internalType": "uint256",
          "name": "amountRebased",
          "type": "uint256"
        },
        {
          "internalType": "uint256",
          "name": "index",
          "type": "uint256"
        },
        {
          "internalType": "uint256",
          "name": "blockNumberOccured",
          "type": "uint256"
        }
      ],
      "stateMutability": "view",
      "type": "function"
    },
    {
      "inputs": [],
      "name": "renouncePolicy",
      "outputs": [],
      "stateMutability": "nonpayable",
      "type": "function"
    },
    {
      "inputs": [
        {
          "internalType": "uint256",
          "name": "_INDEX",
          "type": "uint256"
        }
      ],
      "name": "setIndex",
      "outputs": [
        {
          "internalType": "bool",
          "name": "",
          "type": "bool"
        }
      ],
      "stateMutability": "nonpayable",
      "type": "function"
    },
    {
      "inputs": [],
      "name": "stakingContract",
      "outputs": [
        {
          "internalType": "address",
          "name": "",
          "type": "address"
        }
      ],
      "stateMutability": "view",
      "type": "function"
    },
    {
      "inputs": [],
      "name": "symbol",
      "outputs": [
        {
          "internalType": "string",
          "name": "",
          "type": "string"
        }
      ],
      "stateMutability": "view",
      "type": "function"
    },
    {
      "inputs": [],
      "name": "totalSupply",
      "outputs": [
        {
          "internalType": "uint256",
          "name": "",
          "type": "uint256"
        }
      ],
      "stateMutability": "view",
      "type": "function"
    },
    {
      "inputs": [
        {
          "internalType": "address",
          "name": "to",
          "type": "address"
        },
        {
          "internalType": "uint256",
          "name": "value",
          "type": "uint256"
        }
      ],
      "name": "transfer",
      "outputs": [
        {
          "internalType": "bool",
          "name": "",
          "type": "bool"
        }
      ],
      "stateMutability": "nonpayable",
      "type": "function"
    },
    {
      "inputs": [
        {
          "internalType": "address",
          "name": "from",
          "type": "address"
        },
        {
          "internalType": "address",
          "name": "to",
          "type": "address"
        },
        {
          "internalType": "uint256",
          "name": "value",
          "type": "uint256"
        }
      ],
      "name": "transferFrom",
      "outputs": [
        {
          "internalType": "bool",
          "name": "",
          "type": "bool"
        }
      ],
      "stateMutability": "nonpayable",
      "type": "function"
    }
  ],
  "transactionHash": "0xbf7b8d945bdc00839347c8bc2ac1b228dd49c6858b3ab608f66c531663d322ce",
  "args": [],
  "solcInputHash": "129f47c0d7b0ff122ed0decc13425477",
  "bytecode": "0x6101606040527f6e71edae12b1b97f4d1f60370fef10105fa2faae0126114a169c64845d6126c9610140523480156200003757600080fd5b506040518060400160405280600b81526020016a5374616b656420526f6d6560a81b81525080604051806040016040528060018152602001603160f81b8152506040518060400160405280600b81526020016a5374616b656420526f6d6560a81b8152506040518060400160405280600581526020016473524f4d4560d81b81525060098260039080519060200190620000d3929190620002ba565b508151620000e9906004906020850190620002ba565b5060f81b7fff00000000000000000000000000000000000000000000000000000000000000166080525050815160208084019190912082519183019190912060e08290526101008190524660c081905291907f8b73c3c69bb8fe3d512ecc4cf759cc79239f7b179b0ffacaa9a75d522b39400f620001698184846200020c565b60a052610120525050600680546001600160a01b0319163317908190556040516001600160a01b03919091169450600093507fea8258f2d9ddb679928cf34b78cf645b7feda9acc828e4dd82d014eaae270eba9250839150a3600980546001600160a01b031916331790556611c37937e08000600281905562000203908060001906600019036200025160201b620015331790919060201c565b600c5562000366565b604080516020808201959095528082019390935260608301919091524660808301523060a0808401919091528151808403909101815260c09092019052805191012090565b6000808211620002a8576040805162461bcd60e51b815260206004820152601a60248201527f536166654d6174683a206469766973696f6e206279207a65726f000000000000604482015290519081900360640190fd5b818381620002b257fe5b049392505050565b828054600181600116156101000203166002900490600052602060002090601f016020900481019282620002f257600085556200033d565b82601f106200030d57805160ff19168380011785556200033d565b828001600101855582156200033d579182015b828111156200033d57825182559160200191906001019062000320565b506200034b9291506200034f565b5090565b5b808211156200034b576000815560010162000350565b60805160f81c60a05160c05160e051610100516101205161014051611ed5620003bd600039806113d65250806119465250806119885250806119675250806118f252508061191a525080610b4f5250611ed56000f3fe608060405234801561001057600080fd5b50600436106101cf5760003560e01c806370a0823111610104578063a15ad077116100a2578063c4d66de811610071578063c4d66de81461052a578063d505accf14610550578063dd62ed3e146105a1578063ee99205c146105cf576101cf565b8063a15ad077146104a4578063a457c2d7146104ca578063a4b23980146104f6578063a9059cbb146104fe576101cf565b80637ecebe00116100de5780637ecebe00146104665780639358928b1461048c57806395d89b41146104945780639ce110d71461049c576101cf565b806370a08231146103ce57806373c69eb7146103f45780637965d56d14610449576101cf565b80632986c0e5116101715780633644e5151161014b5780633644e51514610373578063395093511461037b57806340a5737f146103a75780635beede08146103c4576101cf565b80632986c0e5146103455780632df75cb11461034d578063313ce56714610355576101cf565b8063095ea7b3116101ad578063095ea7b3146102aa57806318160ddd146102ea5780631bd39674146102f257806323b872dd1461030f576101cf565b80630505c8c9146101d4578063058ecdb4146101f857806306fdde031461022d575b600080fd5b6101dc6105d7565b604080516001600160a01b039092168252519081900360200190f35b61021b6004803603604081101561020e57600080fd5b50803590602001356105e7565b60408051918252519081900360200190f35b610235610852565b6040805160208082528351818301528351919283929083019185019080838360005b8381101561026f578181015183820152602001610257565b50505050905090810190601f16801561029c5780820380516001836020036101000a031916815260200191505b509250505060405180910390f35b6102d6600480360360408110156102c057600080fd5b506001600160a01b038135169060200135610906565b604080519115158252519081900360200190f35b61021b61096c565b61021b6004803603602081101561030857600080fd5b5035610972565b6102d66004803603606081101561032557600080fd5b506001600160a01b03813581169160208101359091169060400135610989565b61021b610b35565b61021b610b47565b61035d610b4d565b6040805160ff9092168252519081900360200190f35b61021b610b71565b6102d66004803603604081101561039157600080fd5b506001600160a01b038135169060200135610b7b565b6102d6600480360360208110156103bd57600080fd5b5035610c0e565b6103cc610c91565b005b61021b600480360360208110156103e457600080fd5b50356001600160a01b0316610d55565b6104116004803603602081101561040a57600080fd5b5035610d7d565b604080519788526020880196909652868601949094526060860192909252608085015260a084015260c0830152519081900360e00190f35b61021b6004803603602081101561045f57600080fd5b5035610dcf565b61021b6004803603602081101561047c57600080fd5b50356001600160a01b0316610de6565b61021b610e07565b610235610e2c565b6101dc610eab565b6103cc600480360360208110156104ba57600080fd5b50356001600160a01b0316610eba565b6102d6600480360360408110156104e057600080fd5b506001600160a01b038135169060200135610fd2565b6103cc6110bb565b6102d66004803603604081101561051457600080fd5b506001600160a01b03813516906020013561117c565b6102d66004803603602081101561054057600080fd5b50356001600160a01b031661123c565b6103cc600480360360e081101561056657600080fd5b506001600160a01b03813581169160208101359091169060408101359060608101359060ff6080820135169060a08101359060c0013561137d565b61021b600480360360408110156105b757600080fd5b506001600160a01b03813581169160200135166114f9565b6101dc611524565b6006546001600160a01b03165b90565b6008546000906001600160a01b0316331461060157600080fd5b61063f6040518060400160405280600d81526020017f636865636b20312073524f4d450000000000000000000000000000000000000081525061159a565b60008061064a610e07565b905061068a6040518060400160405280600d81526020017f636865636b20322073524f4d450000000000000000000000000000000000000081525061159a565b8461071e57600254604080514281526020810192909252805186927f917acfbe39be6509ccf7fecb66a7e42ce2be1083c2d7dd3b9b7491dabddb8da492908290030190a2837f6012dbce857565c4a40974aa5de8373a761fc429077ef0c8c8611d1e20d63fb260006106fa610b35565b6040805192835260208301919091528051918290030190a26002549250505061084c565b801561074a576107438161073d6002548861168f90919063ffffffff16565b90611533565b915061074e565b8491505b61078c6040518060400160405280600d81526020017f636865636b20332073524f4d450000000000000000000000000000000000000081525061159a565b60025461079990836116ef565b60028190556fffffffffffffffffffffffffffffffff10156107ca576fffffffffffffffffffffffffffffffff6002555b6002546107f8907ffffffffffffffffffffffffffffffffffffffffffffffffffff1c2d3019e000090611533565b600c5560408051808201909152600d81527f636865636b20342073524f4d450000000000000000000000000000000000000060208201526108389061159a565b610843818686611749565b50600254925050505b92915050565b60038054604080516020601f60027fffffffffffffffffffffffffffffffffffffffffffffffffffffffffffffffff6101006001881615020190951694909404938401819004810282018101909252828152606093909290918301828280156108fc5780601f106108d1576101008083540402835291602001916108fc565b820191906000526020600020905b8154815290600101906020018083116108df57829003601f168201915b5050505050905090565b336000818152600e602090815260408083206001600160a01b038716808552908352818420869055815186815291519394909390927f8c5be1e5ebec7d5bd14f71427d1e84f3dd0314c0f7b2291e5b200ac8c7c3b925928290030190a350600192915050565b60025490565b600061084c600c548361168f90919063ffffffff16565b60006109ac604051806060016040528060228152602001611e7e6022913961159a565b6001600160a01b0384166000908152600e602090815260408083203384529091529020546109da9083611890565b6001600160a01b0385166000818152600e60209081526040808320338085529083529281902085905580519485525191937f8c5be1e5ebec7d5bd14f71427d1e84f3dd0314c0f7b2291e5b200ac8c7c3b925929081900390910190a36000610a4183610972565b9050610a816040518060400160405280601a81526020017f656e746572696e6720737562737472616374696e6720676f6e7300000000000081525061159a565b6001600160a01b0385166000908152600d6020526040902054610aa49082611890565b6001600160a01b038087166000908152600d60205260408082209390935590861681522054610ad390826116ef565b6001600160a01b038086166000818152600d602090815260409182902094909455805187815290519193928916927fddf252ad1be2c89b69c2b068fc378daa952ba7f163c4a11628f55a4df523b3ef92918290030190a3506001949350505050565b6000610b42600b54610dcf565b905090565b600b5481565b7f000000000000000000000000000000000000000000000000000000000000000090565b6000610b426118ed565b336000908152600e602090815260408083206001600160a01b0386168452909152812054610ba990836116ef565b336000818152600e602090815260408083206001600160a01b0389168085529083529281902085905580519485525191937f8c5be1e5ebec7d5bd14f71427d1e84f3dd0314c0f7b2291e5b200ac8c7c3b925929081900390910190a350600192915050565b6006546000906001600160a01b03163314610c70576040805162461bcd60e51b815260206004820181905260248201527f4f776e61626c653a2063616c6c6572206973206e6f7420746865206f776e6572604482015290519081900360640190fd5b600b5415610c7d57600080fd5b610c8682610972565b600b55506001919050565b6007546001600160a01b03163314610cda5760405162461bcd60e51b8152600401808060200182810382526022815260200180611df76022913960400191505060405180910390fd5b6007546006546040516001600160a01b0392831692909116907faa151555690c956fc3ea32f106bb9f119b5237a061eaa8557cff3e51e3792c8d90600090a3600754600680547fffffffffffffffffffffffff0000000000000000000000000000000000000000166001600160a01b03909216919091179055565b600c546001600160a01b0382166000908152600d6020526040812054909161084c9190611533565b600a8181548110610d8d57600080fd5b90600052602060002090600702016000915090508060000154908060010154908060020154908060030154908060040154908060050154908060060154905087565b600061084c600c548361153390919063ffffffff16565b6001600160a01b038116600090815260056020526040812061084c906119b4565b600854600090610b4290610e23906001600160a01b0316610d55565b60025490611890565b60048054604080516020601f60027fffffffffffffffffffffffffffffffffffffffffffffffffffffffffffffffff6101006001881615020190951694909404938401819004810282018101909252828152606093909290918301828280156108fc5780601f106108d1576101008083540402835291602001916108fc565b6009546001600160a01b031681565b6006546001600160a01b03163314610f19576040805162461bcd60e51b815260206004820181905260248201527f4f776e61626c653a2063616c6c6572206973206e6f7420746865206f776e6572604482015290519081900360640190fd5b6001600160a01b038116610f5e5760405162461bcd60e51b8152600401808060200182810382526026815260200180611dd16026913960400191505060405180910390fd5b6006546040516001600160a01b038084169216907fea8258f2d9ddb679928cf34b78cf645b7feda9acc828e4dd82d014eaae270eba90600090a3600780547fffffffffffffffffffffffff0000000000000000000000000000000000000000166001600160a01b0392909216919091179055565b336000908152600e602090815260408083206001600160a01b038616845290915281205480831061102657336000908152600e602090815260408083206001600160a01b0388168452909152812055611055565b6110308184611890565b336000908152600e602090815260408083206001600160a01b03891684529091529020555b336000818152600e602090815260408083206001600160a01b0389168085529083529281902054815190815290519293927f8c5be1e5ebec7d5bd14f71427d1e84f3dd0314c0f7b2291e5b200ac8c7c3b925929181900390910190a35060019392505050565b6006546001600160a01b0316331461111a576040805162461bcd60e51b815260206004820181905260248201527f4f776e61626c653a2063616c6c6572206973206e6f7420746865206f776e6572604482015290519081900360640190fd5b6006546040516000916001600160a01b0316907fea8258f2d9ddb679928cf34b78cf645b7feda9acc828e4dd82d014eaae270eba908390a3600680547fffffffffffffffffffffffff0000000000000000000000000000000000000000169055565b600080611194600c548461168f90919063ffffffff16565b336000908152600d60205260409020549091506111b19082611890565b336000908152600d6020526040808220929092556001600160a01b038616815220546111dd90826116ef565b6001600160a01b0385166000818152600d60209081526040918290209390935580518681529051919233927fddf252ad1be2c89b69c2b068fc378daa952ba7f163c4a11628f55a4df523b3ef9281900390910190a35060019392505050565b6009546000906001600160a01b0316331461125657600080fd5b6001600160a01b03821661126957600080fd5b600880547fffffffffffffffffffffffff0000000000000000000000000000000000000000166001600160a01b038481169190911780835581166000908152600d602090815260408083207ffffffffffffffffffffffffffffffffffffffffffffffffffff1c2d3019e0000905593546002548551908152945193169391927fddf252ad1be2c89b69c2b068fc378daa952ba7f163c4a11628f55a4df523b3ef9281900390910190a3604080516001600160a01b038416815290517f817c653428858ed536dc085c5d8273734c517b55de44b55f5c5877a75e3373a19181900360200190a15050600980547fffffffffffffffffffffffff0000000000000000000000000000000000000000169055600190565b834211156113d2576040805162461bcd60e51b815260206004820152601d60248201527f45524332305065726d69743a206578706972656420646561646c696e65000000604482015290519081900360640190fd5b60007f00000000000000000000000000000000000000000000000000000000000000008888886114018c6119b8565b8960405160200180878152602001866001600160a01b03168152602001856001600160a01b031681526020018481526020018381526020018281526020019650505050505050604051602081830303815290604052805190602001209050600061146a826119ea565b9050600061147a828787876119fd565b9050896001600160a01b0316816001600160a01b0316146114e2576040805162461bcd60e51b815260206004820152601e60248201527f45524332305065726d69743a20696e76616c6964207369676e61747572650000604482015290519081900360640190fd5b6114ed8a8a8a611a25565b50505050505050505050565b6001600160a01b039182166000908152600e6020908152604080832093909416825291909152205490565b6008546001600160a01b031681565b6000808211611589576040805162461bcd60e51b815260206004820152601a60248201527f536166654d6174683a206469766973696f6e206279207a65726f000000000000604482015290519081900360640190fd5b81838161159257fe5b049392505050565b61168c816040516024018080602001828103825283818151815260200191508051906020019080838360005b838110156115de5781810151838201526020016115c6565b50505050905090810190601f16801561160b5780820380516001836020036101000a031916815260200191505b50604080517fffffffffffffffffffffffffffffffffffffffffffffffffffffffffffffffe08184030181529190526020810180517bffffffffffffffffffffffffffffffffffffffffffffffffffffffff167f41304fac000000000000000000000000000000000000000000000000000000001790529250611a87915050565b50565b60008261169e5750600061084c565b828202828482816116ab57fe5b04146116e85760405162461bcd60e51b8152600401808060200182810382526021815260200180611e5d6021913960400191505060405180910390fd5b9392505050565b6000828201838110156116e8576040805162461bcd60e51b815260206004820152601b60248201527f536166654d6174683a206164646974696f6e206f766572666c6f770000000000604482015290519081900360640190fd5b6000806117628561073d86670de0b6b3a764000061168f565b9050600a6040518060e0016040528085815260200183815260200187815260200161178b610e07565b815260200186815260200161179e610b35565b81524360209182015282546001818101855560009485529382902083516007909202019081558282015193810193909355604080830151600280860191909155606084015160038601556080840151600486015560a0840151600586015560c0909301516006909401939093559054825142815291820152815185927f917acfbe39be6509ccf7fecb66a7e42ce2be1083c2d7dd3b9b7491dabddb8da4928290030190a2827f6012dbce857565c4a40974aa5de8373a761fc429077ef0c8c8611d1e20d63fb28261186d610b35565b6040805192835260208301919091528051918290030190a2506001949350505050565b6000828211156118e7576040805162461bcd60e51b815260206004820152601e60248201527f536166654d6174683a207375627472616374696f6e206f766572666c6f770000604482015290519081900360640190fd5b50900390565b6000467f0000000000000000000000000000000000000000000000000000000000000000811415611941577f00000000000000000000000000000000000000000000000000000000000000009150506105e4565b6119ac7f00000000000000000000000000000000000000000000000000000000000000007f00000000000000000000000000000000000000000000000000000000000000007f0000000000000000000000000000000000000000000000000000000000000000611aa8565b9150506105e4565b5490565b6001600160a01b03811660009081526005602052604081206119d9816119b4565b91506119e481611aed565b50919050565b600061084c6119f76118ed565b83611af6565b6000806000611a0e87878787611b4c565b91509150611a1b81611c5f565b5095945050505050565b6001600160a01b038084166000818152600e6020908152604080832094871680845294825291829020859055815185815291517f8c5be1e5ebec7d5bd14f71427d1e84f3dd0314c0f7b2291e5b200ac8c7c3b9259281900390910190a3505050565b80516a636f6e736f6c652e6c6f67602083016000808483855afa5050505050565b604080516020808201959095528082019390935260608301919091524660808301523060a0808401919091528151808403909101815260c09092019052805191012090565b80546001019055565b604080517f19010000000000000000000000000000000000000000000000000000000000006020808301919091526022820194909452604280820193909352815180820390930183526062019052805191012090565b6000807f7fffffffffffffffffffffffffffffff5d576e7357a4501ddfe92f46681b20a0831115611b835750600090506003611c56565b8460ff16601b14158015611b9b57508460ff16601c14155b15611bac5750600090506004611c56565b600060018787878760405160008152602001604052604051808581526020018460ff1681526020018381526020018281526020019450505050506020604051602081039080840390855afa158015611c08573d6000803e3d6000fd5b50506040517fffffffffffffffffffffffffffffffffffffffffffffffffffffffffffffffe001519150506001600160a01b038116611c4f57600060019250925050611c56565b9150600090505b94509492505050565b6000816004811115611c6d57fe5b1415611c785761168c565b6001816004811115611c8657fe5b1415611cd9576040805162461bcd60e51b815260206004820152601860248201527f45434453413a20696e76616c6964207369676e61747572650000000000000000604482015290519081900360640190fd5b6002816004811115611ce757fe5b1415611d3a576040805162461bcd60e51b815260206004820152601f60248201527f45434453413a20696e76616c6964207369676e6174757265206c656e67746800604482015290519081900360640190fd5b6003816004811115611d4857fe5b1415611d855760405162461bcd60e51b8152600401808060200182810382526022815260200180611e196022913960400191505060405180910390fd5b6004816004811115611d9357fe5b141561168c5760405162461bcd60e51b8152600401808060200182810382526022815260200180611e3b6022913960400191505060405180910390fdfe4f776e61626c653a206e6577206f776e657220697320746865207a65726f20616464726573734f776e61626c653a206d757374206265206e6577206f776e657220746f2070756c6c45434453413a20696e76616c6964207369676e6174757265202773272076616c756545434453413a20696e76616c6964207369676e6174757265202776272076616c7565536166654d6174683a206d756c7469706c69636174696f6e206f766572666c6f77656e746572696e6720737562737472616374696e6720616c6c6f77656456616c7565a2646970667358221220d44095f661d6c106d5350660ff78a9eacea99b5b654fb170061601a93c5b644c64736f6c63430007050033",
  "devdoc": {
    "kind": "dev",
    "methods": {
      "DOMAIN_SEPARATOR()": {
        "details": "See {IERC20Permit-DOMAIN_SEPARATOR}."
      },
      "nonces(address)": {
        "details": "See {IERC20Permit-nonces}."
      },
      "permit(address,address,uint256,uint256,uint8,bytes32,bytes32)": {
        "details": "See {IERC20Permit-permit}."
      },
      "rebase(uint256,uint256)": {
        "params": {
          "profit_": "uint256"
        },
        "returns": {
          "_0": "uint256"
        }
      },
      "totalSupply()": {
        "details": "Returns the amount of tokens in existence."
      }
    },
    "version": 1
  },
  "userdoc": {
    "kind": "user",
    "methods": {
      "rebase(uint256,uint256)": {
        "notice": "increases sROME supply to increase staking balances relative to profit_"
      }
    },
    "version": 1
  },
  "storageLayout": {
    "storage": [
      {
        "astId": 22824,
        "contract": "src/sRomeERC20.sol:sRome",
        "label": "_balances",
        "offset": 0,
        "slot": "0",
        "type": "t_mapping(t_address,t_uint256)"
      },
      {
        "astId": 22830,
        "contract": "src/sRomeERC20.sol:sRome",
        "label": "_allowances",
        "offset": 0,
        "slot": "1",
        "type": "t_mapping(t_address,t_mapping(t_address,t_uint256))"
      },
      {
        "astId": 22832,
        "contract": "src/sRomeERC20.sol:sRome",
        "label": "_totalSupply",
        "offset": 0,
        "slot": "2",
        "type": "t_uint256"
      },
      {
        "astId": 22834,
        "contract": "src/sRomeERC20.sol:sRome",
        "label": "_name",
        "offset": 0,
        "slot": "3",
        "type": "t_string_storage"
      },
      {
        "astId": 22836,
        "contract": "src/sRomeERC20.sol:sRome",
        "label": "_symbol",
        "offset": 0,
        "slot": "4",
        "type": "t_string_storage"
      },
      {
        "astId": 23305,
        "contract": "src/sRomeERC20.sol:sRome",
        "label": "_nonces",
        "offset": 0,
        "slot": "5",
        "type": "t_mapping(t_address,t_struct(Counter)21017_storage)"
      },
      {
        "astId": 23473,
        "contract": "src/sRomeERC20.sol:sRome",
        "label": "_owner",
        "offset": 0,
        "slot": "6",
        "type": "t_address"
      },
      {
        "astId": 23475,
        "contract": "src/sRomeERC20.sol:sRome",
        "label": "_newOwner",
        "offset": 0,
        "slot": "7",
        "type": "t_address"
      },
      {
        "astId": 22061,
        "contract": "src/sRomeERC20.sol:sRome",
        "label": "stakingContract",
        "offset": 0,
        "slot": "8",
        "type": "t_address"
      },
      {
        "astId": 22063,
        "contract": "src/sRomeERC20.sol:sRome",
        "label": "initializer",
        "offset": 0,
        "slot": "9",
        "type": "t_address"
      },
      {
        "astId": 22101,
        "contract": "src/sRomeERC20.sol:sRome",
        "label": "rebases",
        "offset": 0,
        "slot": "10",
        "type": "t_array(t_struct(Rebase)22098_storage)dyn_storage"
      },
      {
        "astId": 22103,
        "contract": "src/sRomeERC20.sol:sRome",
        "label": "INDEX",
        "offset": 0,
        "slot": "11",
        "type": "t_uint256"
      },
      {
        "astId": 22134,
        "contract": "src/sRomeERC20.sol:sRome",
        "label": "_gonsPerFragment",
        "offset": 0,
        "slot": "12",
        "type": "t_uint256"
      },
      {
        "astId": 22138,
        "contract": "src/sRomeERC20.sol:sRome",
        "label": "_gonBalances",
        "offset": 0,
        "slot": "13",
        "type": "t_mapping(t_address,t_uint256)"
      },
      {
        "astId": 22144,
        "contract": "src/sRomeERC20.sol:sRome",
        "label": "_allowedValue",
        "offset": 0,
        "slot": "14",
        "type": "t_mapping(t_address,t_mapping(t_address,t_uint256))"
      }
    ],
    "types": {
      "t_address": {
        "encoding": "inplace",
        "label": "address",
        "numberOfBytes": "20"
      },
      "t_array(t_struct(Rebase)22098_storage)dyn_storage": {
        "base": "t_struct(Rebase)22098_storage",
        "encoding": "dynamic_array",
        "label": "struct sRome.Rebase[]",
        "numberOfBytes": "32"
      },
      "t_mapping(t_address,t_mapping(t_address,t_uint256))": {
        "encoding": "mapping",
        "key": "t_address",
        "label": "mapping(address => mapping(address => uint256))",
        "numberOfBytes": "32",
        "value": "t_mapping(t_address,t_uint256)"
      },
      "t_mapping(t_address,t_struct(Counter)21017_storage)": {
        "encoding": "mapping",
        "key": "t_address",
        "label": "mapping(address => struct Counters.Counter)",
        "numberOfBytes": "32",
        "value": "t_struct(Counter)21017_storage"
      },
      "t_mapping(t_address,t_uint256)": {
        "encoding": "mapping",
        "key": "t_address",
        "label": "mapping(address => uint256)",
        "numberOfBytes": "32",
        "value": "t_uint256"
      },
      "t_string_storage": {
        "encoding": "bytes",
        "label": "string",
        "numberOfBytes": "32"
      },
      "t_struct(Counter)21017_storage": {
        "encoding": "inplace",
        "label": "struct Counters.Counter",
        "members": [
          {
            "astId": 21016,
            "contract": "src/sRomeERC20.sol:sRome",
            "label": "_value",
            "offset": 0,
            "slot": "0",
            "type": "t_uint256"
          }
        ],
        "numberOfBytes": "32"
      },
      "t_struct(Rebase)22098_storage": {
        "encoding": "inplace",
        "label": "struct sRome.Rebase",
        "members": [
          {
            "astId": 22085,
            "contract": "src/sRomeERC20.sol:sRome",
            "label": "epoch",
            "offset": 0,
            "slot": "0",
            "type": "t_uint256"
          },
          {
            "astId": 22087,
            "contract": "src/sRomeERC20.sol:sRome",
            "label": "rebase",
            "offset": 0,
            "slot": "1",
            "type": "t_uint256"
          },
          {
            "astId": 22089,
            "contract": "src/sRomeERC20.sol:sRome",
            "label": "totalStakedBefore",
            "offset": 0,
            "slot": "2",
            "type": "t_uint256"
          },
          {
            "astId": 22091,
            "contract": "src/sRomeERC20.sol:sRome",
            "label": "totalStakedAfter",
            "offset": 0,
            "slot": "3",
            "type": "t_uint256"
          },
          {
            "astId": 22093,
            "contract": "src/sRomeERC20.sol:sRome",
            "label": "amountRebased",
            "offset": 0,
            "slot": "4",
            "type": "t_uint256"
          },
          {
            "astId": 22095,
            "contract": "src/sRomeERC20.sol:sRome",
            "label": "index",
            "offset": 0,
            "slot": "5",
            "type": "t_uint256"
          },
          {
            "astId": 22097,
            "contract": "src/sRomeERC20.sol:sRome",
            "label": "blockNumberOccured",
            "offset": 0,
            "slot": "6",
            "type": "t_uint256"
          }
        ],
        "numberOfBytes": "224"
      },
      "t_uint256": {
        "encoding": "inplace",
        "label": "uint256",
        "numberOfBytes": "32"
      }
    }
  }
}