{
  "address": "0xa360dbe6743142fdbe63B64ba426f5A8b76f771B",
  "abi": [
    {
      "inputs": [
        {
          "internalType": "address",
          "name": "_staking",
          "type": "address"
        },
        {
          "internalType": "address",
          "name": "_sROME",
          "type": "address"
        }
      ],
      "stateMutability": "nonpayable",
      "type": "constructor"
    },
    {
      "inputs": [
        {
          "internalType": "address",
          "name": "_staker",
          "type": "address"
        },
        {
          "internalType": "uint256",
          "name": "_amount",
          "type": "uint256"
        }
      ],
      "name": "retrieve",
      "outputs": [],
      "stateMutability": "nonpayable",
      "type": "function"
    },
    {
      "inputs": [],
      "name": "sROME",
      "outputs": [
        {
          "internalType": "address",
          "name": "",
          "type": "address"
        }
      ],
      "stateMutability": "view",
      "type": "function"
    },
    {
      "inputs": [],
      "name": "staking",
      "outputs": [
        {
          "internalType": "address",
          "name": "",
          "type": "address"
        }
      ],
      "stateMutability": "view",
      "type": "function"
    }
  ],
  "transactionHash": "0xa9c08d85ae3fd5f4952470da8cc35b181cf49d628d37a27cac74c2cf1de0b90f",
  "args": [
    "0xDFB725B09fA4819d4f48681bE05E922Ad3d09373",
    "0x26985e438D5Bb2732102Ea93E217f6E6489D1baa"
  ],
  "solcInputHash": "129f47c0d7b0ff122ed0decc13425477",
  "bytecode": "0x60c060405234801561001057600080fd5b506040516102f63803806102f68339818101604052604081101561003357600080fd5b5080516020909101516001600160a01b03821661004f57600080fd5b6001600160601b0319606083901b166080526001600160a01b03811661007457600080fd5b606081811b6001600160601b03191660a052608051901c91506001600160a01b031661023b6100bb6000398060e0528061014652508060bc528061011a525061023b6000f3fe608060405234801561001057600080fd5b50600436106100415760003560e01c80634cf088d9146100465780638147f55814610077578063c3a2a6651461007f575b600080fd5b61004e6100ba565b6040805173ffffffffffffffffffffffffffffffffffffffff9092168252519081900360200190f35b61004e6100de565b6100b86004803603604081101561009557600080fd5b5073ffffffffffffffffffffffffffffffffffffffff8135169060200135610102565b005b7f000000000000000000000000000000000000000000000000000000000000000081565b7f000000000000000000000000000000000000000000000000000000000000000081565b3373ffffffffffffffffffffffffffffffffffffffff7f0000000000000000000000000000000000000000000000000000000000000000161461014457600080fd5b7f000000000000000000000000000000000000000000000000000000000000000073ffffffffffffffffffffffffffffffffffffffff1663a9059cbb83836040518363ffffffff1660e01b8152600401808373ffffffffffffffffffffffffffffffffffffffff16815260200182815260200192505050602060405180830381600087803b1580156101d557600080fd5b505af11580156101e9573d6000803e3d6000fd5b505050506040513d60208110156101ff57600080fd5b5050505056fea264697066735822122096d546d6b4213d8c3f913a92db1b1a69d98861990f3e43558191d15b935a9fde64736f6c63430007050033",
  "devdoc": {
    "kind": "dev",
    "methods": {},
    "version": 1
  },
  "userdoc": {
    "kind": "user",
    "methods": {},
    "version": 1
  },
  "storageLayout": {
    "storage": [],
    "types": null
  }
}