{
  "address": "0xC6FB1FAD4214b0DF44077B0379fE5bD982932cF0",
  "abi": [
    {
      "inputs": [
        {
          "internalType": "address",
          "name": "_staking",
          "type": "address"
        },
        {
          "internalType": "address",
          "name": "_ROME",
          "type": "address"
        }
      ],
      "stateMutability": "nonpayable",
      "type": "constructor"
    },
    {
      "inputs": [],
      "name": "ROME",
      "outputs": [
        {
          "internalType": "address",
          "name": "",
          "type": "address"
        }
      ],
      "stateMutability": "view",
      "type": "function"
    },
    {
      "inputs": [
        {
          "internalType": "uint256",
          "name": "_amount",
          "type": "uint256"
        },
        {
          "internalType": "address",
          "name": "_recipient",
          "type": "address"
        }
      ],
      "name": "stake",
      "outputs": [],
      "stateMutability": "nonpayable",
      "type": "function"
    },
    {
      "inputs": [],
      "name": "staking",
      "outputs": [
        {
          "internalType": "address",
          "name": "",
          "type": "address"
        }
      ],
      "stateMutability": "view",
      "type": "function"
    }
  ],
  "transactionHash": "0x658ca116ed8704ed7d9867c716a2ef50a200c42d38254fa8b8cba74324fdf9c9",
  "args": [
    "0xf604c7bc6A6181C68861F85Ffb6E03aaa9a21CfF",
    "0xf61F86C28E5C79df7b175F302E994fD49519BF7c"
  ],
  "solcInputHash": "129f47c0d7b0ff122ed0decc13425477",
  "bytecode": "0x60c060405234801561001057600080fd5b506040516105243803806105248339818101604052604081101561003357600080fd5b5080516020909101516001600160a01b03821661004f57600080fd5b6001600160601b0319606083901b166080526001600160a01b03811661007457600080fd5b606081811b6001600160601b03191660a052608051901c91506001600160a01b03166104596100cb600039806101315280610214528061040152508060bc52806101e352806102da528061039952506104596000f3fe608060405234801561001057600080fd5b50600436106100415760003560e01c80634cf088d9146100465780637acb7757146100775780639d95fbd2146100b2575b600080fd5b61004e6100ba565b6040805173ffffffffffffffffffffffffffffffffffffffff9092168252519081900360200190f35b6100b06004803603604081101561008d57600080fd5b508035906020013573ffffffffffffffffffffffffffffffffffffffff166100de565b005b61004e6103ff565b7f000000000000000000000000000000000000000000000000000000000000000081565b604080517f23b872dd00000000000000000000000000000000000000000000000000000000815233600482015230602482015260448101849052905173ffffffffffffffffffffffffffffffffffffffff7f000000000000000000000000000000000000000000000000000000000000000016916323b872dd9160648083019260209291908290030181600087803b15801561017957600080fd5b505af115801561018d573d6000803e3d6000fd5b505050506040513d60208110156101a357600080fd5b5050604080517f095ea7b300000000000000000000000000000000000000000000000000000000815273ffffffffffffffffffffffffffffffffffffffff7f0000000000000000000000000000000000000000000000000000000000000000811660048301526024820185905291517f00000000000000000000000000000000000000000000000000000000000000009092169163095ea7b3916044808201926020929091908290030181600087803b15801561025f57600080fd5b505af1158015610273573d6000803e3d6000fd5b505050506040513d602081101561028957600080fd5b5050604080517f7acb77570000000000000000000000000000000000000000000000000000000081526004810184905273ffffffffffffffffffffffffffffffffffffffff838116602483015291517f000000000000000000000000000000000000000000000000000000000000000090921691637acb7757916044808201926020929091908290030181600087803b15801561032557600080fd5b505af1158015610339573d6000803e3d6000fd5b505050506040513d602081101561034f57600080fd5b5050604080517f1e83409a00000000000000000000000000000000000000000000000000000000815273ffffffffffffffffffffffffffffffffffffffff838116600483015291517f000000000000000000000000000000000000000000000000000000000000000090921691631e83409a9160248082019260009290919082900301818387803b1580156103e357600080fd5b505af11580156103f7573d6000803e3d6000fd5b505050505050565b7f00000000000000000000000000000000000000000000000000000000000000008156fea264697066735822122063cf34008c7001eae62be058118a7bb2beccccb9ff00d7e62702246e4822158b64736f6c63430007050033",
  "devdoc": {
    "kind": "dev",
    "methods": {},
    "version": 1
  },
  "userdoc": {
    "kind": "user",
    "methods": {},
    "version": 1
  },
  "storageLayout": {
    "storage": [],
    "types": null
  }
}